:100000000C943D000C945A000C945A000C945A0025
:100010000C945A000C945A000C944D270C945A00DE
:100020000C945A000C945A000C945A000C94761EAE
:100030000C945A000C945A000C94BC080C945A006E
:100040000C945A000C945A000C9483270C94AB28FF
:100050000C945A000C945A000C948C0F0C945A0077
:100060000C945A000C945A00CD1DEC1DFA1D041E70
:100070001E1E281E331E4C1E561E11241FBECFEFFF
:10008000D8E0DEBFCDBF15E0A0E0B1E0E8E8F4E5E0
:1000900002C005900D92AE32B107D9F728E0AEE26A
:1000A000B5E001C01D92A530B207E1F70E945C00E7
:1000B0000C942E2A0C940000EF92FF920F931F9342
:1000C000CF93DF9300D000D0CDB7DEB70E94C31E20
:1000D0000E941F100E9435210E9475080E94C310C3
:1000E0000E949A130E94B71C0E94871D0E9431240F
:1000F0000E94BE1D0E94300140E351E069E371E0BF
:100100008EE391E00E94861619821A821B821C825D
:10011000CE0101969C01CE010196AC01CE01019663
:10012000BC018AE797E00E94E221000000EA1FE09C
:1001300020E030E040E65AEE60E070E08AE797E0C9
:100140000E94D60E892B91F30E948B099093220670
:100150008093210685E491E00E94C91E80912106CA
:10016000909122060E94BF1F0E948E097C010E946E
:1001700091098C010E948B099701A801BC018AE7B3
:1001800097E00E94E22183E00E94F01185E00E9446
:10019000BB1284E00E94F0110E945C2780E00E9464
:1001A000F01180E090E00E947F070E94EA160E9412
:1001B00068270E943E1081E090E00E942F09892B61
:1001C000F9F00E949F1D9093010180930001E0913E
:1001D000FD06F091FE062091FB063091FC06409151
:1001E000F9065091FA066091F7067091F806809131
:1001F0000001909101018F010E94BF1D0E94991D75
:1002000080E00E946417882349F060E97FE180E084
:100210000E94A41780E00E94AA17C9CF80E00E9424
:10022000551B882361F4809125069091260604973A
:1002300031F08091250690912606039719F40E94CB
:100240003C010DC00E941B10892B11F40E948811E3
:100250000E941B10892B09F0AACF0E949008A7CFFB
:10026000CF93DF93CDB7DEB7109226061092250606
:100270000000DF91CF910895CF93DF93CDB7DEB724
:1002800061970FB6F894DEBF0FBECDBF80912506F3
:10029000909126068230910509F424C2833091059D
:1002A00030F4009761F0019709F4FFC145C5833030
:1002B000910509F434C2049709F450C23DC580E5A4
:1002C00091E00E94C91E6DE671E080E00E94A51BCE
:1002D000882349F010922A061092290682E791E0BD
:1002E0000E94C91E31C06DE771E080E00E94A51B2D
:1002F000882359F081E090E090932A0680932906A4
:1003000082E891E00E94C91E1FC06DE871E080E0A4
:100310000E94A51B882359F082E090E090932A0662
:100320008093290685E991E00E94C91E0DC08FEFD8
:100330009FEF90932A068093290683E090E09093A4
:10034000260680932506F8C463EA71E080E00E94E7
:10035000A51B882359F48BEA91E00E94C91E83E013
:1003600090E09093260680932506E6C461EC71E048
:1003700080E00E94A51B882339F463EC71E080E0E3
:100380000E94A51B8823E1F08091290690912A06FE
:10039000892B89F08091290690912A06019759F0BE
:1003A0008BEC91E00E94C91E83E090E090932606BA
:1003B00080932506C1C410921E0610921D064FC0E0
:1003C00060EF71E080E00E94A51B8823C1F080915E
:1003D000290690912A06019759F08BEC91E00E9432
:1003E000C91E83E090E09093260680932506A4C45E
:1003F00081E090E090931E0680931D0630C068EF68
:1004000071E080E00E94A51B8823C1F0809129063D
:1004100090912A06029759F08BEC91E00E94C91E38
:1004200083E090E0909326068093250685C482E0C1
:1004300090E090931E0680931D0611C08DEF91E011
:100440000E94C91E8FEF9FEF90931E0680931D069A
:1004500083E090E090932606809325066DC48091FA
:10046000290690912A06019739F580911D069091F1
:100470001E06892B09F564E172E080E00E94A51B4D
:10048000882339F081E090E0909328068093270636
:1004900013C06BE172E080E00E94A51B882329F065
:1004A000109228061092270607C083E090E09093F0
:1004B00026068093250640C48091290690912A063D
:1004C000019709F05EC080911D0690911E0601976C
:1004D00009F057C063E272E080E00E94A51B882308
:1004E00029F0109224061092230637C06EE272E0C3
:1004F00080E00E94A51B882339F081E090E0909372
:1005000024068093230629C069E372E080E00E94FC
:10051000A51B882339F082E090E090932406809315
:1005200023061BC064E472E080E00E94A51B8823C0
:1005300039F083E090E090932406809323060DC069
:100540008FEF9FEF909324068093230683E090E043
:100550009093260680932506EFC36FE176E080E056
:100560000E94441C882369F48FEF9FEF9093240628
:100570008093230683E090E09093260680932506DF
:10058000DBC38091290690912A06892B91F46FE4B0
:1005900072E080E00E94A51B8823E9F48AE592E0DE
:1005A0000E94C91E83E090E0909326068093250662
:1005B000C3C361E772E080E00E94A51B882359F461
:1005C0008AE592E00E94C91E83E090E0909326069F
:1005D00080932506B1C36DE772E080E00E94A51B01
:1005E000882339F483E090E09093260680932506D3
:1005F000A3C31C861B861A82198248C0CE010B96A3
:10060000BC0180E00E94441C882339F483E090E020
:1006100090932606809325063EC08B859C85282FC7
:1006200089819A81875E994FFC01208364E872E09A
:1006300080E00E94A51B882339F483E090E090932A
:1006400026068093250627C089819A81875E994F67
:10065000FC014081209121063091220689819A81F6
:10066000820F931FFC018081481759F086E892E0C1
:100670000E94C91E83E090E0909326068093250691
:100680000AC089819A8101969A83898389819A8196
:1006900004970CF4B3CF80E00E94FB1B81E090E054
:1006A000909326068093250647C380E00E94831B13
:1006B000882371F080E00E94FB1B81EA92E00E9497
:1006C000C91E84E090E0909326068093250634C3EB
:1006D00080E00E94FB1B81E090E0909326068093CF
:1006E00025062AC380E00E94831B882371F080E0E6
:1006F0000E94FB1B84E090E09093260680932506E1
:1007000081EA92E00E94C91E17C380E00E94FB1B91
:1007100082E090E090932606809325060DC380EC3E
:1007200092E00E94C91E61ED72E080E00E94EA1929
:1007300068EE72E080E00E94EA196CEF72E080E0FF
:100740000E94EA1980E00E94ED1780E591E00E9486
:10075000C91E1092260610922506EEC28FEF92E077
:100760000E94C91E8091290690912A06892B09F0C2
:1007700013C28EE193E00E94C91E6CE373E080E037
:100780000E94EA196EE473E080E00E94EA1968EEC4
:1007900072E080E00E94EA196CEF72E080E00E9453
:1007A000EA196BE780E00E94FA1967E773E080E0DE
:1007B0000E940B1A6AE380E00E94FA196BE780E05E
:1007C0000E94FA196BE773E080E00E940B1A6AE35B
:1007D00080E00E94FA1962E577E080E00E940B1A3F
:1007E0006CE280E00E94FA1961E873E080E00E9408
:1007F0000B1A6AE380E00E94FA196EE577E080E068
:100800000E940B1A6CE280E00E94FA196EE873E015
:1008100080E00E940B1A6AE380E00E94FA196AE6FF
:1008200077E080E00E940B1A6CE280E00E94FA19E7
:100830006CE973E080E00E940B1A6AE380E00E949A
:10084000FA198091760790917707A0917807B09177
:100850007907AC01BD0180E00E941E1A6CE280E0C5
:100860000E94FA196DEA73E080E00E940B1A6AE3B5
:1008700080E00E94FA196AE777E080E00E94491A56
:100880006CE280E00E94FA1969EB73E080E00E945C
:100890000B1A6AE380E00E94FA1960E877E080E0D2
:1008A0000E940B1A6DE780E00E94FA196CE280E06A
:1008B0000E94FA1966EC73E080E00E940B1A6AE36A
:1008C00080E00E94FA198091F7069091F806BC0129
:1008D00080E00E947F1A6CE280E00E94FA196FECBF
:1008E00073E080E00E940B1A6AE380E00E94FA192C
:1008F0008091F9069091FA06BC0180E00E947F1A6F
:100900006CE280E00E94FA1968ED73E080E00E94DA
:100910000B1A6AE380E00E94FA198091FB0690911D
:10092000FC06BC0180E00E947F1A6CE280E00E941D
:10093000FA1961EE73E080E00E940B1A6AE380E02E
:100940000E94FA198091FD069091FE06BC0180E09C
:100950000E947F1A6CE280E00E94FA196AEE73E04E
:1009600080E00E940B1A6AE380E00E94FA198091ED
:10097000000190910101BC0180E00E947F1A6CE2AD
:1009800080E00E94FA1966EF73E080E00E940B1A83
:100990006AE380E00E94FA192091F7063091F80688
:1009A00080910001909101012817390734F46CEF10
:1009B00073E080E00E940B1A4EC02091FB0630913C
:1009C000FC0680910001909101018217930734F495
:1009D00064E074E080E00E940B1A3DC02091F906AB
:1009E0003091FA0680910001909101012817390792
:1009F0008CF42091F7063091F806809100019091D7
:100A000001012817390734F06CE074E080E00E949F
:100A10000B1A21C02091FD063091FE068091000145
:100A200090910101821793078CF42091FB0630917D
:100A3000FC0680910001909101018217930734F028
:100A400064E174E080E00E940B1A05C06CE174E080
:100A500080E00E940B1A6CE280E00E94FA1963E2C7
:100A600074E080E00E940B1A6AE380E00E94FA19A9
:100A70006BE580E00E94FA190E945E12882F90E0D8
:100A8000A0E0B0E08F839887A987BA871B821C8279
:100A90001D821E825EC09E012F5E3F4FAE01435FEE
:100AA0005F4F8B819C81AD81BE81BC01CD010E94D5
:100AB00077126BE780E00E94FA1967E274E080E049
:100AC0000E940B1A6AE380E00E94FA198D859E85C8
:100AD000AF85B889AC01BD0180E00E941E1A6CE2AE
:100AE00080E00E94FA1961E374E080E00E940B1A32
:100AF0006AE380E00E94FA198989882F90E0BC019E
:100B000080E00E947F1A6DE780E00E94FA198F81D1
:100B10009885A985BA859C01AD012150310941090B
:100B200051098B819C81AD81BE8182179307A407F7
:100B3000B50720F46CE280E00E94FA198B819C8159
:100B4000AD81BE810196A11DB11D8B839C83AD83B8
:100B5000BE832B813C814D815E818F819885A985E3
:100B6000BA85281739074A075B0708F494CF6DE563
:100B700080E00E94FA196DE780E00E94FA196CEF9C
:100B800072E080E00E94EA1987E394E00E94C91EA7
:100B900080E00E94ED17CBC08091290690912A0633
:100BA000019709F077C080911D0690911E0601976C
:100BB00009F070C08091230690912406892B81F45E
:100BC00080911F06909120060E94E706892B09F468
:100BD00046C083E090E09093260680932506ACC043
:100BE0008091230690912406019779F480911F0645
:100BF000909120060E940C07892B89F183E090E0F8
:100C0000909326068093250697C0809123069091A5
:100C10002406029779F480911F06909120060E9485
:100C20003507892BE1F083E090E0909326068093CE
:100C3000250682C08091230690912406039779F4BB
:100C400080911F06909120060E945E07892B39F043
:100C500083E090E090932606809325066DC00E9465
:100C600044080E941B10892B11F40E9490086CE329
:100C700073E080E00E94EA1968EE72E080E00E9472
:100C8000EA196CEF72E080E00E94EA1980E00E94AD
:100C9000ED174DC08091290690912A06019709F51C
:100CA00080911D0690911E06892BD9F46CE373E0A8
:100CB00080E00E94EA1968EE72E080E00E94EA1982
:100CC0006CEF72E080E00E94EA1980912706909113
:100CD0002806892B61F180E00E94ED170E946A27A7
:100CE00026C08091290690912A06029701F58091ED
:100CF0001D0690911E060297D1F40E9441120E9497
:100D00001B10892B11F40E9488116CE373E080E0C2
:100D10000E94EA1968EE72E080E00E94EA196CEF26
:100D200072E080E00E94EA1980E00E94ED171092C4
:100D30002606109225060000000061960FB6F89472
:100D4000DEBF0FBECDBFDF91CF910895CF93DF936C
:100D5000CDB7DEB727970FB6F894DEBF0FBECDBF75
:100D60009D838C837F836E831B821A821EC08A813F
:100D70009B812C813D81820F931FFC018081998191
:100D8000890F89838FE590E0FC018081082E000C9B
:100D9000990B81709927892B19F089818F5F89833D
:100DA0008A819B8101969B838A832A813B818E81E4
:100DB0009F8128173907D8F28981809527960FB629
:100DC000F894DEBF0FBECDBFDF91CF910895CF93D2
:100DD000DF9300D0CDB7DEB79A8389832091F906DF
:100DE0003091FA0689819A812817390774F489812C
:100DF0009A81811594404CF489819A819093F806E8
:100E00008093F70680E090E002C081E090E00F90D0
:100E10000F90DF91CF910895CF93DF9300D0CDB79E
:100E2000DEB79A8389832091FD063091FE06898181
:100E30009A812817390794F42091F7063091F80623
:100E400089819A81821793074CF489819A819093C2
:100E5000FA068093F90680E090E002C081E090E01D
:100E60000F900F90DF91CF910895CF93DF9300D033
:100E7000CDB7DEB79A8389832091FB063091FC06BB
:100E800089819A812817390794F42091F9063091C5
:100E9000FA0689819A81821793074CF489819A8195
:100EA0009093FE068093FD0680E090E002C081E012
:100EB00090E00F900F90DF91CF910895CF93DF9343
:100EC00000D0CDB7DEB79A8389832091FD0630919B
:100ED000FE0689819A81821793074CF489819A8151
:100EE0009093FC068093FB0680E090E002C081E0D6
:100EF00090E00F900F90DF91CF91089508958F9219
:100F00009F92AF92BF92EF92FF920F931F93CF9356
:100F1000DF9300D000D01F92CDB7DEB77C01809167
:100F2000530490915404A0915504B09156048983C0
:100F30009A83AB83BC8348EB52E2BE016F5F7F4F65
:100F400083E00E94FB1648EB52E2BE016F5F7F4FC9
:100F500083E00E94121B0E9472160E941C1D8C01CD
:100F60000E9472169801AC0160E070E083E00E947C
:100F7000C7190E9472160E941C1D8C0121E030E0EE
:100F800040EC54E0BC0183E00E94C7190F5F1F4F83
:100F90008AE697E00E941C1D9C014AE657E0B801D2
:100FA00083E00E94C7198AE697E00E941C1D080F83
:100FB000191F21E030E040EC54E0B80183E00E94CA
:100FC000C719B8016F5F7F4FC70124E096958795D9
:100FD0002A95E1F78A30910510F0895C01C0805DA7
:100FE0008D8321E030E0AE014B5F5F4F83E00E94D4
:100FF000C719B8016E5F7F4F8E2D8F7097012F70CC
:1010000033272A30310510F0895C01C0805D8D8363
:1010100021E030E0AE014B5F5F4F83E00E94C719D3
:1010200083E00E94371B0E9472094B015C0125EF8F
:10103000820E21E0921EA11CB11C0E94720968154B
:1010400079058A059B05C9F783E00E94A81788EBFC
:1010500094E00E94C91EB70180E090E00E94F71E54
:1010600089ED94E00E94C91E0F900F900F900F9091
:101070000F90DF91CF911F910F91FF90EF90BF9054
:10108000AF909F908F90089581E080932E050895F2
:101090008091F306813461F48091F406833541F444
:1010A00081E090E02091F506253521F080E002C036
:1010B00080E090E0E3EFF6E020E03191230F37E0AD
:1010C000E630F307D1F7222311F080E090E0089595
:1010D00062E170E082E091E00E94FC1F42E162E088
:1010E00071E080E490E00C94D20F0E941B10892BD9
:1010F000E1F742E163EF76E080E490E00E940610C1
:101100000E944808892B49F40E94680842E163EF75
:1011100076E080E490E00E94061010922E0508957B
:101120000E941B10892B99F480912E05882379F059
:1011300062E170E083EF96E00E94FC1F42E163EF02
:1011400076E080E490E00E94D20F10922E05089580
:1011500080912E05882379F062E170E083EF96E0BC
:101160000E94FC1F42E163EF76E080E490E00E9481
:10117000EF0F10922E0508951F920F920FB60F9247
:1011800011242F933F938F939F93AF93BF932091FD
:10119000390530913A058091310590913205281733
:1011A000390749F08091390590913A05019690935D
:1011B0003A058093390520913B0530913C0580919B
:1011C0003305909134052817390749F080913B0584
:1011D00090913C05019690933C0580933B0580914E
:1011E000350590913605A0913705B09138050196E7
:1011F000A11DB11D8093350590933605A093370549
:10120000B0933805BF91AF919F918F913F912F91EE
:101210000F900FBE0F901F90189589EF87BD82E049
:1012200084BD93E095BD789480936E00109235054F
:1012300010923605109237051092380508958230C5
:10124000910550F4F894880F991FFC01E75CFA4F60
:10125000808191817894089580E090E008958230B3
:10126000910598F4880F991FFC01E75CFA4F2081E3
:101270003181FC01EF5CFA4F81E090E040815181C7
:101280004217530721F080E0089580E090E0089530
:101290000F931F93CF93DF93EC018B0180912F0568
:1012A00090913005892B41F40E940D0981E090E076
:1012B0009093300580932F05C230D10570F48FB71D
:1012C000F894CC0FDD1FFE01EF5CFA4F1183008311
:1012D000C75CDA4F198218828FBFDF91CF911F91BF
:1012E0000F91089580912F0590913005892B41F43D
:1012F0000E940D0981E090E09093300580932F05C6
:10130000F89460913505709136058091370590917C
:101310003805789408958BE495E008958FE495E07E
:10132000089583E595E0089587E595E008958BE5B8
:1013300095E0089544E150E060E00E960C94F11CB5
:1013400008952F923F924F925F926F927F928F9269
:101350009F92AF92BF92CF92DF92EF92FF920F9344
:101360001F93CF93DF93CDB7DEB7E6970FB6F89410
:10137000DEBF0FBECDBF8C012A013B0119011AAAA5
:1013800019AA0E9472094B015C0182E00E94721846
:10139000892BF9F40E947209DC01CB0188199909A3
:1013A000AA09BB09481659066A067B0608F4A7C0B5
:1013B0000E9472096B017C0123E3C20ED11CE11C67
:1013C000F11C0E9472096C157D058E059F05C9F7F9
:1013D000DCCF48E050E0BE016D5D7F4F82E00E94AF
:1013E000CE18FFA08BA18BA78CA18CA78DA18DA758
:1013F0008EA18EA7E8A442E250E0BE016F5F7F4F4E
:1014000082E00E94CE188981823009F076C08F2D4B
:1014100090E0982F88278E0D911D8334910509F057
:101420006CC06D817E818F8198850E940D2AF101AB
:10143000608371838283938346E050E0B801685FE4
:101440007F4FCE014D960E94FB1C892B09F059C09D
:10145000F10180819181A281B381F80140815181A4
:101460006281738184179507A607B70708F449C0FE
:101470004481558166817781481759076A077B0740
:1014800008F43FC044E050E0BE016F5E7F4FC801EA
:101490000E960E94E51C8EECE82EF12C41E050E007
:1014A000BE01615D7F4F82E00E94CE18F1E0EF1A2D
:1014B000F108A1F7C80182969CAB8BABF801B696F8
:1014C000FEABEDAB1801FAE22F0E311C08976C0150
:1014D0002E019BE2490E511C3801E2E16E0E711C97
:1014E0005801F6E1AF0EB11C48012EE1820E911CAD
:1014F00082E00E947218892B31F48AA924C18FEFEF
:1015000022C180E020C141E050E0BE01605D7F4F1C
:1015100082E00E94CE1888A9833309F4E0C0D0F499
:101520008130B9F128F3833009F442C0863009F0E4
:10153000F5C041E050E0BE016F5C7F4F82E00E9449
:10154000CE1844E050E0B40182E00E94CE18E12CB5
:10155000F12C51C08A3309F48DC030F4853359F031
:10156000863309F45BC0DAC08B3309F49EC08F3F29
:1015700009F4BECFD3C041E050E0BE016F5C7F4FA5
:1015800082E00E94CE1841E050E0BE016E5C7F4FC9
:101590000BC041E050E0BE016F5C7F4F82E00E94D3
:1015A000CE1844E050E0B30182E00E94CE18A0CFF4
:1015B00041E050E0BE016F5C7F4F82E00E94CE1898
:1015C00044E050E0B50182E00E94CE18E12CF12CFD
:1015D00089A990E00497E816F9060CF089CF41E05C
:1015E00050E0BE01615D7F4F82E00E94CE188FEF18
:1015F000E81AF80AEDCF89A990E00497E816F906F1
:101600000CF076CF41E050E0BE01615D7F4F82E09B
:101610000E94CE189FEFE91AF90AEDCF41E050E0A1
:10162000BE016F5C7F4F82E00E94CE18F801828D70
:10163000811109C0838D811106C0848D811103C081
:10164000858D882319F04C145D0421F444E050E0AA
:10165000B601AACF89A99FEF980F99AB882309F407
:1016600047CF41E050E0BE01615D7F4F82E00E94C4
:10167000CE18F0CF41E050E0BE016F5C7F4F82E0BA
:101680000E94CE1844E050E06DA97EA982E00E943D
:10169000CE18F80166A177A180A591A50E940D2A18
:1016A00066A377A380A791A723CF41E050E0BE01B6
:1016B0006F5C7F4F82E00E94CE1844E050E0B101A1
:1016C00082E00E94CE18F80162A573A584A595A5B5
:1016D0000E940D2A62A773A784A795A709CF41E0AE
:1016E00050E0BE016F5C7F4F82E00E94CE1844E064
:1016F00050E06BA97CA982E00E94CE18F80162A19B
:1017000073A184A195A10E940D2A62A373A384A34F
:1017100095A366A777A780AB91ABEACE41E050E0F6
:10172000BE016F5C7F4F82E00E94CE1889A99FEFB7
:10173000980F99AB882309F4DBCE41E050E0BE015D
:10174000615D7F4FF0CFE6960FB6F894DEBF0FBE17
:10175000CDBFDF91CF911F910F91FF90EF90DF9060
:10176000CF90BF90AF909F908F907F906F905F9041
:101770004F903F902F9008950E96089542960895A9
:10178000469608954A9608954E96089580E3FB0183
:1017900080833296842F82958F7090E1899F4019C3
:1017A00011244A3014F4405D01C0495C4293482F33
:1017B0008111F0CF0895AF92BF92DF92EF92FF9226
:1017C0000F931F93CF93DF93CDB7DEB7AA970FB6D2
:1017D000F894DEBF0FBECDBF8C01D62EF42EE52EC1
:1017E00040E250E060E0CE0101960E94F11C809141
:1017F000570490915804A0915904B0915A048DA3B4
:101800009EA3AFA3B8A743E450E0BE016B5D7F4F3A
:1018100082E00E94121B892B09F4FBC081E08983BE
:101820008A8386E08B831C82F801648175818681BE
:1018300097810E940D2A69A37AA38BA39CA344E0FD
:1018400050E0BE016F5D7F4FCE0105960E94E51C02
:10185000E986FA8680E890E09AA789A742E050E0FE
:10186000BE01675D7F4FCE010B960E94E51C2CE107
:1018700030E0AE014F5F5F4F60E070E082E00E94B9
:10188000C71940E250E060E0CE0101960E94F11CD1
:101890005801F8E0AF0EB11C46E050E0B501CE01B2
:1018A00001960E94E51C20E130E0AE014F5F5F4FE2
:1018B0006CE170E082E00E94C71940E250E060E015
:1018C000CE0101960E94F11C8CE2E82EF12C20E260
:1018D00030E0AE014F5F5F4FB70182E00E94C71951
:1018E00080E2E80EF11CECEEEE16F10481F783E6DF
:1018F000898392E89A8393E59B838C8385E38D8328
:1019000081E08E83DF829DE3988797E099878A87BD
:1019100046E050E0B501CE010B960E94E51C8CE03C
:10192000898B82EC94E00E941C1D8A5F8A8B62EC9A
:1019300074E0CE0143960E94121DF8014385BE015A
:10194000675E7F4FC8010E94C60BF8014485BE0147
:10195000655E7F4FC8010E94C60BF8014585BE0138
:10196000635E7F4FC8010E94C60B2EE130E0AE01DE
:101970004F5F5F4F6CEE70E082E00E94C719F3E0AA
:10198000DF1227C082E3898384E08A83F801968589
:101990009B8397859C8390899D8391899E8396E301
:1019A0009F838887828D8987838D8A87848D8B87A3
:1019B000858D8C872CE030E0AE014F5F5F4F6AE091
:1019C00071E082E00E94C71966E171E080E090E07A
:1019D00004C06AE071E080E090E027E3298326E01C
:1019E0002A8331E03B8333E03C832D832FE02E8339
:1019F0002AE32F832BE328872FEF298729E030E084
:101A0000AE014F5F5F4F82E00E94C71982E00E94E3
:101A1000371BAA960FB6F894DEBF0FBECDBFDF917D
:101A2000CF911F910F91FF90EF90DF90BF90AF90FB
:101A300008952F923F924F925F926F927F928F9272
:101A40009F92AF92BF92CF92DF92EF92FF920F934D
:101A50001F93CF93DF9300D000D0CDB7DEB78C01BA
:101A600020ED37E040E050E061E070E080E090E0A1
:101A70000E942B20A0E0B0E0F80184839583A68328
:101A8000B78380839183A283B38382E00E94A817E7
:101A900064E470E082E00E94A017882309F42EC15C
:101AA0000E9472094B015C01212C312C7801F2E477
:101AB000EF0EF11C48EE442E43E0542E612C712CA5
:101AC00052E0C52ED7018C91833009F4FEC08111FC
:101AD0001FC0F80184819581A681B7810196A11D5F
:101AE000B11D84839583A683B7830E947209681908
:101AF00079098A099B09A30192010E94C629A901BB
:101B000061E0C8010E94DB0B81E0D7018C93C5C066
:101B10008430F1F4F80184819581A681B781019622
:101B2000A11DB11D84839583A683B7830E9472098A
:101B3000681979098A099B09A30192010E94C629A3
:101B4000A90163E0C8010E94DB0BD701CC92A5C0BC
:101B5000813051F5F80142AD53AD64AD75AD9E01D4
:101B60002F5F3F4FC8010E94A109D82EF2E08F13CA
:101B70008FC089819A81AB81BC81F8018483958370
:101B8000A683B7830E947209681979098A099B099B
:101B9000A30192010E94C629A90163E0C8010E9425
:101BA000DB0BD701DC9279C0823009F076C0F801F6
:101BB00042AD53AD64AD75AD9E012F5F3F4FC8017F
:101BC0000E94A109D82EF5E08F135CC0E3E0D70195
:101BD000EC93F80182A193A1A4A1B5A1892B8A2B32
:101BE0008B2B41F484E893E0A0E0B0E082A393A3C0
:101BF000A4A3B5A3F80186A197A1A0A5B1A5892B9F
:101C00008A2B8B2B61F482A193A1A4A1B5A1B695D7
:101C1000A7959795879586A397A3A0A7B1A7F80145
:101C200082A593A5A4A5B5A5892B8A2B8B2BA9F4F6
:101C300082A193A1A4A1B5A1AC01BD0123E0769539
:101C40006795579547952A95D1F7841B950BA60B59
:101C5000B70B82A793A7A4A7B5A7F80186A197A160
:101C6000A0A5B1A586A797A7A0ABB1AB82A593A568
:101C7000A4A5B5A582AB93ABA4ABB5AB22242394AA
:101C8000312C0BC0F6E08F1303C0D7011C9205C0A6
:101C9000BFEFDB1202C0F7011082F1E02F16310412
:101CA00009F410CF0E947209DC01CB01881999094F
:101CB000AA09BB09F80126A937A940AD51AD2817DB
:101CC00039074A075B0708F0FDCE82E00E94A8179B
:101CD000F80184819581A681B7810196A11DB11D6E
:101CE00084839583A683B7830E947209F801FE96C8
:101CF0006083718382839383C10102C080E090E09E
:101D00000F900F900F900F90DF91CF911F910F9137
:101D1000FF90EF90DF90CF90BF90AF909F908F900B
:101D20007F906F905F904F903F902F900895CF924B
:101D3000DF92EF92FF920F931F93CF93DF93EC010B
:101D40006B011AA21BA21CA21DA21EA21FA218A6F2
:101D500019A61AA61BA61CA61DA62EAB3FAB48AF04
:101D600059AFEAAEFBAE0CAF1DAF8C01085F1F4F41
:101D700046E050E060E0C8010E94F11CCE010E94E4
:101D80009A0946E050E0B601C8010E94E51CFE0138
:101D9000EE5BFF4F1082CE01DF91CF911F910F912B
:101DA000FF90EF90DF90CF900C94190DEF92FF927F
:101DB0000F931F93780189019A01AB01BC018DE358
:101DC00095E00E94970E1F910F91FF90EF9008955C
:101DD000CF92DF92EF92FF920F931F93CF93DF93F7
:101DE000EC010E9472096B017C018E01025C1F4FA5
:101DF000F80180819181A281B381A7019601281BFE
:101E0000390B4A0B5B0BCA01B901683E33E073071B
:101E10008105910508F441C028EE33E040E050E030
:101E20000E94C629C61AD70AE80AF90AF801C08230
:101E3000D182E282F3828EA59FA5A8A9B9A96901E2
:101E40007A01CC0CDD1CEE1CFF1C8C159D05AE052B
:101E5000BF0528F41EA61FA618AA19AA08C0821B2F
:101E6000930BA40BB50B8EA79FA7A8ABB9AB8AA900
:101E70009BA9ACA9BDA98C159D05AE05BF0528F48D
:101E80001AAA1BAA1CAA1DAA08C0821B930BA40B8A
:101E9000B50B8AAB9BABACABBDAB8EA59FA5A8A980
:101EA000B9A9892B8A2B8B2B69F4FE01EE5BFF4FBE
:101EB0008081833039F484E08083CE010E94190D43
:101EC000019602C080E090E04AA95BA96CA97DA9B7
:101ED000452B462B472B81F4FE01EE5BFF4F208103
:101EE000233011F0211108C01082CE010E949A09FE
:101EF000CE010E94190D0396DF91CF911F910F9192
:101F0000FF90EF90DF90CF9008958DE395E00C94D3
:101F1000E80EFA9AF99A08951F920F920FB60F924F
:101F200011242F933F934F935F936F937F938F93DE
:101F30009F93AF93BF93EF93FF93E09149078091F5
:101F40000807E81720F0FB98109205071AC0809147
:101F500006079091070792BD81BD81E08E0F8093A7
:101F60004907F0E0E75FF84F808180BD8091060768
:101F700090910707019690930707809306070E94A8
:101F8000890FFF91EF91BF91AF919F918F917F91B9
:101F90006F915F914F913F912F910F900FBE0F90D6
:101FA0001F901895209105072111FCCF90930707EA
:101FB0008093060781E080930507109249074093BC
:101FC0000807962FA9E0B7E0FB018E2F891B841725
:101FD00018F481918D93F9CF7894FB9A0895FB01C1
:101FE000861B970B50E0DC01AE0FBF1F9F01261B25
:101FF000370B2417350748F4F999FECFB2BDA1BDC0
:10200000219120BDFA9AF99AEECF08952091050703
:102010002111FCCFFB01861B970B2E2F261B2417AB
:1020200048F49C012E0F3F1F32BD21BDF89A20B508
:102030002193F3CF08958091050790E0089560E023
:1020400070E080E090E00E944809219A2998089564
:10205000299A089529980895909381058093800581
:1020600010928405109283051092820560E070E062
:1020700080E090E00E9448090C942A10809180052D
:1020800090918105892B09F452C080E090E00E9474
:102090002F09892B09F44BC080918205811134C02E
:1020A0002091830530918405E0918005F0918105B0
:1020B000E20FF31F80818032E9F03CF481111DC0F2
:1020C000109284051092830508958D3239F08E3276
:1020D000A1F40E9428106AEF70E004C00E9428104A
:1020E0006EEE72E080E090E00E94480981E080930B
:1020F0008205089568EE73E00BC02F5F3F4F309369
:1021000084052093830508950E942A1064E670E0F8
:1021100080E090E00E94480910928205809183053A
:10212000909184050196909384058093830508958A
:1021300085B18695817090E008958031910504F510
:1021400027E0289FA001299F500D1124FA01E8578C
:10215000FA4F80818132A0F480E090E020E0FA0123
:10216000E80FF91FE857FA4F3081230F01968730A7
:102170009105A9F781E090E0222321F080E0089505
:1021800080E090E008956F927F928F929F92AF923D
:10219000BF92CF92DF92EF92FF920F931F93CF9354
:1021A000DF930E941B10892BE1F708EF15E0C0E8D0
:1021B000D0E0BE01685F7A4F47E0CE010E94061072
:1021C000F80111928F012796C03FD10591F748E899
:1021D000E42E45E0F42E8701C0E0D0E0D12CB12CF4
:1021E00077247A94CE010E949D10892B41F0F8014A
:1021F0008081871520F4BC2E782EDD24D39421967F
:10220000095F1F4FC031D10569F7DD2009F46AC0AD
:10221000B092870570928605CB2DD0E08E010F5FBE
:102220001F4F872C2FE0A22E37E0932E6801FFE08E
:10223000CF22DD24C6010E949D10892B61F4B0924B
:1022400085058E0101501109609780E1A82EB12CFF
:1022500097E0692E3AC09C9CF0019D9CF00D1124E2
:10226000E857FA4F4081242F30E0882D90E0019606
:102270008F7199272817390711F7C0928705409366
:102280008605AA940F5F1F4FAA20C9F2842ECECFD5
:10229000F701208130E0872D90E04F968F719927CC
:1022A0002817390731F5C0928505689CF001699CB3
:1022B000F00D1124E857FA4F708001501109F7E032
:1022C000EF0EF11C0C171D07A1F0C801B5010E940B
:1022D000B2296C014C019924C4010E949D10892BE4
:1022E000B9F607C08FE0809387051092860510929B
:1022F0008505DF91CF911F910F91FF90EF90DF90B7
:10230000CF90BF90AF909F908F907F906F900895E7
:10231000EF92FF921F93CF93DF930E941B10892BA4
:1023200039F5E8EFF5E0C0E0D0E081918823E1F0F5
:1023300017E01C9FC0011D9F900D11249C01285780
:102340003A4F790167E070E0C9010E94FC1FC19F0C
:10235000C001112447E0B70180589F4F0E94D20F5F
:10236000C850DA4F188204C02196C031D105E9F671
:10237000DF91CF911F91FF90EF900895EF92FF9220
:102380001F93CF93DF93E8EFF5E0C0E0D0E08191B9
:102390008823E1F017E01C9FC0011D9F900D1124C0
:1023A0009C0128573A4F790167E070E0C9010E940B
:1023B000FC1FC19FC001112447E0B70180589F4F07
:1023C0000E94EF0FC850DA4F188204C02196C03126
:1023D000D105E9F6DF91CF911F91FF90EF9008951D
:1023E000EF92FF920F931F93CF93DF93E82EC0914C
:1023F0008705D0E02196CF70DD278091850590E09C
:102400000E949D10F82E809186058F5F813218F40E
:102410008093860502C01092860587E08C9F80011C
:102420008D9F100D112408571A4F80918605F801D1
:1024300080830E949C13F801618372838383948359
:10244000E582C093870567E070E0C8010E94FC1F29
:10245000C850DA4F81E08883809187059091850587
:10246000891308C0FF2031F090E001968F70992702
:1024700080938505DF91CF911F910F91FF90EF9091
:102480000895E8E8F5E0A8EFB5E08FEF4FEF5FEFD4
:10249000BA0191E08083858341835283638374838F
:1024A0009D93379625E0E83FF207A1F78FE08093F0
:1024B0008705109285051092860508950F931F9346
:1024C000CF93DF9300918505C02F10E0D0E0CE01BF
:1024D0000E949D10892B29F02196CF701F5F0C134D
:1024E000F5CF812FDF91CF911F910F910895AF927A
:1024F000BF92CF92DF92EF92FF920F931F93CF93F1
:10250000DF936B017C018A0159010E945E1290E009
:10251000A0E0B0E0C816D906EA06FB06F8F4809100
:10252000850590E0C80ED91E8FE0C822DD2487E023
:102530008C9DF0018D9DF00D1124E857FA4F81819B
:102540009281A381B481E80188839983AA83BB83A4
:102550008581F501808381E090E002C080E090E019
:10256000DF91CF911F910F91FF90EF90DF90CF906F
:10257000BF90AF9008954F925F926F927F928F922B
:102580009F92AF92BF92CF92DF92EF92FF920F9302
:102590001F93CF93DF93CDB7DEB7CA57D1090FB6DC
:1025A000F894DEBF0FBECDBFF82E80915B049091F2
:1025B0005C04A0915D04B0915E04E9968CAF9DAF80
:1025C000AEAFBFAFE99783E00E946B17882329F075
:1025D0006BE770E083E00E94A01750E3E52E6E01E8
:1025E00001E4C00ED11C63E2462E512C612C712CEB
:1025F000FF2009F482C0F6010E2D11920A95E9F729
:10260000F60140825182628273820BE710E09E01E4
:102610002B583F4F40E350E0B60183E00E947C1806
:10262000C09709F06AC00E9472094B015C01F9EE83
:102630008F0EF3E09F1EA11CB11C0E947209681549
:1026400079058A059B05C9F783E00E9472180097F7
:1026500009F451C08E0107581F4F9E012F583F4F5C
:10266000AC01BE016F5F7F4F83E00E94EF18C097FF
:1026700009F041C069A5862F90E0A0E0B0E0BA2F34
:10268000A92F982F88272AA5820F911DA11DB11D62
:10269000BA2FA92F982F88272BA5820F911DA11D36
:1026A000B11DBA2FA92F982F88274CA550E060E0C4
:1026B00070E04058534169417C4B8A019B01080FEF
:1026C000191F2A1F3B1FC901B8010E946F150E94E4
:1026D000C21389EC94E00E94C91E0E9472160E94E7
:1026E000C91E86ED94E00E94C91E83E00E94A817CF
:1026F00081E090E007C0FA947BCF83E00E94A817A6
:1027000080E090E0C658DF4F0FB6F894DEBF0FBEF2
:10271000CDBFDF91CF911F910F91FF90EF90DF9090
:10272000CF90BF90AF909F908F907F906F905F9071
:102730004F9008950C949B1E0C94AB1E60934A0717
:1027400070934B0780934C0790934D070C94B71EE2
:102750009C0160E971E00E949E29892B79F0C901F2
:1027600083709927892B61F4C90164E670E00E94A7
:102770009E299C0181E0232B21F402C081E0089571
:1027800080E008952F923F924F925F926F927F92D6
:102790008F929F92AF92BF92CF92DF92EF92FF9271
:1027A0000F931F93CF93DF93CDB7DEB767970FB625
:1027B000F894DEBF0FBECDBF2CE0EFE5F4E0AE0134
:1027C0004F5F5F4F1A01DA0101900D922A95E1F7F0
:1027D000DC012C91220F2056322F330F330F230FA1
:1027E00011963C9111973153230F2D8713962C91FD
:1027F0001397022E000C330B205331096AE0629FBD
:10280000A001639F500D11241496CC900C2C000C49
:10281000DD08B0E3CB1AD108C40ED51E86010150E5
:102820001109FC012681022E000C330B20533109C3
:10283000E8EEF3E02E9FA0012F9F500D3E9F500D1C
:102840001124DC0117962C911797022E000C330BE4
:102850002053310974E6729F7001739FF00C1124AC
:10286000E40EF51E18964C911897042E000C550B8B
:1028700040535109649F9001659F300D1124E20E71
:10288000F31E19962C911997F701E20FF11D27FD00
:10289000FA95AF0158507A011B962C911B97220F85
:1028A0002056322F330F330F230F1C963C911C9769
:1028B0003053230F298B1E962C911E97220F2056E2
:1028C000322F330F330F230F1F963C911F97305336
:1028D000230F2A8B51962C915197220F2056322F7D
:1028E000330F330F230F52968C918053280F2B8B6D
:1028F000CA010E94A813882321F05D85523008F098
:102900008601C70160E971E00E949E29FC01DB019C
:1029100020E839E540E650EF0E94232A2B013C01D4
:10292000CF0164E670E00E949E29FC01DB0120E0FB
:1029300032EC47E15CEB0E94232A4B015C01DF0192
:10294000B695A795B695A79520E83FE146E857E0EC
:102950000E94232A6B017C01DF01A370BB2720E8C2
:1029600033E341EE51E00E94232A6C8B7D8B8E8BEA
:102970009F8BF1018E2F82199D85891720F48191FB
:10298000080F111DF7CFA9892A2F30E0A0E1BEE082
:102990000E94142A6D877E878F87988BBA892B2F88
:1029A00030E0ACE3B0E00E94142A2D853E854F85CF
:1029B0005889260F371F481F591FDA01C9013B8963
:1029C000830F911DA11DB11D480E591E6A1E7B1E4D
:1029D000840C951CA61CB71CC80CD91CEA1CFB1C3B
:1029E0008C899D89AE89BF89C80ED91EEA1EFB1E3F
:1029F000D80120E831E541E050E00E94232ADC01C3
:102A0000CB018C0D9D1DAE1DBF1D80934A07909379
:102A10004B07A0934C07B0934D0767960FB6F894F9
:102A2000DEBF0FBECDBFDF91CF911F910F91FF9001
:102A3000EF90DF90CF90BF90AF909F908F907F905E
:102A40006F905F904F903F902F900C94B71EEF9235
:102A5000FF920F931F93CF93DF93CDB7DEB76897A5
:102A60000FB6F894DEBF0FBECDBF7B012CE0EFE5C3
:102A7000F4E0DE011D9601900D922A95E1F78E019A
:102A80000F5F1F4F2CE0F80111922A95E9F70E9481
:102A9000A8138A83DE011D9680E0F70140815181F1
:102AA0009D91F80121918F0130E0290F311D4217CE
:102AB000530740F0421B530BF701518340838F5F54
:102AC0008C3059F768960FB6F894DEBF0FBECDBFB5
:102AD000DF91CF911F910F91FF90EF9008954F924A
:102AE0005F926F927F928F929F92AF92BF92CF929E
:102AF000DF92EF92FF92CF93DF9300D0CDB7DEB796
:102B00002B013C0181E090E0A0E0B0E020E842161B
:102B100029E5520620E6620620EF720618F480E0EE
:102B200090E0DC0120E931E0829F5001839FB00CEE
:102B3000929FB00C112480E3A81A88EFB80AC12C28
:102B4000D12C7601C39420E8421629E5520620E6EE
:102B5000620620EF720618F4C12CD12C7601A70171
:102B6000960160E879E580E690EF0E948E29730176
:102B70006201C61AD70AE80AF90A81E090E0A0E0EB
:102B8000B0E0C11422ECD20627E1E2062CEBF206FB
:102B900018F480E090E0DC0144E6489F9001499FF2
:102BA000300D1124A20EB31E21E030E040E050E0D1
:102BB000C11482ECD80687E1E8068CEBF80618F41D
:102BC00020E030E0A90160E072EC87E19CEB0E941C
:102BD0008E29A7019601261B370B480B590BCA01FA
:102BE000B90120E83FE146E857E00E94C629220FDC
:102BF000331F220F331FA20EB31E20E833E341EE32
:102C000051E00E94C6297501E20EF31E20E831E56D
:102C100041E050E00E94C6294B015C013A832983C0
:102C2000BE016F5F7F4FC7010E942715D82EC501D7
:102C3000B40120E13EE040E050E00E94C6292901B5
:102C40003A014B015C016CED74E084E191E00E947B
:102C5000121D6D2D70E06F5F7F4F42E084E191E0C7
:102C60000E94251D69817A816F5F7F4F42E087E175
:102C700091E00E94251D44E0B7018AE191E00E94A5
:102C8000251D42E0B2018FE191E00E94251DC501A2
:102C9000B4012CE330E040E050E00E94C629490135
:102CA0005A016B017C0142E0B40182E291E00E9492
:102CB000251D42E0B60185E291E00E94251D84E1D8
:102CC00091E00F900F90DF91CF91FF90EF90DF9008
:102CD000CF90BF90AF909F908F907F906F905F90BC
:102CE0004F9008950F931F930E94AB1E00914A07C7
:102CF00010914B0720914C0730914D07600F711FC9
:102D0000821F931F1F910F910C946F15EF92FF92EA
:102D10000F931F93CF93DF938C01EB017A01009700
:102D200021F0209711F0452B29F480EF94E00E94C8
:102D3000C91EFFCF65E075E00E94E11F892B29F4D1
:102D400080EF94E00E94C91E44C06FE075E0CE01A0
:102D50000E94E11F892BA1F368E175E0C7010E9481
:102D6000E11F892B69F34CE050E0B80182E597E060
:102D70000E94E51C10925D074CE050E0BE018EE51C
:102D800097E00E94E51C109269074CE050E0B70103
:102D90008AE697E00E94E51C10927507F801808191
:102DA0008E7F80937A07818180937B0782818093D5
:102DB0007C07888180937D07898180937E078A8143
:102DC00080937F07DF91CF911F910F91FF90EF903C
:102DD0000895FFCF0E94DE28882361F00E94E52835
:102DE0008435C1F780E295E00E94C91E8FEF90E024
:102DF0000C947F070895EF92FF921F93CF93DF9378
:102E000000D000D000D0CDB7DEB7182F7A0186E011
:102E1000EBE6F4E0DE01119601900D928A95E1F760
:102E2000FB0181818F778C8382818D8383818E8367
:102E3000812F0E943125BE016F5F7F4F812F0E943D
:102E40002325B701812F0E943F25B701812F0E94C2
:102E5000FA2462E8812F0E94CB2461E0812F0E9436
:102E6000DD2481E026960FB6F894DEBF0FBECDBFFD
:102E7000DF91CF911F91FF90EF9008950E94F6246B
:102E800091E0823209F090E0892F08950E94F624A3
:102E9000882341F08C3131F091E08A3109F490E0DF
:102EA000892F089580E008950E94F62491E08431EE
:102EB00009F090E0892F08950E94F62491E087316F
:102EC00009F090E0892F08950E94F62491E0811185
:102ED00090E0892F08950C946417CF93C82F60E178
:102EE0000E94DD246FEF8C2FCF910C94E8240F9378
:102EF0001F93CF93DF93C82FD62F8A010E946D179F
:102F00006D2F8C2F0E94CB240115110511F0B801F3
:102F10000AC060910806709109066F5F7F4F709339
:102F20000906609308068C2F0E94FA2461E08C2F1A
:102F30000E94DD2481E0DF91CF911F910F910895D0
:102F4000AB0162E00C947717AB0161E00C9477174A
:102F50000C946D17CF93C82F0E94F624833131F45F
:102F600062E08C2F0E94DD2481E001C080E0CF91DF
:102F700008950F931F93CF93FB0190819F3F51F4CE
:102F800091819F3F91F492819F3F79F493819F3F7C
:102F900061F41DC0911109C09181911106C0928107
:102FA000911103C09381992399F04115510579F04E
:102FB0008A01BF01C82F0E943125B8018C2F0E94C1
:102FC0003F2564E08C2F0E94DD2491E001C090E059
:102FD000892FCF911F910F91089568E00C94DD2403
:102FE000CF92DF92EF92FF920F931F93CF93C82F50
:102FF0007B018A014130584010F000E018E08C2F2E
:103000000E94BA256C018C2F0E94F624873111F0A2
:103010008C3121F4C016D10690F302C000E010E01C
:10302000A801B7018C2F0E945B2660E28C2F0E94C2
:10303000DD248C2F0E94ED2484FD0BC08C2F0E9478
:10304000F6248111F6CF8C2F0E946D1780E090E05E
:1030500005C060E18C2F0E94E824C801CF911F9128
:103060000F91FF90EF90DF90CF900895CF92DF9275
:10307000EF92FF921F93CF93DF93182F6B017A018A
:103080000E94A226EC01009789F4812F0E94F62469
:103090008431E9F08823D9F0C1E0D0E08C3111F41B
:1030A000C0E0D0E0D195C195D10911C0E816F9066C
:1030B0000CF4E7011C161D0654F420E0AE01B60125
:1030C000812F0E941C2760E4812F0E94DD24CE0105
:1030D000DF91CF911F91FF90EF90DF90CF900895F7
:1030E0000C94A2260C94A22621E041E050E00E941C
:1030F0001C2781E090E00895CF92DF92EF92FF923B
:103100000F931F93CF93F9019081911109C0918181
:10311000911106C09281911103C093819923A1F16D
:103120000115110589F17A014130584018F0E12C60
:1031300098E0F92EE114F10439F16B01C82FBF01B9
:103140000E943125B8018C2F0E943F25A701B601AE
:103150008C2F0E945B2660E28C2F0E94DD248C2F36
:103160000E94ED2484FD0AC08C2F0E94ED2483FF71
:10317000F6CF68E18C2F0E94E82406C060E18C2F16
:103180000E94E824C70102C080E090E0CF911F9127
:103190000F91FF90EF90DF90CF900895EF92FF9204
:1031A0001F93CF93DF934115510589F0EA017B010D
:1031B000182F0E94A2268C179D0708F4EC0120E02E
:1031C000AE01B701812F0E941C27CE0102C080E012
:1031D00090E0DF91CF911F91FF90EF9008958F9233
:1031E0009F92BF92CF92DF92EF92FF920F931F9325
:1031F000CF93DF93CDB7DEB728970FB6F894DEBF35
:103200000FBECDBF452B09F47EC049016B01B82E1E
:103210000E94CF267C018B2D0E94D02487708330A2
:1032200059F1843009F445C0823009F065C028E0C6
:1032300030E0AE014F5F5F4FB7018B2D0E946F23CF
:1032400088E0E80EF11C8981F40180838A81818302
:103250008B8182838C8183838D8190E0982F882756
:103260002E81820F911DF801918380830F8110E0E0
:10327000102F002788851AC026E030E0AE014F5F8E
:103280005F4FB7018B2D0E946F23F6E0EF0EF11C0C
:103290008981F40180838A8181838B8182838C81FF
:1032A00083830D8110E0102F00278E81080F111DE0
:1032B00016C022E030E0AE014F5F5F4FB7018B2DAB
:1032C0000E946F23F2E0EF0EF11C098110E0902FB5
:1032D00088270A8110E002501109080F191F980170
:1032E000A601B7018B2D0E946F23B701600F711FDC
:1032F0008B2D0E94BE2602C000E010E060E48B2D02
:103300000E94DD2402C000E010E0C80128960FB63C
:10331000F894DEBF0FBECDBFDF91CF911F910F910B
:10332000FF90EF90DF90CF90BF909F908F90089587
:103330001F93CF93DF93182FEA014130584018F4C0
:103340002097F9F002C0C0E0D8E0AE01812F0E94C2
:103350005B2660E2812F0E94DD24812F0E94ED24F4
:1033600084FD09C0812F0E94ED2483FFF6CF812FB9
:103370000E946D1706C060E1812F0E94E824CE01F3
:1033800002C080E090E0DF91CF911F910895CF922D
:10339000DF92EF92FF921F93CF93DF93182F7B0161
:1033A0006A01E9010E94BA258C179D0720F4812F3C
:1033B0000E94BA25EC019E01A601B701812F0E944F
:1033C0001026CE01DF91CF911F91FF90EF90DF90FB
:1033D000CF9008951F93CF93DF93182FEB01CB016C
:1033E0000E941C1DAC01BE01812FDF91CF911F9166
:1033F0000C94F017CF93DF931F92CDB7DEB769839C
:1034000041E050E0BE016F5F7F4F0E94F0170F90C8
:10341000DF91CF9108950F931F93CF93C82F8B0106
:1034200062E20E94FA19B8018C2F0E94EA1962E246
:103430008C2FCF911F910F910C94FA19CF93C82F15
:10344000CB01BA010E946F15FC011286BC018C2FC2
:10345000CF910C940B1ACF93DF93D82FC62F70E027
:1034600084E0759567958A95E1F76A3010F4605DA0
:1034700001C0695C8D2F0E94FA196C2F6F706A3041
:1034800010F0695C01C0605D8D2FDF91CF910C94CD
:10349000FA19EF92FF920F931F93CF93C82F7B01DE
:1034A00062E20E94FA19F70161918F018C2F0E944C
:1034B0002B1AF6E0EF0EF11C6AE38C2F0E94FA192A
:1034C000F80161918F018C2F0E942B1A0E151F0598
:1034D00099F762E28C2FCF911F910F91FF90EF909F
:1034E0000C94FA19CF93DF93C82FD62F672F0E9421
:1034F0002B1A6D2F8C2FDF91CF910C942B1A2F92BA
:103500003F924F925F926F927F928F929F92AF9273
:10351000BF92CF92DF92EF92FF920F931F93CF93C0
:10352000DF93CDB7DEB762970FB6F894DEBF0FBE5C
:10353000CDBF782E7B0177FF08C0F194E194F108AC
:1035400081E090E0998B888B02C0198A188AFE016D
:1035500031961F018E01055F1F4F6F0188248394F0
:10356000912CA12CB12CAAE0B0E09401A5010E94FD
:10357000232A6A8B472E582E692EB7010F2C000C78
:10358000880B990B2A89342D452D562D0E94E82948
:103590009401A5010E94E829F60121936F01E21A26
:1035A000F10827FDF3948A88942CA52CB62C0E17CD
:1035B0001F07C9F688899989892B21F06DE2872D2B
:1035C0000E94FA1980E090E0F80162918F01611188
:1035D00005C0009719F42E163F0641F4605DF8010E
:1035E0006083872D0E94FA1981E090E02016310651
:1035F00059F762960FB6F894DEBF0FBECDBFDF91CC
:10360000CF911F910F91FF90EF90DF90CF90BF90DF
:10361000AF909F908F907F906F905F904F903F9072
:103620002F9008950F931F93CF93FB0190819111D9
:1036300009C09181911106C09281911103C09381BB
:10364000992379F04115510561F08A01BF01C82F16
:103650000E943125B8018C2F0E943F2581E090E027
:1036600002C080E090E0CF911F910F910895CF9319
:10367000C82F60E20E94DD248C2F0E94ED2484FD7F
:103680000CC08C2F0E94ED2483FFF6CF68E18C2FB5
:103690000E94E82480E090E006C060E18C2F0E9448
:1036A000E82481E090E0CF910895EF92FF920F938C
:1036B0001F93CF93DF931F92CDB7DEB7182FE12C66
:1036C000F12C812F0E94A226E816F90688F401E069
:1036D000970141E050E0BE016F5F7F4F812F0E9454
:1036E000E72689818A3031F08FEFE81AF80AE9CFAE
:1036F00080E001C081E00F90DF91CF911F910F9189
:10370000FF90EF9008951F93CF93DF931F92CDB753
:10371000DEB7182F0E94A226892B89F021E041E014
:1037200050E0BE016F5F7F4F812F0E941C2799815F
:1037300081E09D3029F09A3019F080E001C081E0ED
:103740000F90DF91CF911F9108958F929F92AF922A
:10375000BF92CF92DF92EF92FF920F931F93CF937E
:10376000DF931F92CDB7DEB7182F5B010E94A22610
:103770007C01C5010E941C1DE816F90668F175015F
:103780006701CA18DB084701F7018081882399F097
:1037900001E0960141E050E0BE016F5F7F4F812F55
:1037A0000E94E7268FEFE81AF80AF40190818981D8
:1037B000981731F311C0C114D10461F041E050E019
:1037C000BE016F5F7F4F812F0E943618F1E0CF1A44
:1037D000D108F1CF81E001C080E00F90DF91CF915F
:1037E0001F910F91FF90EF90DF90CF90BF90AF901F
:1037F0009F908F9008951F93CF93DF931F92CDB723
:10380000DEB7182F812F0E94A226892BC1F141E03B
:1038100050E0BE016F5F7F4F812F0E943618898173
:103820008D30D1F4812F0E94A226892B59F321E0FB
:1038300041E050E0BE016F5F7F4F812F0E941C2747
:1038400089818A30E1F441E050E0BE016F5F7F4F33
:10385000812F0E94361813C08A30A1F6812F0E9452
:10386000A226892B79F221E041E050E0BE016F5F92
:103870007F4F812F0E941C2789818D3021F30F906B
:10388000DF91CF911F910895BF92CF92DF92EF9277
:10389000FF920F931F93CF93DF931F92CDB7DEB7A5
:1038A000C82E8B01FB01118210820E94A226892B57
:1038B00009F451C0D12CEE24E394F12C2AE0B22E6D
:1038C0008C2D0E94A226892BB9F121E041E050E025
:1038D000BE016F5F7F4F8C2D0E941C2789818D3226
:1038E00031F4D11038C0EE24EA94FE2C1CC090EDC7
:1038F000980F9A3090F4F80140815181B49E900164
:10390000B59E300D1124082E000C990BC097820F24
:10391000931F91838083D39406C08A3069F08D30E1
:1039200059F0803249F041E050E0BE016F5F7F4FB7
:103930008C2D0E943618C4CFF801208131812E9D34
:10394000C0012F9D900D3E9D900D11249183808389
:1039500081E0D11001C080E00F90DF91CF911F91E5
:103960000F91FF90EF90DF90CF90BF9008959FB799
:10397000F894229B2A9A229A259A239A2D988CB5FC
:1039800080618CBD8CB580648CBD10920A069FBF8F
:10399000089580910A06089590910A06911109C030
:1039A0009FB7F8948CBD6DBD81E080930A069FBFE0
:1039B0002A9808958EBD00000DB407FEFDCF8EB588
:1039C00008952A9A10920A060895FB01480F591F7C
:1039D0008417950729F02191DC012D93CD01F8CFB3
:1039E0000895480F591F8417950721F0FC01619332
:1039F000CF01F9CF0895FB01480F591F8417950790
:103A000059F0DC013D91CD012191321740F023178F
:103A1000A8F781E090E0089580E090E008958FEFAE
:103A20009FEF0895FC01DB018D91BD01882311F00A
:103A30008193F9CF10820895FC019F01281B390B57
:103A400041914111FACFC90108959F92AF92BF925F
:103A5000CF92DF92EF92FF920F931F93CF93DF935A
:103A600000D000D01F92CDB7DEB7FC016B019E01E4
:103A70002F5F3F4F8E010A5F1F4FEE24E394F12C1E
:103A80009AE0992E9E9C50019F9CB00C1124C60177
:103A9000B5010E949E29B7010E949E29D9016D930C
:103AA0009D01C61AD10867FDD3947501A017B1070F
:103AB00049F760E070E084E090E050E0D8012E919A
:103AC0008D01211105C06115710511F4009741F4B4
:103AD000841795072CF4205D219361E070E004C009
:103AE000841795070CF43196019740F70F900F90CB
:103AF0000F900F900F90DF91CF911F910F91FF903A
:103B0000EF90DF90CF90BF90AF909F90089588EC9A
:103B100080937C0086E880937A00089580917A00F3
:103B2000829586958695837091E08927817090E0D3
:103B30000895EAE7F0E080818064808308958091B1
:103B400078002091790030E0322F2227A901330F2D
:103B5000660B770B9A01AB01282BA5E6B0E00E941B
:103B6000232A24E630E040E050E00E94E829DA0110
:103B7000C90181519140A109B109089508950F9398
:103B80001F93E0910B06F0910C06E930F10508F067
:103B90009BC0EC5CFF4F0C94072A8417950764F0D8
:103BA0008AE295E00E942C1086E00E94F01186E0E7
:103BB00090E00E947F0725C0081719070CF48EC0FB
:103BC0008AE295E00E942C1088E00E94F01188E0C3
:103BD00090E00E947F070BC0841795070CF7081729
:103BE00019070CF47BC08AE295E00E942C1086E055
:103BF00090E065C084179507FCF28AE295E00E9488
:103C00002C1083E090E05BC08617970764F08CE28D
:103C100095E00E942C1085E00E94F01185E090E074
:103C20000E947F0712C0841795070CF057C080ECE4
:103C300094E00E942C1082E090E041C08617970724
:103C400094F38CE295E00E942C1085E090E037C060
:103C5000861797070CF042C08AE295E00E942C106C
:103C600084E090E02CC02817390764F08CE295E0DE
:103C70000E942C1087E00E94F01187E090E00E94E3
:103C80007F0711C0081719074CF580EC94E00E94DB
:103C90002C1081E090E013C0281739079CF38CE2C8
:103CA00095E00E942C1088E090E009C028173907A1
:103CB000ACF48AE295E00E942C1087E090E09093AB
:103CC0000C0680930B060AC010920C0610920B068D
:103CD00080EC94E01F910F910C942C101F910F9188
:103CE000089510920C0610920B0608951F920F92E1
:103CF0000FB60F9211248F939F93AF93BF93809130
:103D00000D0690910E06A0910F06B0911006019637
:103D1000A11DB11D80930D0690930E06A0930F0672
:103D2000B0931006BF91AF919F918F910F900FBEEE
:103D30000F901F90189583E294EF909389008093E1
:103D40008800109280008CE080938100789482E05B
:103D500080936F0008952FB7F89460910D067091CD
:103D60000E0680910F06909110062FBF08958FB711
:103D7000F89410920D0610920E0610920F061092F3
:103D800010068FBF08950E947027789408950C94B0
:103D90003429CF93DF93EC018991882319F00E9495
:103DA0003429FACFDF91CF910895CF93C82F90E0B7
:103DB00024E0959587952A95E1F78A3010F4805D87
:103DC00001C0895C0E9434298C2F8F708A3010F0DA
:103DD000895C01C0805DCF910C943429CF93C82FAA
:103DE000892F0E94D51E8C2FCF910C94D51E2F9217
:103DF0003F924F925F926F927F928F929F92AF927B
:103E0000BF92CF92DF92EF92FF920F931F93CF93C7
:103E1000DF93CDB7DEB763970FB6F894DEBF0FBE62
:103E2000CDBF6B017C0197FF0DC0F094E094D0945E
:103E3000C094C11CD11CE11CF11C81E090E09B8B63
:103E40008A8B02C01B8A1A8AFE0131965F018E019D
:103E5000055F1F4FF98BE88B66246394712C812CCE
:103E6000912CAAE0B0E09301A4010E94232A1B0137
:103E70002C01C701B6019101A2010E94E82993011A
:103E8000A4010E94E829E889F9892193F98BE88B3C
:103E9000822F220F990BAA0BBB0BC81AD90AEA0A68
:103EA000FB0A310142010E171F07D9F68A899B8947
:103EB000892B19F08DE20E94342920E030E0F801CE
:103EC00082918F01811106C02115310519F4EA157F
:103ED000FB0529F4805D0E94342921E030E00A15B9
:103EE0001B0569F763960FB6F894DEBF0FBECDBF12
:103EF000DF91CF911F910F91FF90EF90DF90CF90C6
:103F0000BF90AF909F908F907F906F905F904F90F9
:103F10003F902F9008950C940A290C943129FF9218
:103F20000F931F93CF93DF93EC01062FF72E188288
:103F30000E940A2910E08823D9F00E94DE288823F5
:103F4000B9F00E94E528803210F089931F5FE02FBE
:103F5000FF2D482F50E02191222339F0022E000C32
:103F6000330B42175307B9F702C08D3051F718824F
:103F7000812FDF91CF911F910F91FF9008950F93A3
:103F80001F93CF93DF938C01EC01699170E080E087
:103F900090E00E94F71E0C5F1F4F8EE20E943429B2
:103FA000699170E080E090E00E94F71EC017D10791
:103FB000A1F789ED94E0DF91CF911F910F910C94BF
:103FC000C91EDC01FB019D91992341F08191891764
:103FD00084F09817C4F78FEF9FEF089581E090E089
:103FE0002081211102C080E090E091958195910996
:103FF000089581E090E00895DC0190E020E06150B8
:104000007109422F50E0FD01E40FF51F46175707D5
:1040100020F48081980F2F5FF4CF919590830895BD
:10402000611571058105910541F060932C01709334
:104030002D0180932E0190932F012115310541050B
:10404000510541F0209328013093290140932A0122
:1040500050932B0108954F925F926F927F928F92AF
:104060009F92AF92BF92CF92DF92EF92FF92CF9347
:10407000DF9300D000D0CDB7DEB72B013C01298300
:104080003A834B835C83C0902801D0902901E09053
:104090002A01F0902B01A701960144275527A9E694
:1040A000B0E90E94232A6701EE24FF244B015C0142
:1040B0008C0C9D1CAE1CBF1C809228019092290183
:1040C000A0922A01B0922B01C0902C01D0902D011A
:1040D000E0902E01F0902F01A7019601442755276B
:1040E000A0E5B6E40E94232A6701EE24FF24C60E51
:1040F000D71EE81EF91EC0922C01D0922D01E0922D
:104100002E01F0922F01D40199278827BC01CD01FF
:104110006C0D7D1D8E1D9F1D29813A814B815C8117
:1041200024193509460957090E94C629CB01840D77
:10413000951D0F900F900F900F90DF91CF91FF90F2
:10414000EF90DF90CF90BF90AF909F908F907F9037
:104150006F905F904F900895CF93DB01FC01208119
:104160002D3221F401966FEF7FEF02C061E070E025
:1041700011961C921E92FC01CAE020818D919C91A7
:1041800011972223C1F0C89FA001C99F500D11248F
:1041900011965C934E93219180ED820F8A30B8F492
:1041A000022E000C330B20533109240F351F1196BA
:1041B0003C932E93E2CF869F9001879F300D969F70
:1041C000300D11242D933C9381E090E002C080E0FB
:1041D00090E0CF91089580914E07833561F48091EE
:1041E0004F07853441F481E090E02091500722355B
:1041F00021F080E002C080E090E0EEE4F7E020E013
:104200003191230F37E0E638F307D1F7222311F07D
:1042100080E090E00895CF93DF93CDB7DEB7E797C6
:104220000FB6F894DEBF0FBECDBF87E3E1E7F4E041
:10423000DE01119601900D928A95E1F767E370E037
:10424000CE0101960E94FC1F47E3BE016F5F7F4FC6
:1042500080E090E00E94D20FE7960FB6F894DEBFA0
:104260000FBECDBFDF91CF9108950E941B10892B07
:10427000E1F747E36EE477E080E090E00E9406100B
:104280000E94EB20892B49F40E940B2147E36EE446
:1042900077E080E090E00C9406100895AF92BF9212
:1042A000DF92EF92FF920F931F93CF93DF93EC0176
:1042B000D62EE72E8A01809111068333F9F4A62EBB
:1042C000B72E7E01E40EF51ECE15DF0509F45EC0A3
:1042D00062E080E50E94CC1C80EF0E94DA1C8D2FEA
:1042E0000E94DA1C8C2F0E94DA1C2196F501819124
:1042F0005F010E94DA1C0E94E11CE6CF62E080E5CB
:104300000E94CC1CC115F4E0DF0718F4FC2EC4E0B9
:104310000DC0C11528E0D20758F4FC2ED45033E06C
:10432000D695C7953A95E1F7C07ECC6080E018C07D
:10433000CE019770892FFC2EC115E0E6DE0740F410
:1043400026E0D695C7952A95E1F7C07EC46108C0DE
:10435000D05696E0D695C7959A95E1F7C07ECC6188
:104360000E94DA1C8F2D0E94DA1C8C2F0E94DA1C0E
:10437000CD2DDE2D7E01E00EF11ECE15DF0521F0E4
:1043800089910E94DA1CF9CF0E94E11CC801DF91DB
:10439000CF911F910F91FF90EF90DF90BF90AF9062
:1043A0000895CF93DF931F92CDB7DEB7698341E0C5
:1043B00050E0BE016F5F7F4F0E944E210F90DF9152
:1043C000CF9108958F929F92AF92BF92CF92DF923A
:1043D000EF92FF920F931F93CF93DF93EC018B012A
:1043E0006A017901FA01608181E090E00E94D121A7
:1043F000F601618182E090E00E94D121F6016281A4
:1044000083E090E00E94D121F601638184E090E096
:104410000E94D1210E9472094B015C01F2E08F0ED3
:10442000911CA11CB11C0E947209681579058A05AE
:104430009B05C9F7688189E090E00E94D1216981DC
:104440008AE090E00E94D1216A818BE090E00E9496
:10445000D1216B818CE090E00E94D1216C818DE0B4
:1044600090E00E94D1216D818EE090E00E94D121E8
:104470000E9472094B015C0122E0820E911CA11C7A
:10448000B11C0E947209681579058A059B05C9F758
:10449000F701608185E090E00E94D121F701618100
:1044A00086E090E00E94D121F701628187E090E0F0
:1044B0000E94D121F701638188E090E00E94D12120
:1044C0000E9472096B017C01F2E0CF0ED11CE11C4D
:1044D000F11C0E9472096C157D058E059F05C9F7B8
:1044E000F80160818FE090E00E94D121F8016181A4
:1044F00080E190E00E94D121F801628181E190E0A9
:104500000E94D121F801638182E190E00E94D121D3
:104510000E9472096B017C01F2E0CF0ED11CE11CFC
:10452000F11C0E9472096C157D058E059F05C9F767
:1045300065E58AE190E00E94D12165E58BE190E09C
:104540000E94D12180E0DF91CF911F910F91FF90C8
:10455000EF90DF90CF90BF90AF909F908F90089595
:10456000AF92BF92DF92EF92FF920F931F93CF9380
:10457000DF93EC01D62EE72E8A018091110683335A
:1045800001F5A62EB72E7E01E40EF51ECE15DF0531
:1045900009F460C062E080E50E94CC1C8FE00E94BC
:1045A000DA1C8D2F0E94DA1C8C2F0E94DA1C2196B7
:1045B00080E00E94DA1CF50181935F010E94E11CFA
:1045C000E5CF62E080E50E94CC1CC115F4E0DF0776
:1045D00018F4FC2EC0E00DC0C11528E0D20758F435
:1045E000FC2ED45033E0D695C7953A95E1F7C07EBE
:1045F000C86080E018C0CE019770892FFC2EC115CD
:10460000E0E6DE0740F426E0D695C7952A95E1F767
:10461000C07EC06108C0D05696E0D695C7959A95E1
:10462000E1F7C07EC8610E94DA1C8F2D0E94DA1C5F
:104630008C2F0E94DA1CCD2DDE2D7E01E00EF11EA6
:10464000CE15DF0529F080E00E94DA1C8993F8CFAF
:104650000E94E11CC801DF91CF911F910F91FF9043
:10466000EF90DF90BF90AF900895CF93DF931F92AC
:10467000CDB7DEB741E050E0BE016F5F7F4F0E94D3
:10468000B02289810F90DF91CF91089590E0049638
:10469000982F8827860F971F0C9435239B0190E055
:1046A0000496982F8827642F820F931F0E94D12190
:1046B0000895FB01BA0190E00496982F8827A9017C
:1046C0008E0F9F1F0C94B022FB01BA0190E004965C
:1046D000982F8827A9018E0F9F1F0C944E21AF920F
:1046E000BF92CF92DF92EF92FF920F931F93CF93DF
:1046F000DF9300D0CDB7DEB77A836983BA01A90111
:10470000A981BA81B770E82FF0E0EE0FFF1FE855DE
:10471000FB4FE080F180CD018E0D9F1D9D01240F88
:10472000351F2130384080F06A015B0100E018E05D
:104730000A1B1B0BA8010E94B022A601401B510BB3
:10474000B501600F711FC7010F900F90DF91CF91DE
:104750001F910F91FF90EF90DF90CF90BF90AF909F
:104760000C94B022682F80E090E00C94D12180E07E
:1047700090E00C943523CF92DF92EF92FF9283E387
:104780008093110660E880E090E00E94D1210E94B1
:1047900072096B017C0122E0C20ED11CE11CF11CEC
:1047A0000E9472096C157D058E059F05C9F780E191
:1047B0000E94B2230E94B723803121F0109211068B
:1047C00080E00FC082E10E94B2230E94B7238231B1
:1047D000A9F780E00E94B2230E94B7238111EECF97
:1047E00081E0FF90EF90DF90CF900895CF92DF921D
:1047F000EF92FF9287E38093110660E880E090E0FB
:104800000E94D1210E9472096B017C0122E0C20E3C
:10481000D11CE11CF11C0E9472096C157D058E05EE
:104820009F05C9F788E00E94B2230E94B723883011
:1048300021F01092110680E00FC080E10E94B223A7
:104840000E94B7238031A9F780E00E94B2230E9422
:10485000B7238111EECF81E0FF90EF90DF90CF90F2
:1048600008950E94BB23811102C00C94F623089581
:1048700044E050E0BC0181E090E00C944E2144E023
:1048800050E0BC0181E090E00C94B02244E050E0A4
:10489000BC0185E090E00C944E2144E050E0BC0166
:1048A00085E090E00C94B02246E050E0BC0189E045
:1048B00090E00C944E2146E050E0BC0189E090E08D
:1048C0000C94B02244E050E0BC018FE090E00C94E6
:1048D0004E2144E050E0BC018FE090E00C94B02207
:1048E000682F85E190E00C94D12185E190E00C9453
:1048F0003523CF93C82F692F87E190E00E94D12103
:104900006C2F88E190E0CF910C94D121CF93DF936D
:1049100087E190E00E943523C82FD0E0DC2FCC2720
:1049200088E190E00E9435239E01280F311DC901C6
:10493000DF91CF91089544E050E0BC018AE290E01D
:104940000C944E2144E050E0BC018AE290E00C94CB
:10495000B022CF93C82F692F8EE290E00E94D12120
:104960006C2F8FE290E0CF910C94D121CF93DF9305
:104970008EE290E00E943523C82FD0E0DC2FCC27B8
:104980008FE290E00E9435239E01280F311DC9015E
:10499000DF91CF910895462F60E070E00C944E2394
:1049A00060E070E00C944623462F61E070E00C94C8
:1049B0004E2361E070E00C944623CF93C82F0E94F1
:1049C000D4248C2F0E94D9248111FBCFCF9108953C
:1049D000462F62E070E00C944E2362E070E00C948D
:1049E0004623462F63E070E00C944E2363E070E0B2
:1049F0000C944623CF93DF93C82FD62F472F64E024
:104A000070E00E944E234D2F65E070E08C2FDF9107
:104A1000CF910C944E231F93CF93DF93182F64E014
:104A200070E00E944623C82FD0E065E070E0812F3F
:104A30000E944623DC2FCC279E01282BC901DF9141
:104A4000CF911F910895AB0126E030E066E070E061
:104A50000C946423AB0126E030E066E070E00C9437
:104A60005923AB0124E030E06CE070E00C94642347
:104A7000AB0124E030E06CE070E00C945923CF935C
:104A8000DF93C82FD62F472F60E170E00E944E239E
:104A90004D2F61E170E08C2FDF91CF910C944E236C
:104AA0001F93CF93DF93182F60E170E00E9446239D
:104AB000C82FD0E061E170E0812F0E944623DC2FF7
:104AC000CC279E01282BC901DF91CF911F9108951A
:104AD000CF93DF93C82FD62F472F62E170E00E945B
:104AE0004E234D2F63E170E08C2FDF91CF910C941A
:104AF0004E231F93CF93DF93182F62E170E00E9443
:104B00004623C82FD0E063E170E0812F0E94462346
:104B1000DC2FCC279E01282BC901DF91CF911F915B
:104B20000895CF93DF93C82FD62F472F60E270E010
:104B30000E944E234D2F61E270E08C2FDF91CF91C8
:104B40000C944E231F93CF93DF93182F60E270E0F5
:104B50000E944623C82FD0E061E270E0812F0E94BE
:104B60004623DC2FCC279E01282BC901DF91CF9152
:104B70001F910895FF920F931F93CF93DF93F82E09
:104B8000C0E0D0E08F2D0E94A2258C01892B21F05E
:104B90008F2D0E94A225EC01C017D10799F7CE01F5
:104BA000DF91CF911F910F91FF900895CF93DF93E5
:104BB000C82FD62F472F62E270E00E944E234D2F60
:104BC00063E270E08C2FDF91CF910C944E231F9302
:104BD000CF93DF93182F62E270E00E944623C82F24
:104BE000D0E063E270E0812F0E944623DC2FCC27C7
:104BF0009E01282BC901DF91CF911F910895CF937A
:104C0000DF93C82FD62F472F64E270E00E944E2317
:104C10004D2F65E270E08C2FDF91CF910C944E23E5
:104C20009F92AF92BF92CF92DF92EF92FF920F933B
:104C30001F93CF93DF93982E7B016A0189010E9415
:104C4000E725E80EF91E97013770E92DF0E0EE0F29
:104C5000FF1FE055FB4FA080B180C9018A0D9B1D4D
:104C6000A901400F511F4130584080F0C0E0D8E00A
:104C7000C21BD30BAE01B6010E944E21A8014C1BF2
:104C80005D0BB6016C0F7D1FC50102C0A801B60106
:104C90000E944E21B701600F711F892DDF91CF91C6
:104CA0001F910F91FF90EF90DF90CF90BF90AF904A
:104CB0009F900C94FF259A01AB0160E070E00C948A
:104CC00010261F93CF93DF93182F64E270E00E94A9
:104CD0004623C82FD0E065E270E0812F0E94462372
:104CE000DC2FCC279E01282BC901DF91CF911F918A
:104CF0000895CF93DF93C82FD62F472F66E270E039
:104D00000E944E234D2F67E270E08C2FDF91CF91F0
:104D10000C944E231F93CF93DF93182F66E270E01D
:104D20000E944623C82FD0E067E270E0812F0E94E6
:104D30004623DC2FCC279E01282BC901DF91CF9180
:104D40001F910895FF920F931F93CF93DF93F82E37
:104D5000C0E0D0E08F2D0E948A268C01892B21F0A3
:104D60008F2D0E948A26EC01C017D10799F7CE013A
:104D7000DF91CF911F910F91FF900895CF93DF9313
:104D8000C82FD62F472F68E270E00E944E234D2F88
:104D900069E270E08C2FDF91CF910C944E231F932A
:104DA000CF93DF93182F68E270E00E944623C82F4C
:104DB000D0E069E270E0812F0E944623DC2FCC27EF
:104DC0009E01282BC901DF91CF911F910895CF92A9
:104DD000DF92EF92FF920F931F93CF93DF93182FE1
:104DE0006B017A01E9010E94CF268C0F9D1FEC0117
:104DF000D7709701A601BE01812F0E946F23011178
:104E000012C0BE016E0D7F1D812F0E94BE2660E480
:104E1000812FDF91CF911F910F91FF90EF90DF9045
:104E2000CF900C94DD24DF91CF911F910F91FF90D3
:104E3000EF90DF90CF9008950F93022F20E030E0A5
:104E40000E94E7260F910895CF93DF93C82FD62FA6
:104E5000472F6AE270E00E944E234D2F6BE270E014
:104E60008C2FDF91CF910C944E231F93CF93DF9320
:104E7000182F6AE270E00E944623C82FD0E06BE250
:104E800070E0812F0E944623DC2FCC279E01282B27
:104E9000C901DF91CF911F9108951F920F920FB614
:104EA0000F9211240E94281082E00E94F0110E94AB
:104EB000BE110E94A808FBCF9FB7F894A895E0E622
:104EC000F0E08081886180838FE480839FBF0895B4
:104ED000A8950895809160008B7080936000FFCF4B
:104EE0001092C00087E690E09093C5008093C400C4
:104EF000E1ECF0E088E1808386E08093C20080816D
:104F0000806A808308951F920F920FB60F9211242A
:104F10002F933F938F939F93EF93FF938091180666
:104F2000882309F4F0C08091C60090911706992358
:104F300009F4E3C090EE980F9F3518F08D3009F01A
:104F400059C0209114069091150630E0291B3109B3
:104F5000215031092F733327232B61F0E09115067F
:104F6000F0E0EB57F84F8083909115069F5F9F7399
:104F700090931506209112069091130630E0291B9C
:104F80003109215031092F733327232B89F0E09108
:104F90001306F0E0EB53F84F8083909113069F5F68
:104FA0009F73909313069091C10090629093C100FB
:104FB0008D3009F0C5C0809112062091130690E053
:104FC000821B910901978F739927892B69F0E091D2
:104FD0001306F0E0EB53F84F8AE0808380911306CC
:104FE0008F5F8F7380931306809116068F5F809377
:104FF0001606A6C0883011F08F37C1F580911506CE
:105000002091140690E0821B91098F739927892BB8
:1050100009F496C0E0911506F0E0EB57F84F808157
:105020008091150681508F7380931506809112062A
:105030002091130690E0821B910901978F739927A5
:10504000892B09F47DC0E0911306F0E0EB53F84F93
:105050008FE78083809113068F5F8F738093130691
:105060008091C10080628093C1006AC0843009F0E1
:1050700067C0809115062091140690E0821B91096B
:105080008F739927892B31F1E0911506F0E0EB57EA
:10509000F84F80818D30F1F0809114062091150633
:1050A00090E0821B910901978F739927892B91F0CA
:1050B000E0911506F0E0EB57F84F8DE0808380918A
:1050C00015068F5F8F7380931506809116068F5F8C
:1050D00080931606809114062091150690E0821B9D
:1050E000910901978F739927892B51F1E09115064A
:1050F000F0E0EB57F84F84E019C0833009F581E008
:10510000809317061DC0809114062091150690E02B
:10511000821B910901978F739927892B79F0E09170
:105120001506F0E08091C600EB57F84F8083809120
:1051300015068F5F8F738093150602C08091C6009D
:10514000FF91EF919F918F913F912F910F900FBE03
:105150000F901F9018951F920F920FB60F92112467
:105160002F938F939F93EF93FF938091130620913A
:10517000120690E0821B91098F739927892B79F091
:10518000E0911206F0E0EB53F84F80818093C60067
:10519000809112068F5F8F738093120605C08091F5
:1051A000C1008F7D8093C100FF91EF919F918F91FE
:1051B0002F910F900FBE0F901F901895809115069C
:1051C00090911406891B8F73089580911506209184
:1051D000140690E0821B91098F739927892BC1F0E7
:1051E000E0911406F0E0EB57F84F8081909114069F
:1051F0009F5F9F739093140690911806992349F02E
:105200008D3039F4909116069150909316060895BA
:1052100080E0089581E08093180680911506209122
:10522000140690E0821B91098F739927892BB1F0A6
:10523000E0911406F0E0EB57F84F8081843071F470
:1052400010921706E0911406F0E0EB57F84F8081BA
:10525000809114068F5F8F738093140680911706D8
:1052600008958091160608950FB607FE0EC020918E
:1052700012069091130630E0291B310921503109A3
:105280002F733327232B99F30DC020911206909191
:10529000130630E0291B3109215031092F733327C0
:1052A000232B61F0E0911306F0E0EB53F84F80837D
:1052B000809113068F5F8F73809313068091C100D6
:1052C00080628093C10008951F93CF93DF93EC0118
:1052D00080E011E0180FFE01E80FF11D80818823A6
:1052E00021F00E943429812FF4CFDF91CF911F91BB
:1052F00008951F93CF93DF93EC0180E011E0180F26
:10530000FE01E80FF11D8491882321F00E943429C9
:10531000812FF4CFDF91CF911F910895DB018F93FF
:105320009F930E94232ABF91AF91A29F800D911D50
:10533000A39F900DB29F900D11240895AA1BBB1B33
:1053400051E107C0AA1FBB1FA617B70710F0A61B85
:10535000B70B881F991F5A95A9F780959095BC01A6
:10536000CD01089597FB072E16F4009407D077FD22
:1053700009D00E949E2907FC05D03EF490958195A6
:105380009F4F0895709561957F4F0895A1E21A2E61
:10539000AA1BBB1BFD010DC0AA1FBB1FEE1FFF1FD9
:1053A000A217B307E407F50720F0A21BB30BE40B29
:1053B000F50B661F771F881F991F1A9469F7609570
:1053C0007095809590959B01AC01BD01CF0108952A
:1053D000052E97FB1EF400940E94FF2957FD07D06D
:1053E0000E94C62907FC03D04EF40C94FF29509567
:1053F0004095309521953F4F4F4F5F4F08959095C1
:105400008095709561957F4F8F4F9F4F0895EE0F58
:10541000FF1F0590F491E02D0994692796276927CD
:105420007827872778270895A29FB001B39FC001EE
:10543000A39F700D811D1124911DB29F700D811DC0
:105440001124911D08950E94142AA59F900DB49FC8
:10545000900DA49F800D911D11240895F894FFCF05
:10546000030B443100802500002D00040B44300064
:10547000802500002D0002060024F400010C617458
:085480006D65676133323800ED
:105488004B0041535500FF03FE030000010000C01C
:10549800A801640030302F30302F303030302030C9
:1054A800303A30303A303000E5559A15B53B121F86
:1054B8006D6D79736F726572004D616E69004D6133
:1054C8006E697368006C6F63616C2069703A2000C4
:1054D800496E2072657175657374206C696E6520FC
:1054E80073656374696F6E2E2E2E0D0A004745543E
:1054F8002000474554206D6F64650D0A00505554CF
:105508002000505554206D6F64650D0A0044454CC9
:10551800455445200044454C455445206D6F64650D
:105528000D0A002F646576696365002F64657669E6
:105538006365206E6F742070726573656E740D0AF2
:105548000020003F72657365743D00526571756592
:105558007374206D6F6465206E6F74206D61746361
:1055680068696E67207265736F757263650D0A00EE
:105578002F636F6E666967002F6C6F6700496E76E0
:10558800616C69642072657175657374206D6F64F0
:10559800650D0A00227472756522002266616C73BB
:1055A8006522003F74637269745F68693D003F74E7
:1055B8007761726E5F68693D003F747761726E5FF4
:1055C8006C6F3D003F74637269745F6C6F3D004897
:1055D8005454502F312E310D0A004854545020761F
:1055E800657273696F6E206E6F7420312E310D0AEB
:1055F8000020485454502F312E310D0A00486F7343
:10560800743A20002E0049502061646472657373F7
:10561800206E6F74206D61746368696E67200D0A6F
:10562800004D6F76696E6720746F2070726F6365C6
:1056380073732073656374696F6E2E2E2E0D0A00C6
:10564800496E206572726F722073746174650D0AF9
:1056580000485454502F312E312034303020494ED8
:1056680056414C49440D0A00436F6E6E6563746978
:105678006F6E3A20636C6F73650D0A000D0A005354
:1056880074617274656420657865637574696E67A2
:105698002070726F636573732E2E2E0D0A0053747B
:1056A80061727465642073656E64696E67207265E3
:1056B80073706F6E73652E2E2E0D0A004854545069
:1056C8002F312E3120323030204F4B0D0A00436FDE
:1056D8006E74656E742D547970653A206170706CC3
:1056E80069636174696F6E2F766E642E6170692BC1
:1056F8006A736F6E0D0A00767064006D6F64656C76
:10570800006D616E756661637475726572007365AC
:105718007269616C5F6E756D626572006D616E7540
:10572800666163747572655F64617465006D616359
:105738005F6164647265737300636F756E74727908
:105748005F636F64650074637269745F686900748D
:105758007761726E5F68690074637269745F6C6FF9
:1057680000747761726E5F6C6F0074656D7065723E
:1057780061747572650073746174650043524954AD
:105788005F484900435249545F4C4F005741524EBD
:105798005F4849005741524E5F4C4F004E4F524DA3
:1057A800414C006C6F670074696D657374616D704E
:1057B800006576656E7400456E6465642073656E79
:1057C80064696E6720726573706F6E73652E2E2E16
:1057D8000D0A00EF010101FFFFFFFFC0A801011F33
:1057E8001C1F1E1F1E1F1F1E1F1E1F01005E000004
:1057F800005345520053616E6479000000000000B8
:1058080000446F75676C617300000000005F554EBF
:1058180041535349474E45440000000000444F554A
:1058280053414E5553410000006000480070007815
:1058380000400048005000580D0A414C41524D3A72
:10584800200057495A6E65740074696D6520737934
:105858006E63656420005554430D0A0030302F30C4
:10586800302F303030302030303A30303A3030005D
:1058780050726F6A656374206E6F74207369676E07
:1058880065640D0A0066697273746E616D65006CFB
:105898006173746E616D650061737572697465001A
:0E58A80054657374696E670D0A002D002E00A2
:00000001FF
