:100000000C943D000C945A000C945A000C945A0025
:100010000C945A000C945A000C9492260C945A009A
:100020000C945A000C945A000C945A000C94BB1D6A
:100030000C945A000C945A000C9401080C945A0029
:100040000C945A000C945A000C94C8260C94F02777
:100050000C945A000C945A000C94D10E0C945A0033
:100060000C945A000C945A00121D311D3F1D491D5D
:10007000631D6D1D781D911D9B1D11241FBECFEFAB
:10008000D8E0DEBFCDBF15E0A0E0B1E0E2E1F3E5EE
:1000900002C005900D92AA33B107D9F728E0AAE370
:1000A000B5E001C01D92AB30B207E1F70E945C00E1
:1000B0000C9473290C940000EF92FF920F931F93FE
:1000C000CF93DF9300D000D0CDB7DEB70E94081EDB
:1000D0000E94640F0E947A200E94BA070E940810B2
:1000E0000E94DF120E94FC1B0E94CC1C0E947623FF
:1000F0000E94031D0E94280140E351E069E371E082
:100100008EE391E00E94CB1519821A821B821C8219
:10011000CE0101969C01CE010196AC01CE01019663
:10012000BC0180E897E00E942721000000EA1FE060
:1001300020E030E040E65AEE60E070E080E897E0D2
:100140000E941B0E892B91F385E491E00E940E1E04
:100150000E94D0080E94041F0E94D3087C010E94C4
:10016000D6088C010E94D0089701A801BC0180E844
:1001700097E00E94272183E00E94351185E00E94CC
:10018000001284E00E9435110E94A12680E00E94A6
:10019000351180E090E00E94C4060E942F160E9454
:1001A000AD260E94830F81E090E00E947408892BA5
:1001B000F9F00E94E41C9093010180930001E0910A
:1001C0000307F09104072091010730910207409145
:1001D000FF06509100076091FD067091FE06809128
:1001E0000001909101018F010E94041D0E94DE1CFC
:1001F00080E00E94A916882349F060E97FE180E051
:100200000E94E91680E00E94EF16C9CF80E00E94AC
:100210009A1A882361F480912B0690912C060497FA
:1002200031F080912B0690912C06039719F40E94CF
:1002300034010DC00E94600F892B11F40E94CD1073
:100240000E94600F892B09F0AACF0E94D507A7CF83
:10025000CF93DF93CDB7DEB710922C0610922B060A
:100260000000DF91CF910895CF93DF93CDB7DEB734
:100270002D970FB6F894DEBF0FBECDBF80912B0631
:1002800090912C068230910509F4DAC183309105F2
:1002900030F4009761F0019709F4B5C192C483303E
:1002A000910509F4EAC1049709F406C28AC480E5FD
:1002B00091E00E940E1E6DE671E080E00E94EA1A55
:1002C000882349F01092300610922F0682E791E0C1
:1002D0000E940E1E31C06DE771E080E00E94EA1AB4
:1002E000882359F081E090E09093300680932F06A8
:1002F00082E891E00E940E1E1FC06DE871E080E070
:100300000E94EA1A882359F082E090E09093300628
:1003100080932F0685E991E00E940E1E0DC08FEF9D
:100320009FEF9093300680932F0683E090E09093A8
:100330002C0680932B0645C463EA71E080E00E949E
:10034000EA1A882359F48BEA91E00E940E1E83E09A
:1003500090E090932C0680932B0633C461EC71E0FF
:1003600080E00E94EA1A882339F463EC71E080E0AF
:100370000E94EA1A8823E1F080912F0690913006BE
:10038000892B89F080912F0690913006019759F0C2
:100390008BEC91E00E940E1E83E090E090932C067F
:1003A00080932B060EC410922606109225064FC08D
:1003B00060EF71E080E00E94EA1A8823C1F080912A
:1003C0002F0690913006019759F08BEC91E00E9436
:1003D0000E1E83E090E090932C0680932B06F1C3D1
:1003E00081E090E0909326068093250630C068EF68
:1003F00071E080E00E94EA1A8823C1F080912F0604
:1004000090913006029759F08BEC91E00E940E1EFD
:1004100083E090E090932C0680932B06D2C382E079
:1004200090E0909326068093250611C08DEF91E011
:100430000E940E1E8FEF9FEF909326068093250655
:1004400083E090E090932C0680932B06BAC38091B2
:100450002F0690913006019739F5809125069091ED
:100460002606892B09F564E172E080E00E94EA1A11
:10047000882339F081E090E090932E0680932D063A
:1004800013C06BE172E080E00E94EA1A882329F031
:1004900010922E0610922D0607C083E090E09093F4
:1004A0002C0680932B068DC380912F0690913006E9
:1004B000019709F05EC0809125069091260601976C
:1004C00009F057C063E272E080E00E94EA1A8823D4
:1004D00029F010922A061092290637C06EE272E0C7
:1004E00080E00E94EA1A882339F081E090E090933E
:1004F0002A068093290629C069E372E080E00E9401
:10050000EA1A882339F082E090E090932A068093DB
:1005100029061BC064E472E080E00E94EA1A882386
:1005200039F083E090E090932A06809329060DC06D
:100530008FEF9FEF90932A068093290683E090E047
:1005400090932C0680932B063CC367E276E080E014
:100550000E94891B882369F48FEF9FEF90932A06EE
:100560008093290683E090E090932C0680932B06DD
:1005700028C380912F0690913006892B91F46FE467
:1005800072E080E00E94EA1A8823E9F48AE592E0AA
:100590000E940E1E83E090E090932C0680932B0621
:1005A00010C361E772E080E00E94EA1A882359F4E0
:1005B0008AE592E00E940E1E83E090E090932C0664
:1005C00080932B06FEC26DE772E080E00E94EA1A7B
:1005D000882391F46AE972E080E00E94EA1A882395
:1005E00059F483EB92E00E940E1E83E090E090931A
:1005F0002C0680932B06E5C281E090E090932C06B8
:1006000080932B06DEC280E00E94C81A882371F016
:1006100080E00E94401B8DEC92E00E940E1E84E060
:1006200090E090932C0680932B06CBC280E00E9432
:10063000401B81E090E090932C0680932B06C1C272
:1006400080E00E94C81A882371F080E00E94401B5D
:1006500084E090E090932C0680932B068DEC92E042
:100660000E940E1EAEC280E00E94401B82E090E01D
:1006700090932C0680932B06A4C28CEE92E00E94ED
:100680000E1E6DEF72E080E00E942F1964E173E0AE
:1006900080E00E942F1968E273E080E00E942F1929
:1006A00080E00E94321780E591E00E940E1E1092B9
:1006B0002C0610922B0685C28BE293E00E940E1E40
:1006C00080912F0690913006892B09F0B9C18AE4F8
:1006D00093E00E940E1E68E673E080E00E942F19EE
:1006E0006AE773E080E00E942F1964E173E080E024
:1006F0000E942F1968E273E080E00E942F196BE7D7
:1007000080E00E943F1963EA73E080E00E94501984
:100710006AE380E00E943F196BE780E00E943F1986
:1007200067EA73E080E00E9450196AE380E00E946B
:100730003F1968E577E080E00E9450196CE280E0A4
:100740000E943F196DEA73E080E00E9450196AE34D
:1007500080E00E943F1964E677E080E00E94501933
:100760006CE280E00E943F196AEB73E080E00E9437
:1007700050196AE380E00E943F1960E777E080E06B
:100780000E9450196CE280E00E943F1968EC73E00F
:1007900080E00E9450196AE380E00E943F19809136
:1007A0007C0790917D07A0917E07B0917F07AC01F7
:1007B000BD0180E00E9463196CE280E00E943F1955
:1007C00069ED73E080E00E9450196AE380E00E94C6
:1007D0003F1960E877E080E00E948E196CE280E0CB
:1007E0000E943F1965EE73E080E00E9450196AE3B1
:1007F00080E00E943F1966E877E080E00E9450198F
:100800006DE780E00E943F196CE280E00E943F1992
:1008100062EF73E080E00E9450196AE380E00E947A
:100820003F198091FD069091FE06BC0180E00E9478
:10083000C4196CE280E00E943F196BEF73E080E026
:100840000E9450196AE380E00E943F198091FF06E0
:1008500090910007BC0180E00E94C4196CE280E026
:100860000E943F1964E074E080E00E9450196AE33E
:1008700080E00E943F198091010790910207BC011E
:1008800080E00E94C4196CE280E00E943F196DE094
:1008900074E080E00E9450196AE380E00E943F19F2
:1008A0008091030790910407BC0180E00E94C41965
:1008B0006CE280E00E943F1966E174E080E00E94F3
:1008C00050196AE380E00E943F19809100019091E5
:1008D0000101BC0180E00E94C4196CE280E00E942A
:1008E0003F1962E274E080E00E9450196AE380E000
:1008F0000E943F1968E274E080E00E9450196CE2A7
:1009000080E00E943F196FE274E080E00E9450197D
:100910006AE380E00E943F196BE580E00E943F1986
:100920000E94A311882F90E0A0E0B0E08D839E8309
:10093000AF83B88719821A821B821C825EC09E0117
:10094000235F3F4FAE01475F5F4F89819A81AB8143
:10095000BC81BC01CD010E94BC116BE780E00E940C
:100960003F1963E374E080E00E9450196AE380E07D
:100970000E943F1989859A85AB85BC85AC01BD0174
:1009800080E00E9463196CE280E00E943F196DE3F1
:1009900074E080E00E9450196AE380E00E943F19F1
:1009A0008D85882F90E0BC0180E00E94C4196DE71E
:1009B00080E00E943F198D819E81AF81B8859C01A6
:1009C000AD01215031094109510989819A81AB81D9
:1009D000BC8182179307A407B50720F46CE280E07E
:1009E0000E943F1989819A81AB81BC810196A11D2A
:1009F000B11D89839A83AB83BC8329813A814B8162
:100A00005C818D819E81AF81B885281739074A079F
:100A10005B0708F494CF6DE580E00E943F196DE715
:100A200080E00E943F1968E273E080E00E942F1985
:100A300083E494E00E940E1E80E00E943217BCC046
:100A400080912F0690913006019709F077C0809130
:100A5000250690912606019709F070C0809129061D
:100A600090912A06892B81F480912706909128067F
:100A70000E942C06892B09F446C083E090E09093F5
:100A80002C0680932B069DC08091290690912A0602
:100A9000019779F480912706909128060E945106CB
:100AA000892B89F183E090E090932C0680932B06AC
:100AB00088C08091290690912A06029779F4809146
:100AC0002706909128060E947A06892BE1F083E0A0
:100AD00090E090932C0680932B0673C0809129069A
:100AE00090912A06039779F4809127069091280621
:100AF0000E94A306892B39F083E090E090932C06A6
:100B000080932B065EC00E9489070E94600F892B8C
:100B100011F40E94D50768E673E080E00E942F1967
:100B200064E173E080E00E942F1968E273E080E0E6
:100B30000E942F1980E00E9432173EC080912F063C
:100B400090913006019791F48091250690912606A8
:100B5000892B61F480912D0690912E06892B61F1ED
:100B600080E00E9432170E94AF2626C080912F0697
:100B700090913006029701F5809125069091260606
:100B80000297D1F40E9486110E94600F892B11F404
:100B90000E94CD1068E673E080E00E942F1964E1A6
:100BA00073E080E00E942F1968E273E080E00E9409
:100BB0002F1980E00E94321710922C0610922B06FB
:100BC000000000002D960FB6F894DEBF0FBECDBF1B
:100BD000DF91CF910895CF93DF93CDB7DEB72797FD
:100BE0000FB6F894DEBF0FBECDBF9D838C837F838D
:100BF0006E831B821A821EC08A819B812C813D815B
:100C0000820F931FFC0180819981890F89838FE571
:100C100090E0FC018081082E000C990B81709927CF
:100C2000892B19F089818F5F89838A819B81019645
:100C30009B838A832A813B818E819F812817390774
:100C4000D8F28981809527960FB6F894DEBF0FBE43
:100C5000CDBFDF91CF910895CF93DF9300D0CDB773
:100C6000DEB79A8389832091FF063091000789813E
:100C70009A812817390774F489819A8181159440E3
:100C80004CF489819A819093FE068093FD0680E062
:100C900090E002C081E090E00F900F90DF91CF9143
:100CA0000895CF93DF9300D0CDB7DEB79A838983C1
:100CB000209103073091040789819A812817390709
:100CC00094F42091FD063091FE0689819A81821765
:100CD00093074CF489819A81909300078093FF06D3
:100CE00080E090E002C081E090E00F900F90DF91F3
:100CF000CF910895CF93DF9300D0CDB7DEB79A831D
:100D00008983209101073091020789819A812817F0
:100D1000390794F42091FF063091000789819A8168
:100D2000821793074CF489819A81909304078093EA
:100D3000030780E090E002C081E090E00F900F9008
:100D4000DF91CF910895CF93DF9300D0CDB7DEB779
:100D50009A838983209103073091040789819A81BE
:100D6000821793074CF489819A81909302078093AC
:100D7000010780E090E002C081E090E00F900F90CA
:100D8000DF91CF91089508958F929F92AF92BF9275
:100D9000EF92FF920F931F93CF93DF9300D000D079
:100DA0001F92CDB7DEB77C0180915F049091600403
:100DB000A0916104B091620489839A83AB83BC8360
:100DC00048EB52E2BE016F5F7F4F83E00E94401606
:100DD00048EB52E2BE016F5F7F4F83E00E94571ADB
:100DE0000E94B7150E94611C8C010E94B7159801E2
:100DF000AC0160E070E083E00E940C190E94B7151E
:100E00000E94611C8C0121E030E04CEC54E0BC01FC
:100E100083E00E940C190F5F1F4F80E797E00E944C
:100E2000611C9C0140E757E0B80183E00E940C1967
:100E300080E797E00E94611C080F191F21E030E055
:100E40004CEC54E0B80183E00E940C19B8016F5FCC
:100E50007F4FC70124E0969587952A95E1F78A3060
:100E6000910510F0895C01C0805D8D8321E030E048
:100E7000AE014B5F5F4F83E00E940C19B8016E5FBB
:100E80007F4F8E2D8F7097012F7033272A303105B9
:100E900010F0895C01C0805D8D8321E030E0AE01FF
:100EA0004B5F5F4F83E00E940C1983E00E947C1A25
:100EB0000E94B7084B015C0125EF820E21E0921ED3
:100EC000A11CB11C0E94B708681579058A059B050D
:100ED000C9F783E00E94ED1684EC94E00E940E1E98
:100EE000B70180E090E00E943C1E85EE94E00E94F5
:100EF0000E1E0F900F900F900F900F90DF91CF91DB
:100F00001F910F91FF90EF90BF90AF909F908F90A7
:100F1000089581E080933A0508958091F90681341F
:100F200061F48091FA06833541F481E090E02091EC
:100F3000FB06253521F080E002C080E090E0E9EF7B
:100F4000F6E020E03191230F37E0EC30F307D1F7E2
:100F5000222311F080E090E0089562E170E082E0E9
:100F600091E00E94411F42E162E071E080E490E084
:100F70000C94170F0E94600F892BE1F742E169EF93
:100F800076E080E490E00E944B0F0E948D07892B51
:100F900049F40E94AD0742E169EF76E080E490E019
:100FA0000E944B0F10923A0508950E94600F892B02
:100FB00099F480913A05882379F062E170E089EF35
:100FC00096E00E94411F42E169EF76E080E490E004
:100FD0000E94170F10923A05089580913A058823D0
:100FE00079F062E170E089EF96E00E94411F42E1F2
:100FF00069EF76E080E490E00E94340F10923A05A9
:1010000008951F920F920FB60F9211242F933F93C2
:101010008F939F93AF93BF932091450530914605E1
:1010200080913D0590913E052817390749F0809140
:101030004505909146050196909346058093450598
:10104000209147053091480580913F0590914005DA
:101050002817390749F08091470590914805019676
:1010600090934805809347058091410590914205F2
:10107000A0914305B09144050196A11DB11D809337
:10108000410590934205A0934305B0934405BF9159
:10109000AF919F918F913F912F910F900FBE0F9025
:1010A0001F90189589EF87BD82E084BD93E095BDC0
:1010B000789480936E001092410510924205109230
:1010C00043051092440508958230910550F4F89438
:1010D000880F991FFC01EB5BFA4F80819181789416
:1010E000089580E090E008958230910598F4880F8B
:1010F000991FFC01EB5BFA4F20813181FC01E35C1D
:10110000FA4F81E090E0408151814217530721F06E
:1011100080E0089580E090E008950F931F93CF93AF
:10112000DF93EC018B0180913B0590913C05892B6D
:1011300041F40E94520881E090E090933C05809336
:101140003B05C230D10570F48FB7F894CC0FDD1F8A
:10115000FE01E35CFA4F11830083CB5BDA4F198207
:1011600018828FBFDF91CF911F910F9108958091C9
:101170003B0590913C05892B41F40E94520881E087
:1011800090E090933C0580933B05F8946091410575
:10119000709142058091430590914405789408959B
:1011A00087E595E008958BE595E008958FE595E056
:1011B000089583E695E0089587E695E0089544E173
:1011C00050E060E00E960C94361C08952F923F92EA
:1011D0004F925F926F927F928F929F92AF92BF9247
:1011E000CF92DF92EF92FF920F931F93CF93DF93F3
:1011F000CDB7DEB7E6970FB6F894DEBF0FBECDBF12
:101200008C012A013B0119011AAA19AA0E94B708E8
:101210004B015C0182E00E94B717892BF9F40E9410
:10122000B708DC01CB0188199909AA09BB0948163E
:1012300059066A067B0608F4A7C00E94B7086B012E
:101240007C0123E3C20ED11CE11CF11C0E94B708F3
:101250006C157D058E059F05C9F7DCCF48E050E091
:10126000BE016D5D7F4F82E00E941318FFA08BA12D
:101270008BA78CA18CA78DA18DA78EA18EA7E8A48A
:1012800042E250E0BE016F5F7F4F82E00E94131880
:101290008981823009F076C08F2D90E0982F8827C1
:1012A0008E0D911D8334910509F06CC06D817E8196
:1012B0008F8198850E945229F10160837183828316
:1012C000938346E050E0B801685F7F4FCE014D96B2
:1012D0000E94401C892B09F059C0F1018081918145
:1012E000A281B381F80140815181628173818417A9
:1012F0009507A607B70708F449C044815581668160
:101300007781481759076A077B0708F43FC044E014
:1013100050E0BE016F5E7F4FC8010E960E942A1CEE
:101320008EECE82EF12C41E050E0BE01615D7F4F74
:1013300082E00E941318F1E0EF1AF108A1F7C8014A
:1013400082969CAB8BABF801B696FEABEDAB180169
:10135000FAE22F0E311C08976C012E019BE2490E18
:10136000511C3801E2E16E0E711C5801F6E1AF0E1E
:10137000B11C48012EE1820E911C82E00E94B71739
:10138000892B31F48AA924C18FEF22C180E020C1CA
:1013900041E050E0BE01605D7F4F82E00E94131883
:1013A00088A9833309F4E0C0D0F48130B9F128F37F
:1013B000833009F442C0863009F0F5C041E050E0C6
:1013C000BE016F5C7F4F82E00E94131844E050E042
:1013D000B40182E00E941318E12CF12C51C08A3331
:1013E00009F48DC030F4853359F0863309F45BC0BD
:1013F000DAC08B3309F49EC08F3F09F4BECFD3C04F
:1014000041E050E0BE016F5C7F4F82E00E94131804
:1014100041E050E0BE016E5C7F4F0BC041E050E008
:10142000BE016F5C7F4F82E00E94131844E050E0E1
:10143000B30182E00E941318A0CF41E050E0BE014A
:101440006F5C7F4F82E00E94131844E050E0B501CA
:1014500082E00E941318E12CF12C89A990E00497F6
:10146000E816F9060CF089CF41E050E0BE01615D5D
:101470007F4F82E00E9413188FEFE81AF80AEDCF31
:1014800089A990E00497E816F9060CF076CF41E0C0
:1014900050E0BE01615D7F4F82E00E9413189FEF14
:1014A000E91AF90AEDCF41E050E0BE016F5C7F4FD1
:1014B00082E00E941318F801828D811109C0838D8A
:1014C000811106C0848D811103C0858D882319F098
:1014D0004C145D0421F444E050E0B601AACF89A980
:1014E0009FEF980F99AB882309F447CF41E050E074
:1014F000BE01615D7F4F82E00E941318F0CF41E092
:1015000050E0BE016F5C7F4F82E00E94131844E000
:1015100050E06DA97EA982E00E941318F80166A12F
:1015200077A180A591A50E94522966A377A380A7E1
:1015300091A723CF41E050E0BE016F5C7F4F82E076
:101540000E94131844E050E0B10182E00E94131899
:10155000F80162A573A584A595A50E94522962A7EA
:1015600073A784A795A709CF41E050E0BE016F5C47
:101570007F4F82E00E94131844E050E06BA97CA9E1
:1015800082E00E941318F80162A173A184A195A1C1
:101590000E94522962A373A384A395A366A777A789
:1015A00080AB91ABEACE41E050E0BE016F5C7F4F73
:1015B00082E00E94131889A99FEF980F99AB8823A6
:1015C00009F4DBCE41E050E0BE01615D7F4FF0CF1A
:1015D000E6960FB6F894DEBF0FBECDBFDF91CF9178
:1015E0001F910F91FF90EF90DF90CF90BF90AF9041
:1015F0009F908F907F906F905F904F903F902F9033
:1016000008950E96089542960895469608954A962E
:1016100008954E96089580E3FB0180833296842FCF
:1016200082958F7090E1899F401911244A3014F4FB
:10163000405D01C0495C4293482F8111F0CF08956D
:10164000AF92BF92DF92EF92FF920F931F93CF93CF
:10165000DF93CDB7DEB7AA970FB6F894DEBF0FBE03
:10166000CDBF8C01D62EF42EE52E40E250E060E096
:10167000CE0101960E94361C80916304909164040F
:10168000A0916504B09166048DA39EA3AFA3B8A7F3
:1016900043E450E0BE016B5D7F4F82E00E94571A29
:1016A000892B09F4FBC081E089838A8386E08B83E0
:1016B0001C82F80164817581868197810E9452297C
:1016C00069A37AA38BA39CA344E050E0BE016F5DA5
:1016D0007F4FCE0105960E942A1CE986FA8680E893
:1016E00090E09AA789A742E050E0BE01675D7F4F76
:1016F000CE010B960E942A1C2CE130E0AE014F5F18
:101700005F4F60E070E082E00E940C1940E250E020
:1017100060E0CE0101960E94361C5801F8E0AF0E41
:10172000B11C46E050E0B501CE0101960E942A1C92
:1017300020E130E0AE014F5F5F4F6CE170E082E08E
:101740000E940C1940E250E060E0CE0101960E9438
:10175000361C8CE2E82EF12C20E230E0AE014F5F27
:101760005F4FB70182E00E940C1980E2E80EF11C85
:10177000ECEEEE16F10481F783E6898392E89A8312
:1017800093E59B838C8385E38D8381E08E83DF8269
:101790009DE3988797E099878A8746E050E0B501F6
:1017A000CE010B960E942A1C8CE0898B8EEC94E073
:1017B0000E94611C8A5F8A8B6EEC74E0CE014396B6
:1017C0000E94571CF8014385BE01675E7F4FC80128
:1017D0000E940B0BF8014485BE01655E7F4FC80176
:1017E0000E940B0BF8014585BE01635E7F4FC80167
:1017F0000E940B0B2EE130E0AE014F5F5F4F6CEEAD
:1018000070E082E00E940C19F3E0DF1227C082E34F
:10181000898384E08A83F80196859B8397859C83DE
:1018200090899D8391899E8396E39F838887828D8B
:101830008987838D8A87848D8B87858D8C872CE023
:1018400030E0AE014F5F5F4F6AE071E082E00E94DE
:101850000C1966E171E080E090E004C06AE071E09C
:1018600080E090E027E3298326E02A8331E03B8370
:1018700033E03C832D832FE02E832AE32F832BE359
:1018800028872FEF298729E030E0AE014F5F5F4FB7
:1018900082E00E940C1982E00E947C1AAA960FB680
:1018A000F894DEBF0FBECDBFDF91CF911F910F9196
:1018B000FF90EF90DF90BF90AF9008952F923F92EE
:1018C0004F925F926F927F928F929F92AF92BF9250
:1018D000CF92DF92EF92FF920F931F93CF93DF93FC
:1018E00000D000D0CDB7DEB78C0120ED37E040E06E
:1018F00050E061E070E080E090E00E94701FA0E0A6
:10190000B0E0F80184839583A683B78380839183B5
:10191000A283B38382E00E94ED1664E470E082E06B
:101920000E94E516882309F42EC10E94B7084B01D6
:101930005C01212C312C7801F2E4EF0EF11C48EE11
:10194000442E43E0542E612C712C52E0C52ED70159
:101950008C91833009F4FEC081111FC0F80184818D
:101960009581A681B7810196A11DB11D84839583C0
:10197000A683B7830E94B708681979098A099B0969
:10198000A30192010E940B29A90161E0C8010E94F4
:10199000200B81E0D7018C93C5C08430F1F4F801AD
:1019A00084819581A681B7810196A11DB11D848393
:1019B0009583A683B7830E94B708681979098A09B5
:1019C0009B09A30192010E940B29A90163E0C801B0
:1019D0000E94200BD701CC92A5C0813051F5F801AF
:1019E00042AD53AD64AD75AD9E012F5F3F4FC80151
:1019F0000E94E608D82EF2E08F138FC089819A8169
:101A0000AB81BC81F80184839583A683B7830E9450
:101A1000B708681979098A099B09A30192010E94F4
:101A20000B29A90163E0C8010E94200BD701DC92B9
:101A300079C0823009F076C0F80142AD53AD64AD93
:101A400075AD9E012F5F3F4FC8010E94E608D82E5A
:101A5000F5E08F135CC0E3E0D701EC93F80182A1BD
:101A600093A1A4A1B5A1892B8A2B8B2B41F484E8E7
:101A700093E0A0E0B0E082A393A3A4A3B5A3F801F0
:101A800086A197A1A0A5B1A5892B8A2B8B2B61F4E8
:101A900082A193A1A4A1B5A1B695A7959795879585
:101AA00086A397A3A0A7B1A7F80182A593A5A4A593
:101AB000B5A5892B8A2B8B2BA9F482A193A1A4A174
:101AC000B5A1AC01BD0123E0769567955795479583
:101AD0002A95D1F7841B950BA60BB70B82A793A76A
:101AE000A4A7B5A7F80186A197A1A0A5B1A586A72F
:101AF00097A7A0ABB1AB82A593A5A4A5B5A582ABD2
:101B000093ABA4ABB5AB22242394312C0BC0F6E0ED
:101B10008F1303C0D7011C9205C0BFEFDB1202C0B8
:101B2000F7011082F1E02F16310409F410CF0E9462
:101B3000B708DC01CB0188199909AA09BB09F8018A
:101B400026A937A940AD51AD281739074A075B07C9
:101B500008F0FDCE82E00E94ED16F80184819581A7
:101B6000A681B7810196A11DB11D84839583A683AB
:101B7000B7830E94B708F801FE9660837183828361
:101B80009383C10102C080E090E00F900F900F900E
:101B90000F90DF91CF911F910F91FF90EF90DF9009
:101BA000CF90BF90AF909F908F907F906F905F90FD
:101BB0004F903F902F900895CF92DF92EF92FF9237
:101BC0000F931F93CF93DF93EC016B011AA21BA21B
:101BD0001CA21DA21EA21FA218A619A61AA61BA609
:101BE0001CA61DA62EAB3FAB48AF59AFEAAEFBAE6D
:101BF0000CAF1DAF8C01085F1F4F46E050E060E066
:101C0000C8010E94361CCE010E94DF0846E050E069
:101C1000B601C8010E942A1CFE01EE5BFF4F108234
:101C2000CE01DF91CF911F910F91FF90EF90DF9048
:101C3000CF900C945E0CEF92FF920F931F9378015C
:101C400089019A01AB01BC0189E495E00E94DC0D99
:101C50001F910F91FF90EF900895CF92DF92EF9236
:101C6000FF920F931F93CF93DF93EC010E94B7086D
:101C70006B017C018E01025C1F4FF8018081918114
:101C8000A281B381A7019601281B390B4A0B5B0B7C
:101C9000CA01B901683E33E073078105910508F474
:101CA00041C028EE33E040E050E00E940B29C61A04
:101CB000D70AE80AF90AF801C082D182E282F382E7
:101CC0008EA59FA5A8A9B9A969017A01CC0CDD1C34
:101CD000EE1CFF1C8C159D05AE05BF0528F41EA645
:101CE0001FA618AA19AA08C0821B930BA40BB50B38
:101CF0008EA79FA7A8ABB9AB8AA99BA9ACA9BDA980
:101D00008C159D05AE05BF0528F41AAA1BAA1CAAAE
:101D10001DAA08C0821B930BA40BB50B8AAB9BAB0F
:101D2000ACABBDAB8EA59FA5A8A9B9A9892B8A2B61
:101D30008B2B69F4FE01EE5BFF4F8081833039F419
:101D400084E08083CE010E945E0C019602C080E098
:101D500090E04AA95BA96CA97DA9452B462B472B8E
:101D600081F4FE01EE5BFF4F2081233011F0211141
:101D700008C01082CE010E94DF08CE010E945E0CD6
:101D80000396DF91CF911F910F91FF90EF90DF901D
:101D9000CF90089589E495E00C942D0EFA9AF99A63
:101DA00008951F920F920FB60F9211242F933F9315
:101DB0004F935F936F937F938F939F93AF93BF9353
:101DC000EF93FF93E0914F0780910E07E81720F003
:101DD000FB9810920B071AC080910C0790910D0789
:101DE00092BD81BD81E08E0F80934F07F0E0E15FEF
:101DF000F84F808180BD80910C0790910D0701966E
:101E000090930D0780930C070E94CE0EFF91EF91E7
:101E1000BF91AF919F918F917F916F915F914F9102
:101E20003F912F910F900FBE0F901F90189520910A
:101E30000B072111FCCF90930D0780930C0781E0D5
:101E400080930B0710924F0740930E07962FAFE039
:101E5000B7E0FB018E2F891B841718F481918D93B5
:101E6000F9CF7894FB9A0895FB01861B970B50E0FD
:101E7000DC01AE0FBF1F9F01261B370B2417350750
:101E800048F4F999FECFB2BDA1BD219120BDFA9AC7
:101E9000F99AEECF089520910B072111FCCFFB0199
:101EA000861B970B2E2F261B241748F49C012E0F00
:101EB0003F1F32BD21BDF89A20B52193F3CF08957D
:101EC00080910B0790E0089560E070E080E090E082
:101ED0000E948D08219A29980895299A0895299891
:101EE000089590938D0580938C0510929005109223
:101EF0008F0510928E0560E070E080E090E00E9417
:101F00008D080C946F0F80918C0590918D05892B15
:101F100009F452C080E090E00E947408892B09F413
:101F20004BC080918E05811134C020918F05309176
:101F30009005E0918C05F0918D05E20FF31F8081F3
:101F40008032E9F03CF481111DC01092900510928E
:101F50008F0508958D3239F08E32A1F40E946D0FF5
:101F60006AEF70E004C00E946D0F6EEE72E080E0D8
:101F700090E00E948D0881E080938E05089568EEC0
:101F800073E00BC02F5F3F4F3093900520938F0578
:101F900008950E946F0F64E670E080E090E00E9478
:101FA0008D0810928E0580918F0590919005019675
:101FB0009093900580938F05089585B186958170E3
:101FC00090E008958031910504F527E0289FA00155
:101FD000299F500D1124FA01EC56FA4F808181326D
:101FE000A0F480E090E020E0FA01E80FF91FEC5641
:101FF000FA4F3081230F019687309105A9F781E0D0
:1020000090E0222321F080E0089580E090E00895A0
:102010006F927F928F929F92AF92BF92CF92DF92F8
:10202000EF92FF920F931F93CF93DF930E94600F65
:10203000892BE1F704E016E0C0E8D0E0BE016C5E59
:102040007A4F47E0CE010E944B0FF80111928F01A9
:102050002796C03FD10591F744E9E42E45E0F42EE0
:102060008701C0E0D0E0D12CB12C77247A94CE0146
:102070000E94E20F892B41F0F8018081871520F43E
:10208000BC2E782EDD24D3942196095F1F4FC031DA
:10209000D10569F7DD2009F46AC0B092930570920A
:1020A0009205CB2DD0E08E010F5F1F4F872C2FE0C4
:1020B000A22E37E0932E6801FFE0CF22DD24C60177
:1020C0000E94E20F892B61F4B09291058E010150BC
:1020D0001109609780E1A82EB12C97E0692E3AC0D3
:1020E0009C9CF0019D9CF00D1124EC56FA4F408110
:1020F000242F30E0882D90E001968F7199272817C2
:10210000390711F7C092930540939205AA940F5F87
:102110001F4FAA20C9F2842ECECFF701208130E0D4
:10212000872D90E04F968F7199272817390731F541
:10213000C0929105689CF001699CF00D1124EC5649
:10214000FA4F708001501109F7E0EF0EF11C0C17E7
:102150001D07A1F0C801B5010E94F7286C014C01D0
:102160009924C4010E94E20F892BB9F607C08FE0C1
:10217000809393051092920510929105DF91CF9173
:102180001F910F91FF90EF90DF90CF90BF90AF9095
:102190009F908F907F906F900895EF92FF921F9382
:1021A000CF93DF930E94600F892B39F5E4E0F6E0CE
:1021B000C0E0D0E081918823E1F017E01C9FC001CE
:1021C0001D9F900D11249C012C563A4F790167E018
:1021D00070E0C9010E94411FC19FC001112447E066
:1021E000B70180589F4F0E94170FCC5FD94F1882BC
:1021F00004C02196C031D105E9F6DF91CF911F913E
:10220000FF90EF900895EF92FF921F93CF93DF938B
:10221000E4E0F6E0C0E0D0E081918823E1F017E04F
:102220001C9FC0011D9F900D11249C012C563A4FFC
:10223000790167E070E0C9010E94411FC19FC001A0
:10224000112447E0B70180589F4F0E94340FCC5FA4
:10225000D94F188204C02196C031D105E9F6DF912B
:10226000CF911F91FF90EF900895EF92FF920F93FF
:102270001F93CF93DF93E82EC0919305D0E0219672
:10228000CF70DD278091910590E00E94E20FF82E3B
:10229000809192058F5F813218F48093920502C07D
:1022A0001092920587E08C9F80018D9F100D112464
:1022B0000C561A4F80919205F80180830E94E1121A
:1022C000F8016183728383839483E582C0939305CD
:1022D00067E070E0C8010E94411FCC5FD94F81E0E8
:1022E00088838091930590919105891308C0FF2000
:1022F00031F090E001968F70992780939105DF91DE
:10230000CF911F910F91FF90EF900895E4E9F5E0D0
:10231000A4E0B6E08FEF4FEF5FEFBA0191E080836A
:10232000858341835283638374839D93379626E02C
:10233000E430F207A1F78FE08093930510929105A6
:102340001092920508950F931F93CF93DF930091FE
:102350009105C02F10E0D0E0CE010E94E20F892B42
:1023600029F02196CF701F5F0C13F5CF812FDF91DD
:10237000CF911F910F910895AF92BF92CF92DF92AC
:10238000EF92FF920F931F93CF93DF936B017C012A
:102390008A0159010E94A31190E0A0E0B0E0C816A4
:1023A000D906EA06FB06F8F48091910590E0C80E84
:1023B000D91E8FE0C822DD2487E08C9DF0018D9D21
:1023C000F00D1124EC56FA4F81819281A381B481E2
:1023D000E80188839983AA83BB838581F501808383
:1023E00081E090E002C080E090E0DF91CF911F910A
:1023F0000F91FF90EF90DF90CF90BF90AF90089536
:102400004F925F926F927F928F929F92AF92BF9204
:10241000CF92DF92EF92FF920F931F93CF93DF93B0
:10242000CDB7DEB7CA57D1090FB6F894DEBF0FBEDD
:10243000CDBFF82E8091670490916804A091690443
:10244000B0916A04E9968CAF9DAFAEAFBFAFE9978C
:1024500083E00E94B016882329F06BE770E083E0E8
:102460000E94E51650E3E52E6E0101E4C00ED11C7A
:1024700063E2462E512C612C712CFF2009F482C09E
:10248000F6010E2D11920A95E9F7F601408251826C
:10249000628273820BE710E09E012B583F4F40E3AE
:1024A00050E0B60183E00E94C117C09709F06AC0EE
:1024B0000E94B7084B015C01F9EE8F0EF3E09F1EFE
:1024C000A11CB11C0E94B708681579058A059B05F7
:1024D000C9F783E00E94B717009709F451C08E0135
:1024E00007581F4F9E012F583F4FAC01BE016F5F31
:1024F0007F4F83E00E943418C09709F041C069A55E
:10250000862F90E0A0E0B0E0BA2FA92F982F88275F
:102510002AA5820F911DA11DB11DBA2FA92F982F99
:1025200088272BA5820F911DA11DB11DBA2FA92FA0
:10253000982F88274CA550E060E070E04058534148
:1025400069417C4B8A019B01080F191F2A1F3B1F01
:10255000C901B8010E94B4140E94071385ED94E0EC
:102560000E940E1E0E94B7150E940E1E82EE94E07D
:102570000E940E1E83E00E94ED1681E090E007C0ED
:10258000FA947BCF83E00E94ED1680E090E0C6587D
:10259000DF4F0FB6F894DEBF0FBECDBFDF91CF91F6
:1025A0001F910F91FF90EF90DF90CF90BF90AF9071
:1025B0009F908F907F906F905F904F9008950C94B4
:1025C000E01D0C94F01D60935007709351078093A9
:1025D0005207909353070C94FC1D9C0160E971E035
:1025E0000E94E328892B79F0C90183709927892BF0
:1025F00061F4C90164E670E00E94E3289C0181E077
:10260000232B21F402C081E0089580E008952F92E9
:102610003F924F925F926F927F928F929F92AF9272
:10262000BF92CF92DF92EF92FF920F931F93CF93BF
:10263000DF93CDB7DEB767970FB6F894DEBF0FBE56
:10264000CDBF2CE0EBE6F4E0AE014F5F5F4F1A0127
:10265000DA0101900D922A95E1F7DC012C91220F0D
:102660002056322F330F330F230F11963C911197C1
:102670003153230F2D8713962C911397022E000CA4
:10268000330B205331096AE0629FA001639F500D14
:1026900011241496CC900C2C000CDD08B0E3CB1A5E
:1026A000D108C40ED51E860101501109FC012681F6
:1026B000022E000C330B20533109E8EEF3E02E9F7D
:1026C000A0012F9F500D3E9F500D1124DC01179645
:1026D0002C911797022E000C330B2053310974E60E
:1026E000729F7001739FF00C1124E40EF51E189672
:1026F0004C911897042E000C550B40535109649FC0
:102700009001659F300D1124E20EF31E19962C9155
:102710001997F701E20FF11D27FDFA95AF01585007
:102720007A011B962C911B97220F2056322F330FC4
:10273000330F230F1C963C911C973053230F298B8A
:102740001E962C911E97220F2056322F330F330FD7
:10275000230F1F963C911F973053230F2A8B5196BE
:102760002C915197220F2056322F330F330F230F06
:1027700052968C918053280F2B8BCA010E94ED1228
:10278000882321F05D85523008F08601C70160E999
:1027900071E00E94E328FC01DB0120E839E540E616
:1027A00050EF0E9468292B013C01CF0164E670E0E4
:1027B0000E94E328FC01DB0120E032EC47E15CEB06
:1027C0000E9468294B015C01DF01B695A795B6957B
:1027D000A79520E83FE146E857E00E9468296B0191
:1027E0007C01DF01A370BB2720E833E341EE51E019
:1027F0000E9468296C8B7D8B8E8B9F8BF1018E2FB5
:1028000082199D85891720F48191080F111DF7CF3A
:10281000A9892A2F30E0A0E1BEE00E9459296D87E6
:102820007E878F87988BBA892B2F30E0ACE3B0E09E
:102830000E9459292D853E854F855889260F371FBF
:10284000481F591FDA01C9013B89830F911DA11D42
:10285000B11D480E591E6A1E7B1E840C951CA61CB9
:10286000B71CC80CD91CEA1CFB1C8C899D89AE893D
:10287000BF89C80ED91EEA1EFB1ED80120E831E52B
:1028800041E050E00E946829DC01CB018C0D9D1DC8
:10289000AE1DBF1D8093500790935107A093520720
:1028A000B093530767960FB6F894DEBF0FBECDBF47
:1028B000DF91CF911F910F91FF90EF90DF90CF901C
:1028C000BF90AF909F908F907F906F905F904F9050
:1028D0003F902F900C94FC1DEF92FF920F931F934B
:1028E000CF93DF93CDB7DEB768970FB6F894DEBF0E
:1028F0000FBECDBF7B012CE0EBE6F4E0DE011D96C0
:1029000001900D922A95E1F78E010F5F1F4F2CE089
:10291000F80111922A95E9F70E94ED128A83DE01EF
:102920001D9680E0F701408151819D91F801219130
:102930008F0130E0290F311D4217530740F0421B31
:10294000530BF701518340838F5F8C3059F76896A2
:102950000FB6F894DEBF0FBECDBFDF91CF911F91B0
:102960000F91FF90EF9008954F925F926F927F9238
:102970008F929F92AF92BF92CF92DF92EF92FF928F
:10298000CF93DF9300D0CDB7DEB72B013C0181E0C0
:1029900090E0A0E0B0E020E8421629E5520620E6EB
:1029A000620620EF720618F480E090E0DC0120E976
:1029B00031E0829F5001839FB00C929FB00C112494
:1029C00080E3A81A88EFB80AC12CD12C7601C394F1
:1029D00020E8421629E5520620E6620620EF72063C
:1029E00018F4C12CD12C7601A701960160E879E595
:1029F00080E690EF0E94D32873016201C61AD70ABD
:102A0000E80AF90A81E090E0A0E0B0E0C11422EC0D
:102A1000D20627E1E2062CEBF20618F480E090E003
:102A2000DC0144E6489F9001499F300D1124A20E1D
:102A3000B31E21E030E040E050E0C11482ECD80643
:102A400087E1E8068CEBF80618F420E030E0A901F5
:102A500060E072EC87E19CEB0E94D328A70196010D
:102A6000261B370B480B590BCA01B90120E83FE17F
:102A700046E857E00E940B29220F331F220F331F15
:102A8000A20EB31E20E833E341EE51E00E940B2971
:102A90007501E20EF31E20E831E541E050E00E94AE
:102AA0000B294B015C013A832983BE016F5F7F4F85
:102AB000C7010E946C14D82EC501B40120E13EE08C
:102AC00040E050E00E940B2929013A014B015C01D2
:102AD00068EE74E084E191E00E94571C6D2D70E077
:102AE0006F5F7F4F42E084E191E00E946A1C698140
:102AF0007A816F5F7F4F42E087E191E00E946A1C1C
:102B000044E0B7018AE191E00E946A1C42E0B20110
:102B10008FE191E00E946A1CC501B4012CE330E012
:102B200040E050E00E940B2949015A016B017C01F1
:102B300042E0B40182E291E00E946A1C42E0B601E8
:102B400085E291E00E946A1C84E191E00F900F9071
:102B5000DF91CF91FF90EF90DF90CF90BF90AF903B
:102B60009F908F907F906F905F904F9008950F93FC
:102B70001F930E94F01D0091500710915107209162
:102B8000520730915307600F711F821F931F1F91CF
:102B90000F910C94B414EF92FF920F931F93CF9365
:102BA000DF938C01EB017A01009721F0209711F05F
:102BB000452B29F48CEF94E00E940E1EFFCF61E1BB
:102BC00075E00E94261F892B29F48CEF94E00E9467
:102BD0000E1E44C06BE175E0CE010E94261F892BBA
:102BE000A1F364E275E0C7010E94261F892B69F3F7
:102BF0004CE050E0B80188E597E00E942A1C109252
:102C000063074CE050E0BE0184E697E00E942A1C76
:102C100010926F074CE050E0B70180E797E00E9408
:102C20002A1C10927B07F80180818E7F8093800799
:102C3000818180938107828180938207888180933C
:102C400083078981809384078A8180938507DF9138
:102C5000CF911F910F91FF90EF900895FFCF0E94A9
:102C60002328882361F00E942A288435C1F78CE24A
:102C700095E00E940E1E8FEF90E00C94C40608951C
:102C8000EF92FF921F93CF93DF9300D000D000D03C
:102C9000CDB7DEB7182F7A0186E0E7E7F4E0DE0172
:102CA000119601900D928A95E1F7FB0181818F7752
:102CB0008C8382818D8383818E83812F0E947624F1
:102CC000BE016F5F7F4F812F0E946824B701812F63
:102CD0000E948424B701812F0E943F2462E8812F43
:102CE0000E94102461E0812F0E94222481E0269618
:102CF0000FB6F894DEBF0FBECDBFDF91CF911F910D
:102D0000FF90EF9008950E943B2491E0823209F0F9
:102D100090E0892F08950E943B24882341F08C3154
:102D200031F091E08A3109F490E0892F089580E034
:102D300008950E943B2491E0843109F090E0892FAE
:102D400008950E943B2491E0873109F090E0892F9B
:102D500008950E943B2491E0811190E0892F08950D
:102D60000C94A916CF93C82F60E10E9422246FEF24
:102D70008C2FCF910C942D240F931F93CF93DF931F
:102D8000C82FD62F8A010E94B2166D2F8C2F0E9459
:102D900010240115110511F0B8010AC06091140644
:102DA000709115066F5F7F4F709315066093140640
:102DB0008C2F0E943F2461E08C2F0E94222481E00E
:102DC000DF91CF911F910F910895AB0162E00C94B8
:102DD000BC16AB0161E00C94BC160C94B216CF93F8
:102DE000C82F0E943B24833131F462E08C2F0E9473
:102DF000222481E001C080E0CF9108950F931F93BA
:102E0000CF93FB0190819F3F51F491819F3F91F4BB
:102E100092819F3F79F493819F3F61F41DC091118E
:102E200009C09181911106C09281911103C09381D3
:102E3000992399F04115510579F08A01BF01C82FF6
:102E40000E947624B8018C2F0E94842464E08C2F89
:102E50000E94222491E001C090E0892FCF911F9120
:102E60000F91089568E00C942224CF92DF92EF92A4
:102E7000FF920F931F93CF93C82F7B018A0141309C
:102E8000584010F000E018E08C2F0E94FF246C01E5
:102E90008C2F0E943B24873111F08C3121F4C01615
:102EA000D10690F302C000E010E0A801B7018C2F1A
:102EB0000E94A02560E28C2F0E9422248C2F0E9469
:102EC000322484FD0BC08C2F0E943B248111F6CF4D
:102ED0008C2F0E94B21680E090E005C060E18C2F3C
:102EE0000E942D24C801CF911F910F91FF90EF9068
:102EF000DF90CF900895CF92DF92EF92FF921F93D1
:102F0000CF93DF93182F6B017A010E94E725EC0124
:102F1000009789F4812F0E943B248431E9F08823B3
:102F2000D9F0C1E0D0E08C3111F4C0E0D0E0D1950F
:102F3000C195D10911C0E816F9060CF4E7011C1679
:102F40001D0654F420E0AE01B601812F0E946126D7
:102F500060E4812F0E942224CE01DF91CF911F9146
:102F6000FF90EF90DF90CF9008950C94E7250C949C
:102F7000E72521E041E050E00E94612681E090E0F9
:102F80000895CF92DF92EF92FF920F931F93CF930A
:102F9000F9019081911109C09181911106C092812E
:102FA000911103C093819923A1F10115110589F1B4
:102FB0007A014130584018F0E12C98E0F92EE114E4
:102FC000F10439F16B01C82FBF010E947624B801CA
:102FD0008C2F0E948424A701B6018C2F0E94A0256B
:102FE00060E28C2F0E9422248C2F0E94322484FDC8
:102FF0000AC08C2F0E94322483FFF6CF68E18C2F09
:103000000E942D2406C060E18C2F0E942D24C70150
:1030100002C080E090E0CF911F910F91FF90EF9060
:10302000DF90CF900895EF92FF921F93CF93DF939D
:103030004115510589F0EA017B01182F0E94E7250F
:103040008C179D0708F4EC0120E0AE01B701812F39
:103050000E946126CE0102C080E090E0DF91CF9116
:103060001F91FF90EF9008958F929F92BF92CF9201
:10307000DF92EF92FF920F931F93CF93DF93CDB721
:10308000DEB728970FB6F894DEBF0FBECDBF452B35
:1030900009F47EC049016B01B82E0E9414267C0100
:1030A0008B2D0E9415248770833059F1843009F4E8
:1030B00045C0823009F065C028E030E0AE014F5FC6
:1030C0005F4FB7018B2D0E94B42288E0E80EF11CFF
:1030D0008981F40180838A8181838B8182838C81C1
:1030E00083838D8190E0982F88272E81820F911DF8
:1030F000F801918380830F8110E0102F00278885CD
:103100001AC026E030E0AE014F5F5F4FB7018B2D54
:103110000E94B422F6E0EF0EF11C8981F401808355
:103120008A8181838B8182838C8183830D8110E0EE
:10313000102F00278E81080F111D16C022E030E0ED
:10314000AE014F5F5F4FB7018B2D0E94B422F2E0BA
:10315000EF0EF11C098110E0902F88270A8110E002
:1031600002501109080F191F9801A601B7018B2DF4
:103170000E94B422B701600F711F8B2D0E9403269D
:1031800002C000E010E060E48B2D0E94222402C007
:1031900000E010E0C80128960FB6F894DEBF0FBE1D
:1031A000CDBFDF91CF911F910F91FF90EF90DF90F6
:1031B000CF90BF909F908F9008951F93CF93DF93F0
:1031C000182FEA014130584018F42097F9F002C056
:1031D000C0E0D8E0AE01812F0E94A02560E2812FDF
:1031E0000E942224812F0E94322484FD09C0812F55
:1031F0000E94322483FFF6CF812F0E94B21606C0B0
:1032000060E1812F0E942D24CE0102C080E090E079
:10321000DF91CF911F910895CF92DF92EF92FF92AD
:103220001F93CF93DF93182F7B016A01E9010E945E
:10323000FF248C179D0720F4812F0E94FF24EC01AE
:103240009E01A601B701812F0E945525CE01DF9175
:10325000CF911F91FF90EF90DF90CF9008951F9333
:10326000CF93DF93182FEB01CB010E94611CAC01BF
:10327000BE01812FDF91CF911F910C943517CF9311
:10328000DF931F92CDB7DEB7698341E050E0BE0106
:103290006F5F7F4F0E9435170F90DF91CF91089598
:1032A0000F931F93CF93C82F8B0162E20E943F19A7
:1032B000B8018C2F0E942F1962E28C2FCF911F91A1
:1032C0000F910C943F19CF93C82FCB01BA010E94E4
:1032D000B414FC011286BC018C2FCF910C945019B0
:1032E000CF93DF93D82FC62F70E084E07595679554
:1032F0008A95E1F76A3010F4605D01C0695C8D2F3A
:103300000E943F196C2F6F706A3010F0695C01C029
:10331000605D8D2FDF91CF910C943F19EF92FF925A
:103320000F931F93CF93C82F7B0162E20E943F1936
:10333000F70161918F018C2F0E947019F6E0EF0E5A
:10334000F11C6AE38C2F0E943F19F80161918F01F3
:103350008C2F0E9470190E151F0599F762E28C2FB1
:10336000CF911F910F91FF90EF900C943F19CF9345
:10337000DF93C82FD62F672F0E9470196D2F8C2FC7
:10338000DF91CF910C9470192F923F924F925F92E0
:103390006F927F928F929F92AF92BF92CF92DF9265
:1033A000EF92FF920F931F93CF93DF93CDB7DEB7CA
:1033B00062970FB6F894DEBF0FBECDBF782E7B01AB
:1033C00077FF08C0F194E194F10881E090E0998BD7
:1033D000888B02C0198A188AFE0131961F018E015E
:1033E000055F1F4F6F0188248394912CA12CB12C71
:1033F000AAE0B0E09401A5010E9468296A8B472EDB
:10340000582E692EB7010F2C000C880B990B2A89B6
:10341000342D452D562D0E942D299401A5010E9481
:103420002D29F60121936F01E21AF10827FDF3948B
:103430008A88942CA52CB62C0E171F07C9F68889EC
:103440009989892B21F06DE2872D0E943F1980E038
:1034500090E0F80162918F01611105C0009719F4A5
:103460002E163F0641F4605DF8016083872D0E94AF
:103470003F1981E090E02016310659F762960FB6A9
:10348000F894DEBF0FBECDBFDF91CF911F910F919A
:10349000FF90EF90DF90CF90BF90AF909F908F9074
:1034A0007F906F905F904F903F902F9008950F9373
:1034B0001F93CF93FB019081911109C091819111CC
:1034C00006C09281911103C09381992379F041152F
:1034D000510561F08A01BF01C82F0E947624B8010E
:1034E0008C2F0E94842481E090E002C080E090E074
:1034F000CF911F910F910895CF93C82F60E20E9442
:1035000022248C2F0E94322484FD0CC08C2F0E9418
:10351000322483FFF6CF68E18C2F0E942D2480E0B7
:1035200090E006C060E18C2F0E942D2481E090E0A5
:10353000CF910895EF92FF920F931F93CF93DF9354
:103540001F92CDB7DEB7182FE12CF12C812F0E94EE
:10355000E725E816F90688F401E0970141E050E01C
:10356000BE016F5F7F4F812F0E942C2689818A3098
:1035700031F08FEFE81AF80AE9CF80E001C081E06E
:103580000F90DF91CF911F910F91FF90EF900895D1
:103590001F93CF93DF931F92CDB7DEB7182F0E94F2
:1035A000E725892B89F021E041E050E0BE016F5F03
:1035B0007F4F812F0E946126998181E09D3029F003
:1035C0009A3019F080E001C081E00F90DF91CF9137
:1035D0001F9108958F929F92AF92BF92CF92DF92E8
:1035E000EF92FF920F931F93CF93DF931F92CDB76C
:1035F000DEB7182F5B010E94E7257C01C5010E9400
:10360000611CE816F90668F175016701CA18DB0844
:103610004701F7018081882399F001E0960141E09C
:1036200050E0BE016F5F7F4F812F0E942C268FEFED
:10363000E81AF80AF40190818981981731F311C0D2
:10364000C114D10461F041E050E0BE016F5F7F4FD3
:10365000812F0E947B17F1E0CF1AD108F1CF81E0D2
:1036600001C080E00F90DF91CF911F910F91FF90EB
:10367000EF90DF90CF90BF90AF909F908F90089584
:103680001F93CF93DF931F92CDB7DEB7182F812FF3
:103690000E94E725892BC1F141E050E0BE016F5F38
:1036A0007F4F812F0E947B1789818D30D1F4812F2C
:1036B0000E94E725892B59F321E041E050E0BE014B
:1036C0006F5F7F4F812F0E94612689818A30E1F4EC
:1036D00041E050E0BE016F5F7F4F812F0E947B175A
:1036E00013C08A30A1F6812F0E94E725892B79F239
:1036F00021E041E050E0BE016F5F7F4F812F0E94CB
:10370000612689818D3021F30F90DF91CF911F9138
:103710000895BF92CF92DF92EF92FF920F931F9383
:10372000CF93DF931F92CDB7DEB7C82E8B01FB017D
:10373000118210820E94E725892B09F451C0D12CF7
:10374000EE24E394F12C2AE0B22E8C2D0E94E72582
:10375000892BB9F121E041E050E0BE016F5F7F4F5E
:103760008C2D0E94612689818D3231F4D11038C0B0
:10377000EE24EA94FE2C1CC090ED980F9A3090F441
:10378000F80140815181B49E9001B59E300D112405
:10379000082E000C990BC097820F931F9183808392
:1037A000D39406C08A3069F08D3059F0803249F0E8
:1037B00041E050E0BE016F5F7F4F8C2D0E947B1770
:1037C000C4CFF801208131812E9DC0012F9D900D25
:1037D0003E9D900D11249183808381E0D11001C022
:1037E00080E00F90DF91CF911F910F91FF90EF90AC
:1037F000DF90CF90BF9008959FB7F894229B2A9AAC
:10380000229A259A239A2D988CB580618CBD8CB50F
:1038100080648CBD109216069FBF08958091160695
:10382000089590911606911109C09FB7F8948CBD28
:103830006DBD81E0809316069FBF2A9808958EBDC6
:1038400000000DB407FEFDCF8EB508952A9A1092A0
:1038500016060895FB01480F591F8417950729F094
:103860002191DC012D93CD01F8CF0895480F591F08
:103870008417950721F0FC016193CF01F9CF0895DA
:10388000FB01480F591F8417950759F0DC013D9142
:10389000CD012191321740F02317A8F781E090E085
:1038A000089580E090E008958FEF9FEF0895FC0168
:1038B000DB018D91BD01882311F08193F9CF108236
:1038C0000895FC019F01281B390B41914111FACF4A
:1038D000C90108959F92AF92BF92CF92DF92EF926B
:1038E000FF920F931F93CF93DF9300D000D01F92CE
:1038F000CDB7DEB7FC016B019E012F5F3F4F8E01FC
:103900000A5F1F4FEE24E394F12C9AE0992E9E9CBF
:1039100050019F9CB00C1124C601B5010E94E32800
:10392000B7010E94E328D9016D939D01C61AD10801
:1039300067FDD3947501A017B10749F760E070E007
:1039400084E090E050E0D8012E918D01211105C056
:103950006115710511F4009741F4841795072CF453
:10396000205D219361E070E004C0841795070CF49A
:103970003196019740F70F900F900F900F900F9096
:10398000DF91CF911F910F91FF90EF90DF90CF903B
:10399000BF90AF909F90089588EC80937C0086E85C
:1039A00080937A00089580917A0082958695869515
:1039B000837091E08927817090E00895EAE7F0E054
:1039C00080818064808308958091780020917900BF
:1039D00030E0322F2227A901330F660B770B9A01B3
:1039E000AB01282BA5E6B0E00E94682924E630E070
:1039F00040E050E00E942D29DA01C9018151914037
:103A0000A109B109089508950F931F93E091170636
:103A1000F0911806E930F10508F09BC0EC5CFF4F0F
:103A20000C944C298417950764F086E395E00E9476
:103A3000710F86E00E94351186E090E00E94C40676
:103A400025C0081719070CF48EC086E395E00E9484
:103A5000710F88E00E94351188E090E00E94C40652
:103A60000BC0841795070CF7081719070CF47BC0D7
:103A700086E395E00E94710F86E090E065C08417B0
:103A80009507FCF286E395E00E94710F83E090E0D9
:103A90005BC08617970764F088E395E00E94710F7A
:103AA00085E00E94351185E090E00E94C40612C0B6
:103AB000841795070CF057C08CEC94E00E94710FAE
:103AC00082E090E041C08617970794F388E395E081
:103AD0000E94710F85E090E037C0861797070CF0C1
:103AE00042C086E395E00E94710F84E090E02CC014
:103AF0002817390764F088E395E00E94710F87E08A
:103B00000E94351187E090E00E94C40611C008179A
:103B100019074CF58CEC94E00E94710F81E090E065
:103B200013C0281739079CF388E395E00E94710FB2
:103B300088E090E009C028173907ACF486E395E0E7
:103B40000E94710F87E090E090931806809317060B
:103B50000AC010921806109217068CEC94E01F9180
:103B60000F910C94710F1F910F91089510921806E8
:103B70001092170608951F920F920FB60F921124FC
:103B80008F939F93AF93BF938091190690911A06DC
:103B9000A0911B06B0911C060196A11DB11D80933A
:103BA000190690931A06A0931B06B0931C06BF91AA
:103BB000AF919F918F910F900FBE0F901F9018950E
:103BC00083E294EF909389008093880010928000A4
:103BD0008CE080938100789482E080936F00089558
:103BE0002FB7F8946091190670911A0680911B0600
:103BF00090911C062FBF08958FB7F8941092190664
:103C000010921A0610921B0610921C068FBF089580
:103C10000E94B526789408950C947928CF93DF9369
:103C2000EC018991882319F00E947928FACFDF915D
:103C3000CF910895CF93C82F90E024E09595879574
:103C40002A95E1F78A3010F4805D01C0895C0E94FA
:103C500079288C2F8F708A3010F0895C01C0805DCC
:103C6000CF910C947928CF93C82F892F0E941A1EC8
:103C70008C2FCF910C941A1E2F923F924F925F92ED
:103C80006F927F928F929F92AF92BF92CF92DF926C
:103C9000EF92FF920F931F93CF93DF93CDB7DEB7D1
:103CA00063970FB6F894DEBF0FBECDBF6B017C01EA
:103CB00097FF0DC0F094E094D094C094C11CD11C27
:103CC000E11CF11C81E090E09B8B8A8B02C01B8A77
:103CD0001A8AFE0131965F018E01055F1F4FF98B35
:103CE000E88B66246394712C812C912CAAE0B0E0BF
:103CF0009301A4010E9468291B012C01C701B60190
:103D00009101A2010E942D299301A4010E942D2955
:103D1000E889F9892193F98BE88B822F220F990B7F
:103D2000AA0BBB0BC81AD90AEA0AFB0A31014201E5
:103D30000E171F07D9F68A899B89892B19F08DE206
:103D40000E94792820E030E0F80182918F018111F2
:103D500006C02115310519F4EA15FB0529F4805D2B
:103D60000E94792821E030E00A151B0569F7639667
:103D70000FB6F894DEBF0FBECDBFDF91CF911F917C
:103D80000F91FF90EF90DF90CF90BF90AF909F90FA
:103D90008F907F906F905F904F903F902F900895FD
:103DA0000C944F280C947628FF920F931F93CF9377
:103DB000DF93EC01062FF72E18820E944F2810E0A7
:103DC0008823D9F00E9423288823B9F00E942A284A
:103DD000803210F089931F5FE02FFF2D482F50E0B5
:103DE0002191222339F0022E000C330B4217530786
:103DF000B9F702C08D3051F71882812FDF91CF9132
:103E00001F910F91FF9008950F931F93CF93DF930E
:103E10008C01EC01699170E080E090E00E943C1E12
:103E20000C5F1F4F8EE20E947928699170E080E05C
:103E300090E00E943C1EC017D107A1F785EE94E0E8
:103E4000DF91CF911F910F910C940E1EDC01FB01AD
:103E50009D91992341F08191891784F09817C4F7B7
:103E60008FEF9FEF089581E090E02081211102C043
:103E700080E090E0919581959109089581E090E02E
:103E80000895DC0190E020E061507109422F50E07C
:103E9000FD01E40FF51F4617570720F48081980FA6
:103EA0002F5FF4CF91959083089561157105810579
:103EB000910541F060932C0170932D0180932E01A8
:103EC00090932F01211531054105510541F02093B3
:103ED00028013093290140932A0150932B01089522
:103EE0004F925F926F927F928F929F92AF92BF920A
:103EF000CF92DF92EF92FF92CF93DF9300D000D06A
:103F0000CDB7DEB72B013C0129833A834B835C8319
:103F1000C0902801D0902901E0902A01F0902B0157
:103F2000A701960144275527A9E6B0E90E94682910
:103F30006701EE24FF244B015C018C0C9D1CAE1C20
:103F4000BF1C8092280190922901A0922A01B09270
:103F50002B01C0902C01D0902D01E0902E01F0900B
:103F60002F01A701960144275527A0E5B6E40E943A
:103F700068296701EE24FF24C60ED71EE81EF91E2D
:103F8000C0922C01D0922D01E0922E01F0922F01CF
:103F9000D40199278827BC01CD016C0D7D1D8E1D94
:103FA0009F1D29813A814B815C812419350946097D
:103FB00057090E940B29CB01840D951D0F900F907E
:103FC0000F900F90DF91CF91FF90EF90DF90CF9007
:103FD000BF90AF909F908F907F906F905F904F9029
:103FE0000895CF93DB01FC0120812D3221F401964D
:103FF0006FEF7FEF02C061E070E011961C921E929D
:10400000FC01CAE020818D919C9111972223C1F07F
:10401000C89FA001C99F500D112411965C934E9327
:10402000219180ED820F8A30B8F4022E000C330B00
:1040300020533109240F351F11963C932E93E2CF64
:10404000869F9001879F300D969F300D11242D93F0
:104050003C9381E090E002C080E090E0CF91089531
:1040600080915407833561F480915507853441F47C
:1040700081E090E020915607223521F080E002C0D7
:1040800080E090E0E4E5F7E020E03191230F37E0B5
:10409000EC38F307D1F7222311F080E090E0089587
:1040A000CF93DF93CDB7DEB7E7970FB6F894DEBFB7
:1040B0000FBECDBF87E3EDE7F4E0DE01119601907E
:1040C0000D928A95E1F767E370E0CE0101960E94B8
:1040D000411F47E3BE016F5F7F4F80E090E00E9489
:1040E000170FE7960FB6F894DEBF0FBECDBFDF9176
:1040F000CF9108950E94600F892BE1F747E364E5B3
:1041000077E080E090E00E944B0F0E943020892BE6
:1041100049F40E94502047E364E577E080E090E0B6
:104120000C944B0F0895AF92BF92DF92EF92FF92E3
:104130000F931F93CF93DF93EC01D62EE72E8A01C6
:1041400080911D068333F9F4A62EB72E7E01E40E6E
:10415000F51ECE15DF0509F45EC062E080E50E9421
:10416000111C80EF0E941F1C8D2F0E941F1C8C2F82
:104170000E941F1C2196F50181915F010E941F1C66
:104180000E94261CE6CF62E080E50E94111CC1154A
:10419000F4E0DF0718F4FC2EC4E00DC0C11528E0E0
:1041A000D20758F4FC2ED45033E0D695C7953A95F3
:1041B000E1F7C07ECC6080E018C0CE019770892FF7
:1041C000FC2EC115E0E6DE0740F426E0D695C79543
:1041D0002A95E1F7C07EC46108C0D05696E0D69516
:1041E000C7959A95E1F7C07ECC610E941F1C8F2D68
:1041F0000E941F1C8C2F0E941F1CCD2DDE2D7E01C6
:10420000E00EF11ECE15DF0521F089910E941F1CE2
:10421000F9CF0E94261CC801DF91CF911F910F9109
:10422000FF90EF90DF90BF90AF900895CF93DF9312
:104230001F92CDB7DEB7698341E050E0BE016F5FEA
:104240007F4F0E9493200F90DF91CF9108958F921E
:104250009F92AF92BF92CF92DF92EF92FF920F9315
:104260001F93CF93DF93EC018B016A017901FA016F
:10427000608181E090E00E941621F601618182E078
:1042800090E00E941621F601628183E090E00E9496
:104290001621F601638184E090E00E9416210E94BD
:1042A000B7084B015C01F2E08F0E911CA11CB11C00
:1042B0000E94B708681579058A059B05C9F76881CA
:1042C00089E090E00E94162169818AE090E00E94D6
:1042D00016216A818BE090E00E9416216B818CE0B0
:1042E00090E00E9416216C818DE090E00E941621E2
:1042F0006D818EE090E00E9416210E94B7084B016C
:104300005C0122E0820E911CA11CB11C0E94B70826
:10431000681579058A059B05C9F7F701608185E075
:1043200090E00E941621F701618186E090E00E94F2
:104330001621F701628187E090E00E941621F701C3
:10434000638188E090E00E9416210E94B7086B010B
:104350007C01F2E0CF0ED11CE11CF11C0E94B708D9
:104360006C157D058E059F05C9F7F80160818FE00A
:1043700090E00E941621F801618180E190E00E94A6
:104380001621F801628181E190E00E941621F80176
:10439000638182E190E00E9416210E94B7086B01C0
:1043A0007C01F2E0CF0ED11CE11CF11C0E94B70889
:1043B0006C157D058E059F05C9F765E58AE190E0DE
:1043C0000E94162165E58BE190E00E94162180E0B5
:1043D000DF91CF911F910F91FF90EF90DF90CF90E1
:1043E000BF90AF909F908F900895AF92BF92DF9251
:1043F000EF92FF920F931F93CF93DF93EC01D62E92
:10440000E72E8A0180911D06833301F5A62EB72E73
:104410007E01E40EF51ECE15DF0509F460C062E0F2
:1044200080E50E94111C8FE00E941F1C8D2F0E94AE
:104430001F1C8C2F0E941F1C219680E00E941F1CB5
:10444000F50181935F010E94261CE5CF62E080E5C3
:104450000E94111CC115F4E0DF0718F4FC2EC0E027
:104460000DC0C11528E0D20758F4FC2ED45033E01B
:10447000D695C7953A95E1F7C07EC86080E018C030
:10448000CE019770892FFC2EC115E0E6DE0740F4BF
:1044900026E0D695C7952A95E1F7C07EC06108C091
:1044A000D05696E0D695C7959A95E1F7C07EC8613B
:1044B0000E941F1C8F2D0E941F1C8C2F0E941F1CEE
:1044C000CD2DDE2D7E01E00EF11ECE15DF0529F08B
:1044D00080E00E941F1C8993F8CF0E94261CC8010F
:1044E000DF91CF911F910F91FF90EF90DF90BF90E0
:1044F000AF900895CF93DF931F92CDB7DEB741E021
:1045000050E0BE016F5F7F4F0E94F52189810F90BF
:10451000DF91CF91089590E00496982F8827860F19
:10452000971F0C947A229B0190E00496982F88277D
:10453000642F820F931F0E9416210895FB01BA0178
:1045400090E00496982F8827A9018E0F9F1F0C9446
:10455000F521FB01BA0190E00496982F8827A90164
:104560008E0F9F1F0C949320AF92BF92CF92DF9239
:10457000EF92FF920F931F93CF93DF9300D0CDB7AD
:10458000DEB77A836983BA01A901A981BA81B770BC
:10459000E82FF0E0EE0FFF1FEC54FB4FE080F180BE
:1045A000CD018E0D9F1D9D01240F351F21303840F8
:1045B00080F06A015B0100E018E00A1B1B0BA801F8
:1045C0000E94F521A601401B510BB501600F711F20
:1045D000C7010F900F90DF91CF911F910F91FF9026
:1045E000EF90DF90CF90BF90AF900C94F521682FA3
:1045F00080E090E00C94162180E090E00C947A2208
:10460000CF92DF92EF92FF9283E380931D0660E8E2
:1046100080E090E00E9416210E94B7086B017C01A7
:1046200022E0C20ED11CE11CF11C0E94B7086C15DF
:104630007D058E059F05C9F780E10E94F7220E9443
:10464000FC22803121F010921D0680E00FC082E133
:104650000E94F7220E94FC228231A9F780E00E948A
:10466000F7220E94FC228111EECF81E0FF90EF90B3
:10467000DF90CF900895CF92DF92EF92FF9287E381
:1046800080931D0660E880E090E00E9416210E9461
:10469000B7086B017C0122E0C20ED11CE11CF11CA9
:1046A0000E94B7086C157D058E059F05C9F788E047
:1046B0000E94F7220E94FC22883021F010921D06F1
:1046C00080E00FC080E10E94F7220E94FC2280312E
:1046D000A9F780E00E94F7220E94FC228111EECF10
:1046E00081E0FF90EF90DF90CF9008950E9400232B
:1046F000811102C00C943B23089544E050E0BC01BA
:1047000081E090E00C94932044E050E0BC0181E013
:1047100090E00C94F52144E050E0BC0185E090E08D
:104720000C94932044E050E0BC0185E090E00C94B0
:10473000F52146E050E0BC0189E090E00C94932024
:1047400046E050E0BC0189E090E00C94F52144E0A3
:1047500050E0BC018FE090E00C94932044E050E0E6
:10476000BC018FE090E00C94F521682F85E190E08A
:104770000C94162185E190E00C947A22CF93C82FF7
:10478000692F87E190E00E9416216C2F88E190E06C
:10479000CF910C941621CF93DF9387E190E00E9494
:1047A0007A22C82FD0E0DC2FCC2788E190E00E944D
:1047B0007A229E01280F311DC901DF91CF91089502
:1047C00044E050E0BC018AE290E00C94932044E085
:1047D00050E0BC018AE290E00C94F521CF93C82F01
:1047E000692F8EE290E00E9416216C2F8FE290E0FC
:1047F000CF910C941621CF93DF938EE290E00E942C
:104800007A22C82FD0E0DC2FCC278FE290E00E94E4
:104810007A229E01280F311DC901DF91CF910895A1
:10482000462F60E070E00C94932260E070E00C94FE
:104830008B22462F61E070E00C94932261E070E0DF
:104840000C948B22CF93C82F0E9419248C2F0E9486
:104850001E248111FBCFCF910895462F62E070E0B6
:104860000C94932262E070E00C948B22462F63E05C
:1048700070E00C94932263E070E00C948B22CF9351
:10488000DF93C82FD62F472F64E070E00E94932259
:104890004D2F65E070E08C2FDF91CF910C94932227
:1048A0001F93CF93DF93182F64E070E00E948B2258
:1048B000C82FD0E065E070E0812F0E948B22DC2FB2
:1048C000CC279E01282BC901DF91CF911F9108951C
:1048D000AB0126E030E066E070E00C94A922AB0169
:1048E00026E030E066E070E00C949E22AB0124E00C
:1048F00030E06CE070E00C94A922AB0124E030E0E1
:104900006CE070E00C949E22CF93DF93C82FD62FDB
:10491000472F60E170E00E9493224D2F61E170E02B
:104920008C2FDF91CF910C9493221F93CF93DF9321
:10493000182F60E170E00E948B22C82FD0E061E167
:1049400070E0812F0E948B22DC2FCC279E01282B28
:10495000C901DF91CF911F910895CF93DF93C82FA5
:10496000D62F472F62E170E00E9493224D2F63E122
:1049700070E08C2FDF91CF910C9493221F93CF93F3
:10498000DF93182F62E170E00E948B22C82FD0E0E5
:1049900063E170E0812F0E948B22DC2FCC279E01E7
:1049A000282BC901DF91CF911F910895CF93DF93F9
:1049B000C82FD62F472F60E270E00E9493224D2F20
:1049C00061E270E08C2FDF91CF910C9493221F93C2
:1049D000CF93DF93182F60E270E00E948B22C82FE4
:1049E000D0E061E270E0812F0E948B22DC2FCC2787
:1049F0009E01282BC901DF91CF911F910895FF924D
:104A00000F931F93CF93DF93F82EC0E0D0E08F2D4C
:104A10000E94E7248C01892B21F08F2D0E94E7242E
:104A2000EC01C017D10799F7CE01DF91CF911F910B
:104A30000F91FF900895CF93DF93C82FD62F472F64
:104A400062E270E00E9493224D2F63E270E08C2FAF
:104A5000DF91CF910C9493221F93CF93DF93182F64
:104A600062E270E00E948B22C82FD0E063E270E027
:104A7000812F0E948B22DC2FCC279E01282BC9017D
:104A8000DF91CF911F910895CF93DF93C82FD62F39
:104A9000472F64E270E00E9493224D2F65E270E0A0
:104AA0008C2FDF91CF910C9493229F92AF92BF9263
:104AB000CF92DF92EF92FF920F931F93CF93DF93EA
:104AC000982E7B016A0189010E942C25E80EF91EAF
:104AD00097013770E92DF0E0EE0FFF1FE454FB4F14
:104AE000A080B180C9018A0D9B1DA901400F511FF3
:104AF0004130584080F0C0E0D8E0C21BD30BAE017B
:104B0000B6010E949320A8014C1B5D0BB6016C0FEF
:104B10007D1FC50102C0A801B6010E949320B70104
:104B2000600F711F892DDF91CF911F910F91FF9021
:104B3000EF90DF90CF90BF90AF909F900C94442562
:104B40009A01AB0160E070E00C9455251F93CF9360
:104B5000DF93182F64E270E00E948B22C82FD0E010
:104B600065E270E0812F0E948B22DC2FCC279E0112
:104B7000282BC901DF91CF911F910895CF93DF9327
:104B8000C82FD62F472F66E270E00E9493224D2F48
:104B900067E270E08C2FDF91CF910C9493221F93EA
:104BA000CF93DF93182F66E270E00E948B22C82F0C
:104BB000D0E067E270E0812F0E948B22DC2FCC27AF
:104BC0009E01282BC901DF91CF911F910895FF927B
:104BD0000F931F93CF93DF93F82EC0E0D0E08F2D7B
:104BE0000E94CF258C01892B21F08F2D0E94CF258B
:104BF000EC01C017D10799F7CE01DF91CF911F913A
:104C00000F91FF900895CF93DF93C82FD62F472F92
:104C100068E270E00E9493224D2F69E270E08C2FD1
:104C2000DF91CF910C9493221F93CF93DF93182F92
:104C300068E270E00E948B22C82FD0E069E270E049
:104C4000812F0E948B22DC2FCC279E01282BC901AB
:104C5000DF91CF911F910895CF92DF92EF92FF9253
:104C60000F931F93CF93DF93182F6B017A01E90104
:104C70000E9414268C0F9D1FEC01D7709701A6018E
:104C8000BE01812F0E94B422011112C0BE016E0D1F
:104C90007F1D812F0E94032660E4812FDF91CF9139
:104CA0001F910F91FF90EF90DF90CF900C942224F2
:104CB000DF91CF911F910F91FF90EF90DF90CF90F8
:104CC00008950F93022F20E030E00E942C260F91D0
:104CD0000895CF93DF93C82FD62F472F6AE270E055
:104CE0000E9493224D2F6BE270E08C2FDF91CF91C9
:104CF0000C9493221F93CF93DF93182F6AE270E0F6
:104D00000E948B22C82FD0E06BE270E0812F0E94BE
:104D10008B22DC2FCC279E01282BC901DF91CF915C
:104D20001F9108951F920F920FB60F9211240E94A7
:104D30006D0F82E00E9435110E9403110E94ED0761
:104D4000FBCF9FB7F894A895E0E6F0E080818861FA
:104D500080838FE480839FBF0895A89508958091F4
:104D600060008B7080936000FFCF1092C00087E6D8
:104D700090E09093C5008093C400E1ECF0E088E1FE
:104D8000808386E08093C2008081806A808308955A
:104D90001F920F920FB60F9211242F933F938F9370
:104DA0009F93EF93FF9380912406882309F4F0C02A
:104DB0008091C60090912306992309F4E3C090EEF8
:104DC000980F9F3518F08D3009F059C020912006BA
:104DD0009091210630E0291B3109215031092F73B0
:104DE0003327232B61F0E0912106F0E0E557F84FDF
:104DF0008083909121069F5F9F739093210620915D
:104E00001E0690911F0630E0291B310921503109FF
:104E10002F733327232B89F0E0911F06F0E0E55331
:104E2000F84F808390911F069F5F9F7390931F069A
:104E30009091C10090629093C1008D3009F0C5C07F
:104E400080911E0620911F0690E0821B9109019718
:104E50008F739927892B69F0E0911F06F0E0E553E5
:104E6000F84F8AE0808380911F068F5F8F73809355
:104E70001F06809122068F5F80932206A6C088308D
:104E800011F08F37C1F5809121062091200690E026
:104E9000821B91098F739927892B09F496C0E091A1
:104EA0002106F0E0E557F84F80818091210681507E
:104EB0008F738093210680911E0620911F0690E03B
:104EC000821B910901978F739927892B09F47DC063
:104ED000E0911F06F0E0E553F84F8FE78083809163
:104EE0001F068F5F8F7380931F068091C1008062C1
:104EF0008093C1006AC0843009F067C080912106A8
:104F00002091200690E0821B91098F739927892BAD
:104F100031F1E0912106F0E0E557F84F80818D30C6
:104F2000F1F0809120062091210690E0821B9109EA
:104F300001978F739927892B91F0E0912106F0E07A
:104F4000E557F84F8DE08083809121068F5F8F7346
:104F500080932106809122068F5F809322068091A4
:104F600020062091210690E0821B910901978F7302
:104F70009927892B51F1E0912106F0E0E557F84F90
:104F800084E019C0833009F581E0809323061DC0B9
:104F9000809120062091210690E0821B91090197C3
:104FA0008F739927892B79F0E0912106F0E08091A9
:104FB000C600E557F84F8083809121068F5F8F737D
:104FC0008093210602C08091C600FF91EF919F91CE
:104FD0008F913F912F910F900FBE0F901F901895BA
:104FE0001F920F920FB60F9211242F938F939F93BE
:104FF000EF93FF9380911F0620911E0690E0821B85
:1050000091098F739927892B79F0E0911E06F0E0C2
:10501000E553F84F80818093C60080911E068F5F14
:105020008F7380931E0605C08091C1008F7D809391
:10503000C100FF91EF919F918F912F910F900FBE23
:105040000F901F9018958091210690912006891B42
:105050008F730895809121062091200690E0821B95
:1050600091098F739927892BC1F0E0912006F0E018
:10507000E557F84F8081909120069F5F9F73909332
:10508000200690912406992349F08D3039F49091AF
:105090002206915090932206089580E0089581E0C1
:1050A00080932406809121062091200690E0821BA7
:1050B00091098F739927892BB1F0E0912006F0E0D8
:1050C000E557F84F8081843071F410922306E09107
:1050D0002006F0E0E557F84F8081809120068F5F31
:1050E0008F73809320068091230608958091220675
:1050F00008950FB607FE0EC020911E0690911F0660
:1051000030E0291B3109215031092F733327232B1C
:1051100099F30DC020911E0690911F0630E0291BC7
:105120003109215031092F733327232B61F0E0918E
:105130001F06F0E0E553F84F808380911F068F5FD4
:105140008F7380931F068091C10080628093C1009D
:1051500008951F93CF93DF93EC0180E011E0180FC7
:10516000FE01E80FF11D8081882321F00E9479283B
:10517000812FF4CFDF91CF911F9108951F93CF938B
:10518000DF93EC0180E011E0180FFE01E80FF11D44
:105190008491882321F00E947928812FF4CFDF9118
:1051A000CF911F910895DB018F939F930E946829EF
:1051B000BF91AF91A29F800D911DA39F900DB29FB3
:1051C000900D11240895AA1BBB1B51E107C0AA1F13
:1051D000BB1FA617B70710F0A61BB70B881F991F98
:1051E0005A95A9F780959095BC01CD01089597FB3C
:1051F000072E16F4009407D077FD09D00E94E3280B
:1052000007FC05D03EF4909581959F4F08957095C9
:1052100061957F4F0895A1E21A2EAA1BBB1BFD01C9
:105220000DC0AA1FBB1FEE1FFF1FA217B307E40785
:10523000F50720F0A21BB30BE40BF50B661F771FDD
:10524000881F991F1A9469F76095709580959095BD
:105250009B01AC01BD01CF010895052E97FB1EF403
:1052600000940E94442957FD07D00E940B2907FC97
:1052700003D04EF40C9444295095409530952195D7
:105280003F4F4F4F5F4F0895909580957095619572
:105290007F4F8F4F9F4F0895EE0FFF1F0590F491A2
:1052A000E02D09946927962769277827872778278B
:1052B0000895A29FB001B39FC001A39F700D811DEF
:1052C0001124911DB29F700D811D1124911D08950F
:1052D0000E945929A59F900DB49F900DA49F800D09
:0A52E000911D11240895F894FFCFEA
:1052EA00030B443100802500002D00040B443000DC
:1052FA00802500002D0002060024F400010C6174D0
:08530A006D6567613332380064
:105312004B0041535500FF03FE030000010000C093
:10532200A801640030302F30302F30303030203040
:10533200303A30303A303000E5559A15B53B121FFD
:105342006D6D79736F726572004D616E69004D61AA
:105352006E697368006C6F63616C2069703A20003B
:10536200496E2072657175657374206C696E652073
:1053720073656374696F6E2E2E2E0D0A00474554B5
:105382002000474554206D6F64650D0A0050555446
:105392002000505554206D6F64650D0A0044454C41
:1053A200455445200044454C455445206D6F646585
:1053B2000D0A002F646576696365002F646576695E
:1053C2006365206E6F742070726573656E740D0A6A
:1053D2000020003F72657365743D0052657175650A
:1053E2007374206D6F6465206E6F74206D617463D9
:1053F20068696E67207265736F757263650D0A0066
:105402002F636F6E666967002F6C6F6700496E7657
:10541200616C69642072657175657374206D6F6467
:10542200650D0A00227472756522002266616C7332
:105432006522003F74637269745F68693D003F745E
:105442007761726E5F68693D003F747761726E5F6B
:105452006C6F3D003F74637269745F6C6F3D00480E
:105462005454502F312E310D0A0048545450207696
:10547200657273696F6E206E6F7420312E310D0A62
:105482000020485454502F312E310D0A00486F73BA
:10549200743A203139322E312E3136382E312E31B6
:1054A20030303A383038300D0A00486F73743A2081
:1054B2003132372E302E302E3130303A38303830CB
:1054C2000D0A0049502061646472657373206E6F27
:1054D20074206D61746368696E670D0A004D6F76A2
:1054E200696E6720746F2070726F636573732073C7
:1054F200656374696F6E2E2E2E0D0A00496E20654B
:1055020072726F722073746174650D0A004854548C
:10551200502F312E312034303020494E56414C49E3
:10552200440D0A00436F6E6E656374696F6E3A20B4
:10553200636C6F73650D0A000D0A00537461727417
:10554200656420657865637574696E672070726F33
:10555200636573732E2E2E0D0A0053746172746587
:10556200642073656E64696E6720726573706F6E16
:1055720073652E2E2E0D0A00485454502F312E31B1
:1055820020323030204F4B0D0A00436F6E74656E2F
:10559200742D547970653A206170706C696361741E
:1055A200696F6E2F766E642E6170692B6A736F6EEF
:1055B2000D0A00767064006D6F64656C006D616E3B
:1055C2007566616374757265720073657269616C88
:1055D2005F6E756D626572006D616E756661637492
:1055E2007572655F64617465006D61635F616464B7
:1055F2007265737300636F756E7472795F636F6443
:10560200650074637269745F686900747761726EB1
:105612005F68690074637269745F6C6F00747761AC
:10562200726E5F6C6F0074656D7065726174757215
:1056320065007374617465004E4F524D414C006CAD
:105642006F670074696D657374616D70006576656E
:105652006E7400456E6465642073656E64696E677E
:1056620020726573706F6E73652E2E2E0D0A00EF19
:10567200010101FFFFFFFFC0A801011F1C1F1E1F28
:105682001E1F1F1E1F1E1F01005E000000534552F9
:105692000053616E647900000000000000446F75E1
:1056A200676C617300000000005F554E415353491F
:1056B200474E45440000000000444F5553414E55AB
:1056C200534100000060004800700078004000482C
:1056D200005000580D0A414C41524D3A20005749A2
:1056E2005A6E65740074696D652073796E636564C2
:1056F20020005554430D0A0030302F30302F303007
:1057020030302030303A30303A30300050726F6AE8
:10571200656374206E6F74207369676E65640D0A29
:105722000066697273746E616D65006C6173746E8C
:10573200616D650061737572697465005465737497
:0A574200696E670D0A002D002E00AD
:00000001FF
