:100000000C9434000C9451000C9451000C94510049
:100010000C9451000C9451000C94B91D0C94510097
:100020000C9451000C9451000C9451000C94E21467
:100030000C9451000C9451000C9459010C945100F3
:100040000C9451000C9451000C947B1F0C94A32031
:100050000C9451000C9451000C94571E0C945100B8
:100060000C9451000C94510011241FBECFEFD8E026
:10007000DEBFCDBF12E0A0E0B1E0E8ECF4E402C0E6
:1000800005900D92AE32B107D9F724E0AEE2B2E0AE
:1000900001C01D92A932B207E1F70E9453000C94EF
:1000A0004E220C9400000F931F93CF93DF9300D048
:1000B00000D0CDB7DEB740E351E068E371E081E402
:1000C00091E00E940F0E19821A821B821C8200008E
:1000D00000EA1FE020E030E040E65AEE60E070E029
:1000E00087E493E00E947307892B91F38BE491E0FE
:1000F0000E9435150E9428020E942B1683E00E9460
:10010000790985E00E94440A84E00E9479090E94EE
:10011000C81D80E00E94790980E090E00E94940070
:100120000E94730EFFCF08958F929F92AF92BF925D
:10013000EF92FF920F931F93CF93DF9300D000D0E5
:100140001F92CDB7DEB77C01809156019091570187
:10015000A0915801B091590189839A83AB83BC83E4
:1001600048EB52E2BE016F5F7F4F83E00E94840E36
:1001700048EB52E2BE016F5F7F4F83E00E949B120B
:100180000E94FB0D0E9477148C010E94FB0D9801C8
:10019000AC0160E070E083E00E9450110E94FB0D12
:1001A0000E9477148C0121E030E043EC51E0BC0167
:1001B00083E00E9450110F5F1F4F87E393E00E947E
:1001C00077149C0147E353E0B80183E00E9450118B
:1001D00087E393E00E947714080F191F21E030E0B5
:1001E00043EC51E0B80183E00E945011B8016F5F09
:1001F0007F4FC70124E0969587952A95E1F78A30CD
:10020000910510F0895C01C0805D8D8321E030E0B4
:10021000AE014B5F5F4F83E00E945011B8016E5FEB
:100220007F4F8E2D8F7097012F7033272A30310525
:1002300010F0895C01C0805D8D8321E030E0AE016B
:100240004B5F5F4F83E00E94501183E00E94C01219
:100250000E940F024B015C0125EF820E21E0921EED
:10026000A11CB11C0E940F02681579058A059B0527
:10027000C9F783E00E94310F8BEB91E00E943515A6
:10028000B70180E090E00E9463158CED91E00E9440
:1002900035150F900F900F900F900F90DF91CF9129
:1002A0001F910F91FF90EF90BF90AF909F908F9014
:1002B00008951F920F920FB60F9211242F933F9320
:1002C0008F939F93AF93BF9320913802309139025F
:1002D00080913002909131022817390749F08091BE
:1002E0003802909139020196909339028093380236
:1002F00020913A0230913B02809132029091330278
:100300002817390749F080913A0290913B020196F3
:1003100090933B0280933A0280913402909135028F
:10032000A0913602B09137020196A11DB11D8093B4
:10033000340290933502A0933602B0933702BF91F6
:10034000AF919F918F913F912F910F900FBE0F9082
:100350001F90189589EF87BD82E084BD93E095BD1D
:10036000789480936E0010923402109235021092AD
:1003700036021092370208958230910550F4F894B5
:10038000880F991FFC01E85CFD4F80819181789472
:10039000089580E090E008958230910598F4880FE8
:1003A000991FFC01E85CFD4F20813181FC01E05D7B
:1003B000FD4F81E090E0408151814217530721F0C9
:1003C00080E0089580E090E008950F931F93CF930D
:1003D000DF93EC018B0180912E0290912F02892BEB
:1003E00041F40E94AA0181E090E090932F02809353
:1003F0002E02C230D10570F48FB7F894CC0FDD1FF8
:10040000FE01E05DFD4F11830083C85CDD4F198262
:1004100018828FBFDF91CF911F910F910895809126
:100420002E0290912F02892B41F40E94AA0181E0B3
:1004300090E090932F0280932E02F8946091340202
:100440007091350280913602909137027894089528
:100450008AE492E008958EE492E0089582E592E0C5
:10046000089586E592E008958AE592E0089544E1D2
:1004700050E060E00E960C944C1408952F923F9239
:100480004F925F926F927F928F929F92AF92BF92A4
:10049000CF92DF92EF92FF920F931F93CF93DF9350
:1004A000CDB7DEB7E6970FB6F894DEBF0FBECDBF6F
:1004B0008C012A013B0119011AAA19AA0E940F02F4
:1004C0004B015C0182E00E94FB0F892BF9F40E9432
:1004D0000F02DC01CB0188199909AA09BB0948164A
:1004E00059066A067B0608F4A7C00E940F026B013A
:1004F0007C0123E3C20ED11CE11CF11C0E940F02FF
:100500006C157D058E059F05C9F7DCCF48E050E0EE
:10051000BE016D5D7F4F82E00E945710FFA08BA14E
:100520008BA78CA18CA78DA18DA78EA18EA7E8A4E7
:1005300042E250E0BE016F5F7F4F82E00E945710A1
:100540008981823009F076C08F2D90E0982F88271E
:100550008E0D911D8334910509F06CC06D817E81F3
:100560008F8198850E942D22F1016083718382839F
:10057000938346E050E0B801685F7F4FCE014D960F
:100580000E945614892B09F059C0F1018081918194
:10059000A281B381F8014081518162817381841706
:1005A0009507A607B70708F449C0448155816681BD
:1005B0007781481759076A077B0708F43FC044E072
:1005C00050E0BE016F5E7F4FC8010E960E9440143E
:1005D0008EECE82EF12C41E050E0BE01615D7F4FD2
:1005E00082E00E945710F1E0EF1AF108A1F7C8016C
:1005F00082969CAB8BABF801B696FEABEDAB1801C7
:10060000FAE22F0E311C08976C012E019BE2490E75
:10061000511C3801E2E16E0E711C5801F6E1AF0E7B
:10062000B11C48012EE1820E911C82E00E94FB0F5A
:10063000892B31F48AA924C18FEF22C180E020C127
:1006400041E050E0BE01605D7F4F82E00E945710A4
:1006500088A9833309F4E0C0D0F48130B9F128F3DC
:10066000833009F442C0863009F0F5C041E050E023
:10067000BE016F5C7F4F82E00E94571044E050E063
:10068000B40182E00E945710E12CF12C51C08A3352
:1006900009F48DC030F4853359F0863309F45BC01A
:1006A000DAC08B3309F49EC08F3F09F4BECFD3C0AC
:1006B00041E050E0BE016F5C7F4F82E00E94571026
:1006C00041E050E0BE016E5C7F4F0BC041E050E066
:1006D000BE016F5C7F4F82E00E94571044E050E003
:1006E000B30182E00E945710A0CF41E050E0BE016C
:1006F0006F5C7F4F82E00E94571044E050E0B501EC
:1007000082E00E945710E12CF12C89A990E0049717
:10071000E816F9060CF089CF41E050E0BE01615DBA
:100720007F4F82E00E9457108FEFE81AF80AEDCF52
:1007300089A990E00497E816F9060CF076CF41E01D
:1007400050E0BE01615D7F4F82E00E9457109FEF35
:10075000E91AF90AEDCF41E050E0BE016F5C7F4F2E
:1007600082E00E945710F801828D811109C0838DAB
:10077000811106C0848D811103C0858D882319F0F5
:100780004C145D0421F444E050E0B601AACF89A9DD
:100790009FEF980F99AB882309F447CF41E050E0D1
:1007A000BE01615D7F4F82E00E945710F0CF41E0B3
:1007B00050E0BE016F5C7F4F82E00E94571044E022
:1007C00050E06DA97EA982E00E945710F80166A151
:1007D00077A180A591A50E942D2266A377A380A76B
:1007E00091A723CF41E050E0BE016F5C7F4F82E0D4
:1007F0000E94571044E050E0B10182E00E9457107F
:10080000F80162A573A584A595A50E942D2262A773
:1008100073A784A795A709CF41E050E0BE016F5CA4
:100820007F4F82E00E94571044E050E06BA97CA902
:1008300082E00E945710F80162A173A184A195A1E2
:100840000E942D2262A373A384A395A366A777A712
:1008500080AB91ABEACE41E050E0BE016F5C7F4FD0
:1008600082E00E94571089A99FEF980F99AB8823C7
:1008700009F4DBCE41E050E0BE01615D7F4FF0CF77
:10088000E6960FB6F894DEBF0FBECDBFDF91CF91D5
:100890001F910F91FF90EF90DF90CF90BF90AF909E
:1008A0009F908F907F906F905F904F903F902F9090
:1008B00008950E96089542960895469608954A968C
:1008C00008954E96089580E3FB0180833296842F2D
:1008D00082958F7090E1899F401911244A3014F459
:1008E000405D01C0495C4293482F8111F0CF0895CB
:1008F000AF92BF92DF92EF92FF920F931F93CF932D
:10090000DF93CDB7DEB7AA970FB6F894DEBF0FBE60
:10091000CDBF8C01D62EF42EE52E40E250E060E0F3
:10092000CE0101960E944C1480915A0190915B0176
:10093000A0915C01B0915D018DA39EA3AFA3B8A768
:1009400043E450E0BE016B5D7F4F82E00E949B124A
:10095000892B09F4FBC081E089838A8386E08B833D
:100960001C82F80164817581868197810E942D2205
:1009700069A37AA38BA39CA344E050E0BE016F5D02
:100980007F4FCE0105960E944014E986FA8680E8E2
:1009900090E09AA789A742E050E0BE01675D7F4FD3
:1009A000CE010B960E9440142CE130E0AE014F5F67
:1009B0005F4F60E070E082E00E94501140E250E042
:1009C00060E0CE0101960E944C145801F8E0AF0E91
:1009D000B11C46E050E0B501CE0101960E944014E2
:1009E00020E130E0AE014F5F5F4F6CE170E082E0EC
:1009F0000E94501140E250E060E0CE0101960E945A
:100A00004C148CE2E82EF12C20E230E0AE014F5F76
:100A10005F4FB70182E00E94501180E2E80EF11CA6
:100A2000ECEEEE16F10481F783E6898392E89A836F
:100A300093E59B838C8385E38D8381E08E83DF82C6
:100A40009DE3988797E099878A8746E050E0B50153
:100A5000CE010B960E9440148CE0898B85EC91E0CE
:100A60000E9477148A5F8A8B65EC71E0CE01439611
:100A70000E946D14F8014385BE01675E7F4FC80177
:100A80000E946304F8014485BE01655E7F4FC80182
:100A90000E946304F8014585BE01635E7F4FC80173
:100AA0000E9463042EE130E0AE014F5F5F4F6CEEB9
:100AB00070E082E00E945011F3E0DF1227C082E371
:100AC000898384E08A83F80196859B8397859C833C
:100AD00090899D8391899E8396E39F838887828DE9
:100AE0008987838D8A87848D8B87858D8C872CE081
:100AF00030E0AE014F5F5F4F6AE071E082E00E943C
:100B0000501166E171E080E090E004C06AE071E0BD
:100B100080E090E027E3298326E02A8331E03B83CD
:100B200033E03C832D832FE02E832AE32F832BE3B6
:100B300028872FEF298729E030E0AE014F5F5F4F14
:100B400082E00E94501182E00E94C012AA960FB665
:100B5000F894DEBF0FBECDBFDF91CF911F910F91F3
:100B6000FF90EF90DF90BF90AF9008952F923F924B
:100B70004F925F926F927F928F929F92AF92BF92AD
:100B8000CF92DF92EF92FF920F931F93CF93DF9359
:100B900000D000D0CDB7DEB78C0120ED37E040E0CB
:100BA00050E061E070E080E090E00E949716A0E0E5
:100BB000B0E0F80184839583A683B7838083918313
:100BC000A283B38382E00E94310F64E470E082E08C
:100BD0000E94290F882309F42EC10E940F024B01A5
:100BE0005C01212C312C7801F2E4EF0EF11C48EE6F
:100BF000442E43E0542E612C712C52E0C52ED701B7
:100C00008C91833009F4FEC081111FC0F8018481EA
:100C10009581A681B7810196A11DB11D848395831D
:100C2000A683B7830E940F02681979098A099B0974
:100C3000A30192010E94EC21A90161E0C8010E9478
:100C4000780481E0D7018C93C5C08430F1F4F801B9
:100C500084819581A681B7810196A11DB11D8483F0
:100C60009583A683B7830E940F02681979098A09C0
:100C70009B09A30192010E94EC21A90163E0C80134
:100C80000E947804D701CC92A5C0813051F5F801BB
:100C900042AD53AD64AD75AD9E012F5F3F4FC801AE
:100CA0000E943E02D82EF2E08F138FC089819A8174
:100CB000AB81BC81F80184839583A683B7830E94AE
:100CC0000F02681979098A099B09A30192010E9400
:100CD000EC21A90163E0C8010E947804D701DC92ED
:100CE00079C0823009F076C0F80142AD53AD64ADF1
:100CF00075AD9E012F5F3F4FC8010E943E02D82E66
:100D0000F5E08F135CC0E3E0D701EC93F80182A11A
:100D100093A1A4A1B5A1892B8A2B8B2B41F484E844
:100D200093E0A0E0B0E082A393A3A4A3B5A3F8014D
:100D300086A197A1A0A5B1A5892B8A2B8B2B61F445
:100D400082A193A1A4A1B5A1B695A79597958795E2
:100D500086A397A3A0A7B1A7F80182A593A5A4A5F0
:100D6000B5A5892B8A2B8B2BA9F482A193A1A4A1D1
:100D7000B5A1AC01BD0123E07695679557954795E0
:100D80002A95D1F7841B950BA60BB70B82A793A7C7
:100D9000A4A7B5A7F80186A197A1A0A5B1A586A78C
:100DA00097A7A0ABB1AB82A593A5A4A5B5A582AB2F
:100DB00093ABA4ABB5AB22242394312C0BC0F6E04B
:100DC0008F1303C0D7011C9205C0BFEFDB1202C016
:100DD000F7011082F1E02F16310409F410CF0E94C0
:100DE0000F02DC01CB0188199909AA09BB09F80196
:100DF00026A937A940AD51AD281739074A075B0727
:100E000008F0FDCE82E00E94310FF80184819581C7
:100E1000A681B7810196A11DB11D84839583A68308
:100E2000B7830E940F02F801FE966083718382836C
:100E30009383C10102C080E090E00F900F900F906B
:100E40000F90DF91CF911F910F91FF90EF90DF9066
:100E5000CF90BF90AF909F908F907F906F905F905A
:100E60004F903F902F900895CF92DF92EF92FF9294
:100E70000F931F93CF93DF93EC016B011AA21BA278
:100E80001CA21DA21EA21FA218A619A61AA61BA666
:100E90001CA61DA62EAB3FAB48AF59AFEAAEFBAECA
:100EA0000CAF1DAF8C01085F1F4F46E050E060E0C3
:100EB000C8010E944C14CE010E94370246E050E067
:100EC000B601C8010E944014FE01EE5BFF4F108284
:100ED000CE01DF91CF911F910F91FF90EF90DF90A6
:100EE000CF900C94B605EF92FF920F931F93780169
:100EF00089019A01AB01BC018CE392E00E943407A6
:100F00001F910F91FF90EF900895CF92DF92EF9293
:100F1000FF920F931F93CF93DF93EC010E940F0278
:100F20006B017C018E01025C1F4FF8018081918171
:100F3000A281B381A7019601281B390B4A0B5B0BD9
:100F4000CA01B901683E33E073078105910508F4D1
:100F500041C028EE33E040E050E00E94EC21C61A88
:100F6000D70AE80AF90AF801C082D182E282F38244
:100F70008EA59FA5A8A9B9A969017A01CC0CDD1C91
:100F8000EE1CFF1C8C159D05AE05BF0528F41EA6A2
:100F90001FA618AA19AA08C0821B930BA40BB50B95
:100FA0008EA79FA7A8ABB9AB8AA99BA9ACA9BDA9DD
:100FB0008C159D05AE05BF0528F41AAA1BAA1CAA0C
:100FC0001DAA08C0821B930BA40BB50B8AAB9BAB6D
:100FD000ACABBDAB8EA59FA5A8A9B9A9892B8A2BBF
:100FE0008B2B69F4FE01EE5BFF4F8081833039F477
:100FF00084E08083CE010E94B605019602C080E0A5
:1010000090E04AA95BA96CA97DA9452B462B472BEB
:1010100081F4FE01EE5BFF4F2081233011F021119E
:1010200008C01082CE010E943702CE010E94B60590
:101030000396DF91CF911F910F91FF90EF90DF907A
:10104000CF9008958CE392E00C9485078031910550
:1010500004F527E0289FA001299F500D1124FA01D3
:10106000EE57FD4F80818132A0F480E090E020E0D7
:10107000FA01E80FF91FEE57FD4F3081230F01965B
:1010800087309105A9F781E090E0222321F080E0EC
:10109000089580E090E008956F927F928F929F92E2
:1010A000AF92BF92CF92DF92EF92FF920F931F9376
:1010B000CF93DF930E94E61E892BE1F702EF12E047
:1010C000C0E8D0E0BE016E5F7D4F47E0CE010E94D8
:1010D000D11EF80111928F012796C03FD10591F7DB
:1010E00042E8E42E42E0F42E8701C0E0D0E0D12CAB
:1010F000B12C77247A94CE010E942608892B41F0E6
:10110000F8018081871520F4BC2E782EDD24D3943D
:101110002196095F1F4FC031D10569F7DD2009F421
:101120006AC0B092810270928002CB2DD0E08E0115
:101130000F5F1F4F872C2FE0A22E37E0932E680100
:10114000FFE0CF22DD24C6010E942608892B61F42E
:10115000B0927F028E0101501109609780E1A82EA4
:10116000B12C97E0692E3AC09C9CF0019D9CF00D3B
:101170001124EE57FD4F4081242F30E0882D90E060
:1011800001968F7199272817390711F7C0928102AC
:1011900040938002AA940F5F1F4FAA20C9F2842EA9
:1011A000CECFF701208130E0872D90E04F968F71F0
:1011B00099272817390731F5C0927F02689CF00102
:1011C000699CF00D1124EE57FD4F708001501109FC
:1011D000F7E0EF0EF11C0C171D07A1F0C801B501D7
:1011E0000E94D8216C014C019924C4010E94260858
:1011F000892BB9F607C08FE080938102109280029C
:1012000010927F02DF91CF911F910F91FF90EF908D
:10121000DF90CF90BF90AF909F908F907F906F9016
:101220000895EF92FF921F93CF93DF930E94E61EE3
:10123000892B39F5E2EFF2E0C0E0D0E0819188231C
:10124000E1F017E01C9FC0011D9F900D11249C012F
:101250002E573D4F790167E070E0C9010E94681682
:10126000C19FC001112447E0B70180589F4F0E94E1
:101270009D1ECE50DD4F188204C02196C031D1058D
:10128000E9F6DF91CF911F91FF90EF900895EF92D3
:10129000FF921F93CF93DF93E2EFF2E0C0E0D0E044
:1012A00081918823E1F017E01C9FC0011D9F900DE4
:1012B00011249C012E573D4F790167E070E0C90170
:1012C0000E946816C19FC001112447E0B7018058F1
:1012D0009F4F0E94BA1ECE50DD4F188204C0219647
:1012E000C031D105E9F6DF91CF911F91FF90EF90CA
:1012F0000895EF92FF920F931F93CF93DF93E82E01
:10130000C0918102D0E02196CF70DD2780917F02CD
:1013100090E00E942608F82E809180028F5F813233
:1013200018F48093800202C01092800287E08C9FA4
:1013300080018D9F100D11240E571D4F809180024A
:10134000F80180830E94250BF801618372838383F7
:101350009483E582C093810267E070E0C8010E9437
:101360006816CE50DD4F81E0888380918102909194
:101370007F02891308C0FF2031F090E001968F7042
:10138000992780937F02DF91CF911F910F91FF905A
:10139000EF900895E2E8F2E0A2EFB2E08FEF4FEFB6
:1013A0005FEFBA0191E08083858341835283638339
:1013B00074839D93379622E0E23FF207A1F78FE016
:1013C0008093810210927F021092800208950F9301
:1013D0001F93CF93DF9300917F02C02F10E0D0E0E6
:1013E000CE010E942608892B29F02196CF701F5F1D
:1013F0000C13F5CF812FDF91CF911F910F9108959D
:10140000AF92BF92CF92DF92EF92FF920F931F9312
:10141000CF93DF936B017C018A0159010E94E70998
:1014200090E0A0E0B0E0C816D906EA06FB06F8F4A2
:1014300080917F0290E0C80ED91E8FE0C822DD2483
:1014400087E08C9DF0018D9DF00D1124EE57FD4F2E
:1014500081819281A381B481E80188839983AA83E1
:10146000BB838581F501808381E090E002C080E04C
:1014700090E0DF91CF911F910F91FF90EF90DF905F
:10148000CF90BF90AF9008954F925F926F927F92EE
:101490008F929F92AF92BF92CF92DF92EF92FF9284
:1014A0000F931F93CF93DF93CDB7DEB7CA57D10900
:1014B0000FB6F894DEBF0FBECDBFF82E80915E014F
:1014C00090915F01A0916001B0916101E9968CAFAC
:1014D0009DAFAEAFBFAFE99783E00E94F40E8823C3
:1014E00029F06BE770E083E00E94290F50E3E52EBE
:1014F0006E0101E4C00ED11C63E2462E512C612C1A
:10150000712CFF2009F482C0F6010E2D11920A956C
:10151000E9F7F60140825182628273820BE710E0A4
:101520009E012B583F4F40E350E0B60183E00E94FC
:101530000510C09709F06AC00E940F024B015C01C0
:10154000F9EE8F0EF3E09F1EA11CB11C0E940F024A
:10155000681579058A059B05C9F783E00E94FB0F92
:10156000009709F451C08E0107581F4F9E012F5854
:101570003F4FAC01BE016F5F7F4F83E00E94781048
:10158000C09709F041C069A5862F90E0A0E0B0E0C7
:10159000BA2FA92F982F88272AA5820F911DA11D48
:1015A000B11DBA2FA92F982F88272BA5820F911D27
:1015B000A11DB11DBA2FA92F982F88274CA550E047
:1015C00060E070E04058534169417C4B8A019B01C7
:1015D000080F191F2A1F3B1FC901B8010E94F80CF0
:1015E0000E944B0B8CEC91E00E9435150E94FB0D84
:1015F0000E94351589ED91E00E94351583E00E9427
:10160000310F81E090E007C0FA947BCF83E00E9425
:10161000310F80E090E0C658DF4F0FB6F894DEBF80
:101620000FBECDBFDF91CF911F910F91FF90EF9033
:10163000DF90CF90BF90AF909F908F907F906F90F2
:101640005F904F9008950C9407150C9417156093B4
:101650001703709318038093190390931A030C9443
:1016600023159C0160E971E00E94C421892B79F067
:10167000C90183709927892B61F4C90164E670E080
:101680000E94C4219C0181E0232B21F402C081E04F
:10169000089580E008952F923F924F925F926F924B
:1016A0007F928F929F92AF92BF92CF92DF92EF92F2
:1016B000FF920F931F93CF93DF93CDB7DEB767975A
:1016C0000FB6F894DEBF0FBECDBF2CE0E2E6F1E02E
:1016D000AE014F5F5F4F1A01DA0101900D922A951A
:1016E000E1F7DC012C91220F2056322F330F330FFC
:1016F000230F11963C9111973153230F2D87139689
:101700002C911397022E000C330B205331096AE001
:10171000629FA001639F500D11241496CC900C2C55
:10172000000CDD08B0E3CB1AD108C40ED51E86012B
:1017300001501109FC012681022E000C330B2053AD
:101740003109E8EEF3E02E9FA0012F9F500D3E9F40
:10175000500D1124DC0117962C911797022E000CC6
:10176000330B2053310974E6729F7001739FF00CA4
:101770001124E40EF51E18964C911897042E000CB7
:10178000550B40535109649F9001659F300D112402
:10179000E20EF31E19962C911997F701E20FF11D35
:1017A00027FDFA95AF0158507A011B962C911B9793
:1017B000220F2056322F330F330F230F1C963C91EC
:1017C0001C973053230F298B1E962C911E97220FA6
:1017D0002056322F330F330F230F1F963C911F9744
:1017E0003053230F2A8B51962C915197220F20565C
:1017F000322F330F330F230F52968C918053280FC3
:101800002B8BCA010E94310B882321F05D85523059
:1018100008F08601C70160E971E00E94C421FC0163
:10182000DB0120E839E540E650EF0E9443222B011E
:101830003C01CF0164E670E00E94C421FC01DB01A1
:1018400020E032EC47E15CEB0E9443224B015C015B
:10185000DF01B695A795B695A79520E83FE146E844
:1018600057E00E9443226B017C01DF01A370BB277C
:1018700020E833E341EE51E00E9443226C8B7D8BE4
:101880008E8B9F8BF1018E2F82199D85891720F4F5
:101890008191080F111DF7CFA9892A2F30E0A0E10F
:1018A000BEE00E9434226D877E878F87988BBA892D
:1018B0002B2F30E0ACE3B0E00E9434222D853E8532
:1018C0004F855889260F371F481F591FDA01C90154
:1018D0003B89830F911DA11DB11D480E591E6A1E23
:1018E0007B1E840C951CA61CB71CC80CD91CEA1CBA
:1018F000FB1C8C899D89AE89BF89C80ED91EEA1E42
:10190000FB1ED80120E831E541E050E00E9443226F
:10191000DC01CB018C0D9D1DAE1DBF1D80931703F7
:1019200090931803A0931903B0931A0367960FB608
:10193000F894DEBF0FBECDBFDF91CF911F910F9105
:10194000FF90EF90DF90CF90BF90AF909F908F90DF
:101950007F906F905F904F903F902F900C94231545
:10196000EF92FF920F931F93CF93DF93CDB7DEB724
:1019700068970FB6F894DEBF0FBECDBF7B012CE099
:10198000E2E6F1E0DE011D9601900D922A95E1F765
:101990008E010F5F1F4F2CE0F80111922A95E9F795
:1019A0000E94310B8A83DE011D9680E0F7014081A1
:1019B00051819D91F80121918F0130E0290F311D56
:1019C0004217530740F0421B530BF70151834083EA
:1019D0008F5F8C3059F768960FB6F894DEBF0FBE54
:1019E000CDBFDF91CF911F910F91FF90EF900895A0
:1019F0004F925F926F927F928F929F92AF92BF921F
:101A0000CF92DF92EF92FF92CF93DF9300D0CDB7CA
:101A1000DEB72B013C0181E090E0A0E0B0E020E8DF
:101A2000421629E5520620E6620620EF720618F4F7
:101A300080E090E0DC0120E931E0829F5001839F4B
:101A4000B00C929FB00C112480E3A81A88EFB80A5A
:101A5000C12CD12C7601C39420E8421629E5520608
:101A600020E6620620EF720618F4C12CD12C760114
:101A7000A701960160E879E580E690EF0E94B42125
:101A800073016201C61AD70AE80AF90A81E090E0F8
:101A9000A0E0B0E0C11422ECD20627E1E2062CEB74
:101AA000F20618F480E090E0DC0144E6489F9001E3
:101AB000499F300D1124A20EB31E21E030E040E01A
:101AC00050E0C11482ECD80687E1E8068CEBF806FA
:101AD00018F420E030E0A90160E072EC87E19CEBB3
:101AE0000E94B421A7019601261B370B480B590B06
:101AF000CA01B90120E83FE146E857E00E94EC2125
:101B0000220F331F220F331FA20EB31E20E833E330
:101B100041EE51E00E94EC217501E20EF31E20E837
:101B200031E541E050E00E94EC214B015C013A8339
:101B30002983BE016F5F7F4FC7010E94B00CD82E72
:101B4000C501B40120E13EE040E050E00E94EC21FC
:101B500029013A014B015C016FED71E082E091E0F7
:101B60000E946D146D2D70E06F5F7F4F42E082E048
:101B700091E00E94801469817A816F5F7F4F42E01B
:101B800085E091E00E94801444E0B70188E091E094
:101B90000E94801442E0B2018DE091E00E94801426
:101BA000C501B4012CE330E040E050E00E94EC219C
:101BB00049015A016B017C0142E0B40180E191E0EE
:101BC0000E94801442E0B60183E191E00E948014FB
:101BD00082E091E00F900F90DF91CF91FF90EF9016
:101BE000DF90CF90BF90AF909F908F907F906F903D
:101BF0005F904F9008950F931F930E9417150091C7
:101C00001703109118032091190330911A03600FE4
:101C1000711F821F931F1F910F910C94F80CEF926C
:101C2000FF920F931F93CF93DF938C01EB017A0107
:101C3000009721F0209711F0452B29F483EF91E0D4
:101C40000E943515FFCF68E072E00E944D16892B87
:101C500029F483EF91E00E94351544C062E172E0FF
:101C6000CE010E944D16892BA1F36BE172E0C701F2
:101C70000E944D16892B69F34CE050E0B8018FE1CA
:101C800093E00E94401410922A034CE050E0BE0101
:101C90008BE293E00E944014109236034CE050E037
:101CA000B70187E393E00E94401410924203F801C9
:101CB00080818E7F80934703818180934803828156
:101CC00080934903888180934A03898180934B03E1
:101CD0008A8180934C03DF91CF911F910F91FF90E8
:101CE000EF900895FFCF0E94D620882361F00E94D4
:101CF000DD208435C1F783E292E00E9435158FEF35
:101D000090E00C9494000895EF92FF921F93CF936C
:101D1000DF9300D000D000D0CDB7DEB7182F7A0106
:101D200086E0EEE6F1E0DE01119601900D928A95D3
:101D3000E1F7FB0181818F778C8382818D838381A1
:101D40008E83812F0E949D1BBE016F5F7F4F812F6D
:101D50000E948F1BB701812F0E94AB1BB701812FFF
:101D60000E94661B62E8812F0E94371B61E0812F71
:101D70000E94491B81E026960FB6F894DEBF0FBE85
:101D8000CDBFDF91CF911F91FF90EF9008950E94FA
:101D9000621B91E0823209F090E0892F08950E9441
:101DA000621B882341F08C3131F091E08A3109F4D3
:101DB00090E0892F089580E008950E94621B91E0D1
:101DC000843109F090E0892F08950E94621B91E010
:101DD000873109F090E0892F08950E94621B91E0FD
:101DE000811190E0892F08950C94ED0ECF93C82FA8
:101DF00060E10E94491B6FEF8C2FCF910C94541B14
:101E00000F931F93CF93DF93C82FD62F8A010E9481
:101E1000F60E6D2F8C2F0E94371B0115110511F046
:101E2000B8010AC060910203709103036F5F7F4F96
:101E300070930303609302038C2F0E94661B61E082
:101E40008C2F0E94491B81E0DF91CF911F910F9150
:101E50000895AB0162E00C94000FAB0161E00C94BB
:101E6000000F0C94F60ECF93C82F0E94621B833193
:101E700031F462E08C2F0E94491B81E001C080E0B8
:101E8000CF9108950F931F93CF93FB0190819F3FB4
:101E900051F491819F3F91F492819F3F79F4938116
:101EA0009F3F61F41DC0911109C09181911106C03D
:101EB0009281911103C09381992399F041155105A5
:101EC00079F08A01BF01C82F0E949D1BB8018C2F99
:101ED0000E94AB1B64E08C2F0E94491B91E001C063
:101EE00090E0892FCF911F910F91089568E00C9495
:101EF000491BCF92DF92EF92FF920F931F93CF93E4
:101F0000C82F7B018A014130584010F000E018E0F2
:101F10008C2F0E94261C6C018C2F0E94621B873123
:101F200011F08C3121F4C016D10690F302C000E00C
:101F300010E0A801B7018C2F0E94C71C60E28C2F13
:101F40000E94491B8C2F0E94591B84FD0BC08C2FB3
:101F50000E94621B8111F6CF8C2F0E94F60E80E04A
:101F600090E005C060E18C2F0E94541BC801CF9106
:101F70001F910F91FF90EF90DF90CF900895CF9237
:101F8000DF92EF92FF921F93CF93DF93182F6B0195
:101F90007A010E940E1DEC01009789F4812F0E94A6
:101FA000621B8431E9F08823D9F0C1E0D0E08C31A4
:101FB00011F4C0E0D0E0D195C195D10911C0E81667
:101FC000F9060CF4E7011C161D0654F420E0AE01DE
:101FD000B601812F0E94881D60E4812F0E94491B59
:101FE000CE01DF91CF911F91FF90EF90DF90CF90C6
:101FF00008950C940E1D0C940E1D21E041E050E05C
:102000000E94881D81E090E00895CF92DF92EF92C8
:10201000FF920F931F93CF93F9019081911109C003
:102020009181911106C09281911103C093819923EE
:10203000A1F10115110589F17A014130584018F0DC
:10204000E12C98E0F92EE114F10439F16B01C82F6D
:10205000BF010E949D1BB8018C2F0E94AB1BA701E2
:10206000B6018C2F0E94C71C60E28C2F0E94491B76
:102070008C2F0E94591B84FD0AC08C2F0E94591B73
:1020800083FFF6CF68E18C2F0E94541B06C060E1ED
:102090008C2F0E94541BC70102C080E090E0CF91BA
:1020A0001F910F91FF90EF90DF90CF900895EF92E6
:1020B000FF921F93CF93DF934115510589F0EA01F9
:1020C0007B01182F0E940E1D8C179D0708F4EC0150
:1020D00020E0AE01B701812F0E94881DCE0102C011
:1020E00080E090E0DF91CF911F91FF90EF900895F5
:1020F0008F929F92BF92CF92DF92EF92FF920F93B7
:102100001F93CF93DF93CDB7DEB728970FB6F89420
:10211000DEBF0FBECDBF452B09F47EC049016B0168
:10212000B82E0E943B1D7C018B2D0E943C1B8770AA
:10213000833059F1843009F445C0823009F065C01C
:1021400028E030E0AE014F5F5F4FB7018B2D0E945A
:10215000DB1988E0E80EF11C8981F40180838A8113
:1021600081838B8182838C8183838D8190E0982F02
:1021700088272E81820F911DF801918380830F8122
:1021800010E0102F002788851AC026E030E0AE014D
:102190004F5F5F4FB7018B2D0E94DB19F6E0EF0E0A
:1021A000F11C8981F40180838A8181838B81828300
:1021B0008C8183830D8110E0102F00278E81080F02
:1021C000111D16C022E030E0AE014F5F5F4FB70136
:1021D0008B2D0E94DB19F2E0EF0EF11C098110E05B
:1021E000902F88270A8110E002501109080F191F4B
:1021F0009801A601B7018B2D0E94DB19B701600F72
:10220000711F8B2D0E942A1D02C000E010E060E4C7
:102210008B2D0E94491B02C000E010E0C8012896E7
:102220000FB6F894DEBF0FBECDBFDF91CF911F91E7
:102230000F91FF90EF90DF90CF90BF909F908F9085
:1022400008951F93CF93DF93182FEA014130584030
:1022500018F42097F9F002C0C0E0D8E0AE01812F59
:102260000E94C71C60E2812F0E94491B812F0E949F
:10227000591B84FD09C0812F0E94591B83FFF6CF93
:10228000812F0E94F60E06C060E1812F0E94541B30
:10229000CE0102C080E090E0DF91CF911F910895C0
:1022A000CF92DF92EF92FF921F93CF93DF93182F7D
:1022B0007B016A01E9010E94261C8C179D0720F40E
:1022C000812F0E94261CEC019E01A601B701812FDF
:1022D0000E947C1CCE01DF91CF911F91FF90EF9067
:1022E000DF90CF9008951F93CF93DF93182FEB01CA
:1022F000CB010E947714AC01BE01812FDF91CF91F9
:102300001F910C94790FCF93DF931F92CDB7DEB757
:10231000698341E050E0BE016F5F7F4F0E94790FFB
:102320000F90DF91CF9108950F931F93CF93C82FF4
:102330008B0162E20E948311B8018C2F0E947311FD
:1023400062E28C2FCF911F910F910C948311CF9348
:10235000C82FCB01BA010E94F80CFC011286BC0107
:102360008C2FCF910C949411CF93DF93D82FC62F3D
:1023700070E084E0759567958A95E1F76A3010F40E
:10238000605D01C0695C8D2F0E9483116C2F6F709E
:102390006A3010F0695C01C0605D8D2FDF91CF91D4
:1023A0000C948311EF92FF920F931F93CF93C82F3A
:1023B0007B0162E20E948311F70161918F018C2FF2
:1023C0000E94B411F6E0EF0EF11C6AE38C2F0E941C
:1023D0008311F80161918F018C2F0E94B4110E15A9
:1023E0001F0599F762E28C2FCF911F910F91FF90FB
:1023F000EF900C948311CF93DF93C82FD62F672FC4
:102400000E94B4116D2F8C2FDF91CF910C94B411D9
:102410002F923F924F925F926F927F928F929F92F4
:10242000AF92BF92CF92DF92EF92FF920F931F93E2
:10243000CF93DF93CDB7DEB762970FB6F894DEBFC8
:102440000FBECDBF782E7B0177FF08C0F194E194D9
:10245000F10881E090E0998B888B02C0198A188A74
:10246000FE0131961F018E01055F1F4F6F01882409
:102470008394912CA12CB12CAAE0B0E09401A50189
:102480000E9443226A8B472E582E692EB7010F2CCB
:10249000000C880B990B2A89342D452D562D0E944E
:1024A0000E229401A5010E940E22F60121936F01D4
:1024B000E21AF10827FDF3948A88942CA52CB62CF7
:1024C0000E171F07C9F688899989892B21F06DE2BB
:1024D000872D0E94831180E090E0F80162918F01C6
:1024E000611105C0009719F42E163F0641F4605D96
:1024F000F8016083872D0E94831181E090E020160F
:10250000310659F762960FB6F894DEBF0FBECDBF05
:10251000DF91CF911F910F91FF90EF90DF90CF90BF
:10252000BF90AF909F908F907F906F905F904F90F3
:102530003F902F9008950F931F93CF93FB019081AD
:10254000911109C09181911106C09281911103C02E
:102550009381992379F04115510561F08A01BF01FA
:10256000C82F0E949D1BB8018C2F0E94AB1B81E0DD
:1025700090E002C080E090E0CF911F910F9108950C
:10258000CF93C82F60E20E94491B8C2F0E94591BD9
:1025900084FD0CC08C2F0E94591B83FFF6CF68E18D
:1025A0008C2F0E94541B80E090E006C060E18C2FCD
:1025B0000E94541B81E090E0CF910895EF92FF922A
:1025C0000F931F93CF93DF931F92CDB7DEB7182FD2
:1025D000E12CF12C812F0E940E1DE816F90688F4DB
:1025E00001E0970141E050E0BE016F5F7F4F812F16
:1025F0000E94531D89818A3031F08FEFE81AF80A62
:10260000E9CF80E001C081E00F90DF91CF911F9171
:102610000F91FF90EF9008951F93CF93DF931F9238
:10262000CDB7DEB7182F0E940E1D892B89F021E04F
:1026300041E050E0BE016F5F7F4F812F0E94881DF7
:10264000998181E09D3029F09A3019F080E001C035
:1026500081E00F90DF91CF911F9108958F929F920B
:10266000AF92BF92CF92DF92EF92FF920F931F93A0
:10267000CF93DF931F92CDB7DEB7182F5B010E9477
:102680000E1D7C01C5010E947714E816F90668F159
:1026900075016701CA18DB084701F70180818823AB
:1026A00099F001E0960141E050E0BE016F5F7F4F7D
:1026B000812F0E94531D8FEFE81AF80AF4019081D0
:1026C0008981981731F311C0C114D10461F041E040
:1026D00050E0BE016F5F7F4F812F0E94BF0FF1E07E
:1026E000CF1AD108F1CF81E001C080E00F90DF91D7
:1026F000CF911F910F91FF90EF90DF90CF90BF90FF
:10270000AF909F908F9008951F93CF93DF931F9268
:10271000CDB7DEB7182F812F0E940E1D892BC1F176
:1027200041E050E0BE016F5F7F4F812F0E94BF0FDD
:1027300089818D30D1F4812F0E940E1D892B59F390
:1027400021E041E050E0BE016F5F7F4F812F0E948A
:10275000881D89818A30E1F441E050E0BE016F5F5D
:102760007F4F812F0E94BF0F13C08A30A1F6812FA7
:102770000E940E1D892B79F221E041E050E0BE015C
:102780006F5F7F4F812F0E94881D89818D3021F3DB
:102790000F90DF91CF911F910895BF92CF92DF925A
:1027A000EF92FF920F931F93CF93DF931F92CDB7BA
:1027B000DEB7C82E8B01FB01118210820E940E1D14
:1027C000892B09F451C0D12CEE24E394F12C2AE09A
:1027D000B22E8C2D0E940E1D892BB9F121E041E013
:1027E00050E0BE016F5F7F4F8C2D0E94881D898154
:1027F0008D3231F4D11038C0EE24EA94FE2C1CC086
:1028000090ED980F9A3090F4F80140815181B49E78
:102810009001B59E300D1124082E000C990BC09725
:10282000820F931F91838083D39406C08A3069F00E
:102830008D3059F0803249F041E050E0BE016F5FC9
:102840007F4F8C2D0E94BF0FC4CFF80120813181B2
:102850002E9DC0012F9D900D3E9D900D11249183C2
:10286000808381E0D11001C080E00F90DF91CF9193
:102870001F910F91FF90EF90DF90CF90BF90089540
:10288000FB01480F591F8417950729F02191DC019E
:102890002D93CD01F8CF0895480F591F8417950740
:1028A00021F0FC016193CF01F9CF0895FB01480F9E
:1028B000591F8417950759F0DC013D91CD012191F5
:1028C000321740F02317A8F781E090E0089580E0E8
:1028D00090E008958FEF9FEF0895FC01DB018D914B
:1028E000BD01882311F08193F9CF10820895FC0176
:1028F0009F01281B390B41914111FACFC90108955D
:102900009F92AF92BF92CF92DF92EF92FF920F937E
:102910001F93CF93DF9300D000D01F92CDB7DEB7C7
:10292000FC016B019E012F5F3F4F8E010A5F1F4F1D
:10293000EE24E394F12C9AE0992E9E9C50019F9CEA
:10294000B00C1124C601B5010E94C421B7010E9438
:10295000C421D9016D939D01C61AD10867FDD39496
:102960007501A017B10749F760E070E084E090E0DE
:1029700050E0D8012E918D01211105C0611571051E
:1029800011F4009741F4841795072CF4205D2193EE
:1029900061E070E004C0841795070CF4319601974C
:1029A00040F70F900F900F900F900F90DF91CF9105
:1029B0001F910F91FF90EF90DF90CF90BF90AF905D
:1029C0009F9008951F920F920FB60F9211248F932C
:1029D0009F93AF93BF938091040390910503A091BF
:1029E0000603B09107030196A11DB11D8093040356
:1029F00090930503A0930603B0930703BF91AF9193
:102A00009F918F910F900FBE0F901F90189583E2AA
:102A100094EF9093890080938800109280008CE05E
:102A200080938100789482E080936F0008952FB79F
:102A3000F8946091040370910503809106039091CE
:102A400007032FBF08958FB7F894109204031092D4
:102A5000050310920603109207038FBF08950E948A
:102A6000681F789408950C942C21CF93DF93EC0188
:102A70008991882319F00E942C21FACFDF91CF9100
:102A80000895CF93C82F90E024E0959587952A95D7
:102A9000E1F78A3010F4805D01C0895C0E942C212E
:102AA0008C2F8F708A3010F0895C01C0805DCF91CF
:102AB0000C942C21CF93C82F892F0E9441158C2F65
:102AC000CF910C9441152F923F924F925F926F924B
:102AD0007F928F929F92AF92BF92CF92DF92EF92AE
:102AE000FF920F931F93CF93DF93CDB7DEB763971A
:102AF0000FB6F894DEBF0FBECDBF6B017C0197FF10
:102B00000DC0F094E094D094C094C11CD11CE11C81
:102B1000F11C81E090E09B8B8A8B02C01B8A1A8A91
:102B2000FE0131965F018E01055F1F4FF98BE88B27
:102B300066246394712C812C912CAAE0B0E093015F
:102B4000A4010E9443221B012C01C701B60191017F
:102B5000A2010E940E229301A4010E940E22E88984
:102B6000F9892193F98BE88B822F220F990BAA0BFD
:102B7000BB0BC81AD90AEA0AFB0A310142010E1737
:102B80001F07D9F68A899B89892B19F08DE20E944B
:102B90002C2120E030E0F80182918F01811106C0E4
:102BA0002115310519F4EA15FB0529F4805D0E9411
:102BB0002C2121E030E00A151B0569F763960FB65A
:102BC000F894DEBF0FBECDBFDF91CF911F910F9163
:102BD000FF90EF90DF90CF90BF90AF909F908F903D
:102BE0007F906F905F904F903F902F9008950C943E
:102BF00002210C942921FF920F931F93CF93DF930F
:102C0000EC01062FF72E18820E94022110E0882383
:102C1000D9F00E94D6208823B9F00E94DD208032AE
:102C200010F089931F5FE02FFF2D482F50E0219176
:102C3000222339F0022E000C330B42175307B9F749
:102C400002C08D3051F71882812FDF91CF911F91F3
:102C50000F91FF9008950F931F93CF93DF938C01F3
:102C6000EC01699170E080E090E00E9463150C5FD8
:102C70001F4F8EE20E942C21699170E080E090E06D
:102C80000E946315C017D107A1F78CED91E0DF9189
:102C9000CF911F910F910C943515DC01FB019D9193
:102CA000992341F08191891784F09817C4F78FEF29
:102CB0009FEF089581E090E02081211102C080E023
:102CC00090E0919581959109089581E090E00895B3
:102CD000DC0190E020E061507109422F50E0FD01DD
:102CE000E40FF51F4617570720F48081980F2F5FD8
:102CF000F4CF919590830895611571058105910533
:102D000041F060931A0170931B0180931C01909312
:102D10001D01211531054105510541F02093160192
:102D200030931701409318015093190108954F9261
:102D30005F926F927F928F929F92AF92BF92CF924B
:102D4000DF92EF92FF92CF93DF9300D000D0CDB708
:102D5000DEB72B013C0129833A834B835C83C0900F
:102D60001601D0901701E0901801F0901901A70109
:102D7000960144275527A9E6B0E90E94432267013E
:102D8000EE24FF244B015C018C0C9D1CAE1CBF1C6F
:102D90008092160190921701A0921801B092190129
:102DA000C0901A01D0901B01E0901C01F0901D0111
:102DB000A701960144275527A0E5B6E40E944322C7
:102DC0006701EE24FF24C60ED71EE81EF91EC0922E
:102DD0001A01D0921B01E0921C01F0921D01D40156
:102DE00099278827BC01CD016C0D7D1D8E1D9F1D6F
:102DF00029813A814B815C8124193509460957099B
:102E00000E94EC21CB01840D951D0F900F900F9027
:102E10000F90DF91CF91FF90EF90DF90CF90BF9018
:102E2000AF909F908F907F906F905F904F9008959C
:102E3000CF93DB01FC0120812D3221F401966FEF4D
:102E40007FEF02C061E070E011961C921E92FC01BF
:102E5000CAE020818D919C9111972223C1F0C89FD7
:102E6000A001C99F500D112411965C934E9321919E
:102E700080ED820F8A30B8F4022E000C330B205301
:102E80003109240F351F11963C932E93E2CF869F74
:102E90009001879F300D969F300D11242D933C9308
:102EA00081E090E002C080E090E0CF9108958091B1
:102EB0001B03833561F480911C03853441F481E068
:102EC00090E020911D03223521F080E002C080E0D7
:102ED00090E0EBE1F3E020E03191230F33E0E335C4
:102EE000F307D1F7222311F080E090E00895CF930B
:102EF000DF93CDB7DEB7E7970FB6F894DEBF0FBE0E
:102F0000CDBF87E3E4E7F1E0DE01119601900D9279
:102F10008A95E1F767E370E0CE0101960E9468169A
:102F200047E3BE016F5F7F4F80E090E00E949D1EEF
:102F3000E7960FB6F894DEBF0FBECDBFDF91CF91FD
:102F400008950E94E61E892BE1F747E36BE173E0E9
:102F500080E090E00E94D11E0E945717892B49F40F
:102F60000E94771747E36BE173E080E090E00C94F8
:102F7000D11E0895AF92BF92DF92EF92FF920F930E
:102F80001F93CF93DF93EC01D62EE72E8A01809119
:102F900008038333F9F4A62EB72E7E01E40EF51E46
:102FA000CE15DF0509F45EC062E080E50E949B213A
:102FB00080EF0E94A9218D2F0E94A9218C2F0E94B1
:102FC000A9212196F50181915F010E94A9210E940A
:102FD000B021E6CF62E080E50E949B21C115F4E0BC
:102FE000DF0718F4FC2EC4E00DC0C11528E0D2079D
:102FF00058F4FC2ED45033E0D695C7953A95E1F7B6
:10300000C07ECC6080E018C0CE019770892FFC2E66
:10301000C115E0E6DE0740F426E0D695C7952A956F
:10302000E1F7C07EC46108C0D05696E0D695C7953A
:103030009A95E1F7C07ECC610E94A9218F2D0E9454
:10304000A9218C2F0E94A921CD2DDE2D7E01E00E1D
:10305000F11ECE15DF0521F089910E94A921F9CF3B
:103060000E94B021C801DF91CF911F910F91FF9075
:10307000EF90DF90BF90AF900895CF93DF931F92B2
:10308000CDB7DEB7698341E050E0BE016F5F7F4F8F
:103090000E94BA170F90DF91CF9108958F929F925F
:1030A000AF92BF92CF92DF92EF92FF920F931F9356
:1030B000CF93DF93EC018B016A017901FA01608102
:1030C00081E090E00E943D18F601618182E090E08D
:1030D0000E943D18F601628183E090E00E943D1855
:1030E000F601638184E090E00E943D180E940F0287
:1030F0004B015C01F2E08F0E911CA11CB11C0E94DF
:103100000F02681579058A059B05C9F7688189E072
:1031100090E00E943D1869818AE090E00E943D188D
:103120006A818BE090E00E943D186B818CE090E01A
:103130000E943D186C818DE090E00E943D186D81E9
:103140008EE090E00E943D180E940F024B015C014E
:1031500022E0820E911CA11CB11C0E940F02681576
:1031600079058A059B05C9F7F701608185E090E044
:103170000E943D18F701618186E090E00E943D18B1
:10318000F701628187E090E00E943D18F7016381BA
:1031900088E090E00E943D180E940F026B017C01C4
:1031A000F2E0CF0ED11CE11CF11C0E940F026C1545
:1031B0007D058E059F05C9F7F80160818FE090E0DD
:1031C0000E943D18F801618180E190E00E943D1865
:1031D000F801628181E190E00E943D18F80163816D
:1031E00082E190E00E943D180E940F026B017C0179
:1031F000F2E0CF0ED11CE11CF11C0E940F026C15F5
:103200007D058E059F05C9F765E58AE190E00E947E
:103210003D1865E58BE190E00E943D1880E0DF916C
:10322000CF911F910F91FF90EF90DF90CF90BF90C3
:10323000AF909F908F900895AF92BF92DF92EF92E0
:10324000FF920F931F93CF93DF93EC01D62EE72EBF
:103250008A0180910803833301F5A62EB72E7E01E3
:10326000E40EF51ECE15DF0509F460C062E080E5CE
:103270000E949B218FE00E94A9218D2F0E94A921ED
:103280008C2F0E94A921219680E00E94A921F5019E
:1032900081935F010E94B021E5CF62E080E50E944A
:1032A0009B21C115F4E0DF0718F4FC2EC0E00DC02F
:1032B000C11528E0D20758F4FC2ED45033E0D6953F
:1032C000C7953A95E1F7C07EC86080E018C0CE018E
:1032D0009770892FFC2EC115E0E6DE0740F426E04A
:1032E000D695C7952A95E1F7C07EC06108C0D05633
:1032F00096E0D695C7959A95E1F7C07EC8610E9481
:10330000A9218F2D0E94A9218C2F0E94A921CD2DAA
:10331000DE2D7E01E00EF11ECE15DF0529F080E0E6
:103320000E94A9218993F8CF0E94B021C801DF91A2
:10333000CF911F910F91FF90EF90DF90BF90AF90D2
:103340000895CF93DF931F92CDB7DEB741E050E0F1
:10335000BE016F5F7F4F0E941C1989810F90DF9122
:10336000CF91089590E00496982F8827860F971F95
:103370000C94A1199B0190E00496982F8827642F44
:10338000820F931F0E943D180895FB01BA0190E03F
:103390000496982F8827A9018E0F9F1F0C941C1943
:1033A000FB01BA0190E00496982F8827A9018E0F9F
:1033B0009F1F0C94BA17AF92BF92CF92DF92EF92F9
:1033C000FF920F931F93CF93DF9300D0CDB7DEB75B
:1033D0007A836983BA01A901A981BA81B770E82FFC
:1033E000F0E0EE0FFF1FE555FE4FE080F180CD01CC
:1033F0008E0D9F1D9D01240F351F2130384080F018
:103400006A015B0100E018E00A1B1B0BA8010E9487
:103410001C19A601401B510BB501600F711FC7019C
:103420000F900F90DF91CF911F910F91FF90EF9030
:10343000DF90CF90BF90AF900C941C19682F80E064
:1034400090E00C943D1880E090E00C94A119CF928C
:10345000DF92EF92FF9283E38093080360E880E0BD
:1034600090E00E943D180E940F026B017C0122E057
:10347000C20ED11CE11CF11C0E940F026C157D05CF
:103480008E059F05C9F780E10E941E1A0E94231A2B
:10349000803121F01092080380E00FC082E10E9489
:1034A0001E1A0E94231A8231A9F780E00E941E1A78
:1034B0000E94231A8111EECF81E0FF90EF90DF9000
:1034C000CF900895CF92DF92EF92FF9287E380939F
:1034D000080360E880E090E00E943D180E940F021F
:1034E0006B017C0122E0C20ED11CE11CF11C0E9488
:1034F0000F026C157D058E059F05C9F788E00E94B7
:103500001E1A0E94231A883021F01092080380E0CE
:103510000FC080E10E941E1A0E94231A8031A9F771
:1035200080E00E941E1A0E94231A8111EECF81E0D2
:10353000FF90EF90DF90CF9008950E94271A81119D
:1035400002C00C94621A089544E050E0BC0181E08E
:1035500090E00C94BA1744E050E0BC0181E090E0A8
:103560000C941C1944E050E0BC0185E090E00C9400
:10357000BA1744E050E0BC0185E090E00C941C19BF
:1035800046E050E0BC0189E090E00C94BA1746E0B8
:1035900050E0BC0189E090E00C941C1944E050E03C
:1035A000BC018FE090E00C94BA1744E050E0BC01FD
:1035B0008FE090E00C941C19682F85E190E00C944A
:1035C0003D1885E190E00C94A119CF93C82F692F85
:1035D00087E190E00E943D186C2F88E190E0CF9148
:1035E0000C943D18CF93DF9387E190E00E94A119DE
:1035F000C82FD0E0DC2FCC2788E190E00E94A119F1
:103600009E01280F311DC901DF91CF91089544E03B
:1036100050E0BC018AE290E00C94BA1744E050E01C
:10362000BC018AE290E00C941C19CF93C82F692F3B
:103630008EE290E00E943D186C2F8FE290E0CF91D7
:103640000C943D18CF93DF938EE290E00E94A11975
:10365000C82FD0E0DC2FCC278FE290E00E94A11988
:103660009E01280F311DC901DF91CF910895462F8A
:1036700060E070E00C94BA1960E070E00C94B2194C
:10368000462F61E070E00C94BA1961E070E00C9490
:10369000B219CF93C82F0E94401B8C2F0E94451B4C
:1036A0008111FBCFCF910895462F62E070E00C941A
:1036B000BA1962E070E00C94B219462F63E070E032
:1036C0000C94BA1963E070E00C94B219CF93DF93B5
:1036D000C82FD62F472F64E070E00E94BA194D2FF3
:1036E00065E070E08C2FDF91CF910C94BA191F9395
:1036F000CF93DF93182F64E070E00E94B219C82FB7
:10370000D0E065E070E0812F0E94B219DC2FCC2759
:103710009E01282BC901DF91CF911F910895AB0124
:1037200026E030E066E070E00C94D019AB0126E0B2
:1037300030E066E070E00C94C519AB0124E030E0A5
:103740006CE070E00C94D019AB0124E030E06CE048
:1037500070E00C94C519CF93DF93C82FD62F472F55
:1037600060E170E00E94BA194D2F61E170E08C2F8A
:10377000DF91CF910C94BA191F93CF93DF93182F39
:1037800060E170E00E94B219C82FD0E061E170E002
:10379000812F0E94B219DC2FCC279E01282BC90152
:1037A000DF91CF911F910895CF93DF93C82FD62F2C
:1037B000472F62E170E00E94BA194D2F63E170E07B
:1037C0008C2FDF91CF910C94BA191F93CF93DF9375
:1037D000182F62E170E00E94B219C82FD0E063E1B7
:1037E00070E0812F0E94B219DC2FCC279E01282B7C
:1037F000C901DF91CF911F910895CF93DF93C82F17
:10380000D62F472F60E270E00E94BA194D2F61E277
:1038100070E08C2FDF91CF910C94BA191F93CF9346
:10382000DF93182F60E270E00E94B219C82FD0E039
:1038300061E270E0812F0E94B219DC2FCC279E013B
:10384000282BC901DF91CF911F910895FF920F930B
:103850001F93CF93DF93F82EC0E0D0E08F2D0E940E
:103860000E1C8C01892B21F08F2D0E940E1CEC0167
:10387000C017D10799F7CE01DF91CF911F910F911A
:10388000FF900895CF93DF93C82FD62F472F62E282
:1038900070E00E94BA194D2F63E270E08C2FDF9127
:1038A000CF910C94BA191F93CF93DF93182F62E234
:1038B00070E00E94B219C82FD0E063E270E0812F5F
:1038C0000E94B219DC2FCC279E01282BC901DF9161
:1038D000CF911F910895CF93DF93C82FD62F472FF5
:1038E00064E270E00E94BA194D2F65E270E08C2FFF
:1038F000DF91CF910C94BA199F92AF92BF92CF9261
:10390000DF92EF92FF920F931F93CF93DF93982E46
:103910007B016A0189010E94531CE80EF91E970180
:103920003770E92DF0E0EE0FFF1FED54FE4FA08041
:10393000B180C9018A0D9B1DA901400F511F413063
:10394000584080F0C0E0D8E0C21BD30BAE01B601F6
:103950000E94BA17A8014C1B5D0BB6016C0F7D1FAE
:10396000C50102C0A801B6010E94BA17B701600FD5
:10397000711F892DDF91CF911F910F91FF90EF90D3
:10398000DF90CF90BF90AF909F900C946B1C9A01EA
:10399000AB0160E070E00C947C1C1F93CF93DF932D
:1039A000182F64E270E00E94B219C82FD0E065E2DF
:1039B00070E0812F0E94B219DC2FCC279E01282BAA
:1039C000C901DF91CF911F910895CF93DF93C82F45
:1039D000D62F472F66E270E00E94BA194D2F67E29A
:1039E00070E08C2FDF91CF910C94BA191F93CF9375
:1039F000DF93182F66E270E00E94B219C82FD0E062
:103A000067E270E0812F0E94B219DC2FCC279E0163
:103A1000282BC901DF91CF911F910895FF920F9339
:103A20001F93CF93DF93F82EC0E0D0E08F2D0E943C
:103A3000F61C8C01892B21F08F2D0E94F61CEC01C5
:103A4000C017D10799F7CE01DF91CF911F910F9148
:103A5000FF900895CF93DF93C82FD62F472F68E2AA
:103A600070E00E94BA194D2F69E270E08C2FDF914F
:103A7000CF910C94BA191F93CF93DF93182F68E25C
:103A800070E00E94B219C82FD0E069E270E0812F87
:103A90000E94B219DC2FCC279E01282BC901DF918F
:103AA000CF911F910895CF92DF92EF92FF920F93E3
:103AB0001F93CF93DF93182F6B017A01E9010E94C6
:103AC0003B1D8C0F9D1FEC01D7709701A601BE0115
:103AD000812F0E94DB19011112C0BE016E0D7F1DE6
:103AE000812F0E942A1D60E4812FDF91CF911F91C9
:103AF0000F91FF90EF90DF90CF900C94491BDF91D6
:103B0000CF911F910F91FF90EF90DF90CF9008958C
:103B10000F93022F20E030E00E94531D0F91089573
:103B2000CF93DF93C82FD62F472F6AE270E00E9411
:103B3000BA194D2F6BE270E08C2FDF91CF910C946E
:103B4000BA191F93CF93DF93182F6AE270E00E9497
:103B5000B219C82FD0E06BE270E0812F0E94B21939
:103B6000DC2FCC279E01282BC901DF91CF911F911B
:103B700008951F920F920FB60F9211240E94F31E08
:103B800082E00E9479090E9447090E94401EFBCFF3
:103B90009FB7F894A895E0E6F0E080818861808383
:103BA0008FE480839FBF0895A89508958091600059
:103BB0008B7080936000FFCF81E0809309030895AC
:103BC00080915203813461F480915303833541F431
:103BD00081E090E020915403253521F080E002C07F
:103BE00080E090E0E2E5F3E020E03191230F33E064
:103BF000E536F307D1F7222311F080E090E0089535
:103C000062E170E08EE191E00E94681642E16EE1AF
:103C100071E080E490E00C949D1E0E94E61E892BCA
:103C2000E1F742E162E573E080E490E00E94D11E9A
:103C30000E94E01D892B49F40E94001E42E162E5CA
:103C400073E080E490E00E94D11E10920903089571
:103C50000E94E61E892B99F480910903882379F04C
:103C600062E170E082E593E00E94681642E162E55D
:103C700073E080E490E00E949D1E10920903089575
:103C800080910903882379F062E170E082E593E096
:103C90000E94681642E162E573E080E490E00E94D1
:103CA000BA1E109209030895FA9AF99A08951F927C
:103CB0000F920FB60F9211242F933F934F935F9360
:103CC0006F937F938F939F93AF93BF93EF93FF93E4
:103CD000E091A80380916703E81720F0FB98109209
:103CE00064031AC0809165039091660392BD81BD03
:103CF00081E08E0F8093A803F0E0E859FC4F8081AB
:103D000080BD809165039091660301969093660350
:103D1000809365030E94541EFF91EF91BF91AF9174
:103D20009F918F917F916F915F914F913F912F91D3
:103D30000F900FBE0F901F901895209164032111D2
:103D4000FCCF909366038093650381E080936403C6
:103D50001092A80340936703962FA8E6B3E0FB01F7
:103D60008E2F891B841718F481918D93F9CF789445
:103D7000FB9A0895FB01861B970B50E0DC01AE0F08
:103D8000BF1F9F01261B370B2417350748F4F999ED
:103D9000FECFB2BDA1BD219120BDFA9AF99AEECF16
:103DA0000895209164032111FCCFFB01861B970B22
:103DB0002E2F261B241748F49C012E0F3F1F32BDC7
:103DC00021BDF89A20B52193F3CF08958091640323
:103DD00090E0089560E070E080E090E00E94E501EE
:103DE000219A29980895299A0895299808959093D9
:103DF0000B0380930A0310920E0310920D0310928E
:103E00000C0360E070E080E090E00E94E5010C941B
:103E1000F51E80910A0390910B03892B09F452C07F
:103E200080E090E00E94CC01892B09F44BC0809186
:103E30000C03811134C020910D0330910E03E091E9
:103E40000A03F0910B03E20FF31F80818032E9F047
:103E50003CF481111DC010920E0310920D030895C1
:103E60008D3239F08E32A1F40E94F31E6AEF70E0B9
:103E700004C00E94F31E6EEE72E080E090E00E94AB
:103E8000E50181E080930C03089568EE73E00BC0B8
:103E90002F5F3F4F30930E0320930D0308950E9430
:103EA000F51E64E670E080E090E00E94E50110926B
:103EB0000C0380910D0390910E03019690930E03D5
:103EC00080930D03089585B18695817090E00895E3
:103ED0001092C00087E690E09093C5008093C400E4
:103EE000E1ECF0E088E1808386E08093C20080818D
:103EF000806A808308951F920F920FB60F9211244B
:103F00002F933F938F939F93EF93FF93809115038C
:103F1000882309F4F0C08091C6009091140399237E
:103F200009F4E3C090EE980F9F3518F08D3009F03A
:103F300059C0209111039091120330E0291B3109DF
:103F4000215031092F733327232B61F0E0911203A5
:103F5000F0E0E755FC4F8083909112039F5F9F73C1
:103F60009093120320910F039091100330E0291BCE
:103F70003109215031092F733327232B89F0E09128
:103F80001003F0E0E751FC4F8083909110039F5F96
:103F90009F73909310039091C10090629093C10021
:103FA0008D3009F0C5C080910F032091100390E07F
:103FB000821B910901978F739927892B69F0E091F2
:103FC0001003F0E0E751FC4F8AE0808380911003FA
:103FD0008F5F8F7380931003809113038F5F8093A3
:103FE0001303A6C0883011F08F37C1F580911203FA
:103FF0002091110390E0821B91098F739927892BDF
:1040000009F496C0E0911203F0E0E755FC4F80817F
:104010008091120381508F738093120380910F035C
:104020002091100390E0821B910901978F739927CB
:10403000892B09F47DC0E0911003F0E0E751FC4FBB
:104040008FE78083809110038F5F8F7380931003BD
:104050008091C10080628093C1006AC0843009F001
:1040600067C0809112032091110390E0821B910997
:104070008F739927892B31F1E0911203F0E0E75516
:10408000FC4F80818D30F1F080911103209112035B
:1040900090E0821B910901978F739927892B91F0EA
:1040A000E0911203F0E0E755FC4F8DE080838091B2
:1040B00012038F5F8F7380931203809113038F5FBE
:1040C00080931303809111032091120390E0821BCF
:1040D000910901978F739927892B51F1E091120370
:1040E000F0E0E755FC4F84E019C0833009F581E02A
:1040F000809314031DC0809111032091120390E05E
:10410000821B910901978F739927892B79F0E09190
:104110001203F0E08091C600E755FC4F8083809148
:1041200012038F5F8F738093120302C08091C600C9
:10413000FF91EF919F918F913F912F910F900FBE23
:104140000F901F9018951F920F920FB60F92112487
:104150002F938F939F93EF93FF9380911003209160
:104160000F0390E0821B91098F739927892B79F0B7
:10417000E0910F03F0E0E751FC4F80818093C6008F
:1041800080910F038F5F8F7380930F0305C0809121
:10419000C1008F7D8093C100FF91EF919F918F911E
:1041A0002F910F900FBE0F901F90189580911203C2
:1041B00090911103891B8F730895809112032091B0
:1041C000110390E0821B91098F739927892BC1F00D
:1041D000E0911103F0E0E755FC4F808190911103CD
:1041E0009F5F9F739093110390911503992349F05A
:1041F0008D3039F4909113039150909313030895E7
:1042000080E0089581E0809315038091120320914E
:10421000110390E0821B91098F739927892BB1F0CC
:10422000E0911103F0E0E755FC4F8081843071F498
:1042300010921403E0911103F0E0E755FC4F8081E8
:10424000809111038F5F8F7380931103809114030A
:1042500008958091130308950FB607FE0EC02091B4
:104260000F039091100330E0291B310921503109CF
:104270002F733327232B99F30DC020910F039091B7
:10428000100330E0291B3109215031092F733327E6
:10429000232B61F0E0911003F0E0E751FC4F8083A5
:1042A000809110038F5F8F73809310038091C10002
:1042B00080628093C10008951F93CF93DF93EC0138
:1042C00080E011E0180FFE01E80FF11D80818823C6
:1042D00021F00E942C21812FF4CFDF91CF911F91EB
:1042E00008951F93CF93DF93EC0180E011E0180F46
:1042F000FE01E80FF11D8491882321F00E942C21FA
:10430000812FF4CFDF91CF911F9108959FB7F8943B
:10431000229B2A9A229A259A239A2D988CB58061FD
:104320008CBD8CB580648CBD109216039FBF089520
:1043300080911603089590911603911109C09FB7BB
:10434000F8948CBD6DBD81E0809316039FBF2A98C1
:1043500008958EBD00000DB407FEFDCF8EB5089503
:104360002A9A109216030895DB018F939F930E945F
:104370004322BF91AF91A29F800D911DA39F900DED
:10438000B29F900D11240895AA1BBB1B51E107C0D9
:10439000AA1FBB1FA617B70710F0A61BB70B881FD5
:1043A000991F5A95A9F780959095BC01CD01089564
:1043B00097FB072E16F4009407D077FD09D00E94D2
:1043C000C42107FC05D03EF4909581959F4F089538
:1043D000709561957F4F0895A1E21A2EAA1BBB1B11
:1043E000FD010DC0AA1FBB1FEE1FFF1FA217B307C1
:1043F000E407F50720F0A21BB30BE40BF50B661FD7
:10440000771F881F991F1A9469F76095709580959A
:1044100090959B01AC01BD01CF010895052E97FB3E
:104420001EF400940E94252257FD07D00E94EC2123
:1044300007FC03D04EF40C942522509540953095FE
:1044400021953F4F4F4F5F4F089590958095709500
:1044500061957F4F8F4F9F4F089569279627692752
:104460007827872778270895A29FB001B39FC001BE
:10447000A39F700D811D1124911DB29F700D811D90
:104480001124911D08950E943422A59F900DB49F80
:10449000900DA49F800D911D11240895F894FFCFD5
:1044A000030B443100802500002D00040B44300034
:1044B000802500002D0002060024F400010C617428
:0844C0006D65676133323800BD
:1044C8004B0030302F30302F303030302030303A01
:1044D80030303A303000E5559A15B53B121F41533C
:1044E8005500FF03FE030000010000C0A80164009E
:1044F80061737572697465006C6173746E616D6562
:104508000066697273746E616D65006C6F63616CCF
:104518002069703A2000EF010101FFFFFFFFC0A8EA
:1045280001011F1C1F1E1F1E1F1F1E1F1E1F010013
:104538005E0000005345520053616E64790000002C
:1045480000000000446F75676C6173000000000094
:104558005F554E41535349474E4544000000000003
:10456800444F5553414E55534100000060004800E8
:1045780070007800400048005000580D0A414C4136
:10458800524D3A200057495A6E65740074696D653A
:104598002073796E63656420005554430D0A00301A
:1045A800302F30302F303030302030303A30303A01
:1045B80030300050726F6A656374206E6F742073B8
:1045C80069676E65640D0A0066697273746E616D61
:1045D80065006C6173746E616D65006173757269F5
:0E45E80074650054657374696E670D0A0000F7
:00000001FF
